{
  "contractName": "ContratoSAS",
  "abi": [
    {
      "constant": true,
      "inputs": [],
      "name": "m_monto",
      "outputs": [
        {
          "name": "",
          "type": "uint256"
        }
      ],
      "payable": false,
      "stateMutability": "view",
      "type": "function"
    },
    {
      "constant": true,
      "inputs": [],
      "name": "contribution_counter",
      "outputs": [
        {
          "name": "",
          "type": "uint256"
        }
      ],
      "payable": false,
      "stateMutability": "view",
      "type": "function"
    },
    {
      "constant": false,
      "inputs": [],
      "name": "kill",
      "outputs": [],
      "payable": false,
      "stateMutability": "nonpayable",
      "type": "function"
    },
    {
      "constant": true,
      "inputs": [],
      "name": "m_symbol",
      "outputs": [
        {
          "name": "",
          "type": "string"
        }
      ],
      "payable": false,
      "stateMutability": "view",
      "type": "function"
    },
    {
      "constant": true,
      "inputs": [],
      "name": "m_monto_max",
      "outputs": [
        {
          "name": "",
          "type": "uint256"
        }
      ],
      "payable": false,
      "stateMutability": "view",
      "type": "function"
    },
    {
      "constant": true,
      "inputs": [],
      "name": "m_decimals",
      "outputs": [
        {
          "name": "",
          "type": "uint256"
        }
      ],
      "payable": false,
      "stateMutability": "view",
      "type": "function"
    },
    {
      "constant": true,
      "inputs": [],
      "name": "owner",
      "outputs": [
        {
          "name": "",
          "type": "address"
        }
      ],
      "payable": false,
      "stateMutability": "view",
      "type": "function"
    },
    {
      "constant": true,
      "inputs": [],
      "name": "m_project_valid",
      "outputs": [
        {
          "name": "",
          "type": "bool"
        }
      ],
      "payable": false,
      "stateMutability": "view",
      "type": "function"
    },
    {
      "constant": true,
      "inputs": [],
      "name": "m_closed_round",
      "outputs": [
        {
          "name": "",
          "type": "bool"
        }
      ],
      "payable": false,
      "stateMutability": "view",
      "type": "function"
    },
    {
      "constant": true,
      "inputs": [],
      "name": "m_url",
      "outputs": [
        {
          "name": "",
          "type": "string"
        }
      ],
      "payable": false,
      "stateMutability": "view",
      "type": "function"
    },
    {
      "constant": true,
      "inputs": [],
      "name": "m_cuit",
      "outputs": [
        {
          "name": "",
          "type": "uint256"
        }
      ],
      "payable": false,
      "stateMutability": "view",
      "type": "function"
    },
    {
      "constant": true,
      "inputs": [],
      "name": "m_total_supply",
      "outputs": [
        {
          "name": "",
          "type": "uint256"
        }
      ],
      "payable": false,
      "stateMutability": "view",
      "type": "function"
    },
    {
      "constant": true,
      "inputs": [],
      "name": "m_nombre",
      "outputs": [
        {
          "name": "",
          "type": "string"
        }
      ],
      "payable": false,
      "stateMutability": "view",
      "type": "function"
    },
    {
      "constant": true,
      "inputs": [],
      "name": "m_beneficiario",
      "outputs": [
        {
          "name": "",
          "type": "address"
        }
      ],
      "payable": false,
      "stateMutability": "view",
      "type": "function"
    },
    {
      "constant": true,
      "inputs": [],
      "name": "m_descripcion",
      "outputs": [
        {
          "name": "",
          "type": "string"
        }
      ],
      "payable": false,
      "stateMutability": "view",
      "type": "function"
    },
    {
      "constant": true,
      "inputs": [],
      "name": "m_beneficiary_valid",
      "outputs": [
        {
          "name": "",
          "type": "bool"
        }
      ],
      "payable": false,
      "stateMutability": "view",
      "type": "function"
    },
    {
      "constant": true,
      "inputs": [],
      "name": "m_fecha_fin",
      "outputs": [
        {
          "name": "",
          "type": "uint256"
        }
      ],
      "payable": false,
      "stateMutability": "view",
      "type": "function"
    },
    {
      "inputs": [
        {
          "name": "cnv_addr",
          "type": "address"
        },
        {
          "name": "oraculo_precio_addr",
          "type": "address"
        },
        {
          "name": "beneficiario",
          "type": "address"
        },
        {
          "name": "cant_acciones",
          "type": "uint256"
        },
        {
          "name": "symbol",
          "type": "string"
        },
        {
          "name": "monto",
          "type": "uint256"
        },
        {
          "name": "monto_max",
          "type": "uint256"
        },
        {
          "name": "fecha_fin",
          "type": "uint256"
        }
      ],
      "payable": false,
      "stateMutability": "nonpayable",
      "type": "constructor"
    },
    {
      "anonymous": false,
      "inputs": [
        {
          "indexed": true,
          "name": "from",
          "type": "address"
        },
        {
          "indexed": true,
          "name": "uid",
          "type": "uint256"
        },
        {
          "indexed": false,
          "name": "amount",
          "type": "uint256"
        }
      ],
      "name": "contributionFiled",
      "type": "event"
    },
    {
      "anonymous": false,
      "inputs": [
        {
          "indexed": false,
          "name": "_from",
          "type": "address"
        },
        {
          "indexed": false,
          "name": "_amount",
          "type": "uint256"
        }
      ],
      "name": "receivedFunds",
      "type": "event"
    },
    {
      "anonymous": false,
      "inputs": [
        {
          "indexed": false,
          "name": "beneficiario",
          "type": "address"
        }
      ],
      "name": "beneficiarioSet",
      "type": "event"
    },
    {
      "anonymous": false,
      "inputs": [
        {
          "indexed": false,
          "name": "cant_acciones",
          "type": "uint256"
        }
      ],
      "name": "cantAccionesSet",
      "type": "event"
    },
    {
      "anonymous": false,
      "inputs": [
        {
          "indexed": true,
          "name": "from",
          "type": "address"
        },
        {
          "indexed": true,
          "name": "to",
          "type": "address"
        },
        {
          "indexed": false,
          "name": "tokens",
          "type": "uint256"
        }
      ],
      "name": "Transfer",
      "type": "event"
    },
    {
      "anonymous": false,
      "inputs": [
        {
          "indexed": false,
          "name": "symbol",
          "type": "string"
        }
      ],
      "name": "symbolSet",
      "type": "event"
    },
    {
      "anonymous": false,
      "inputs": [
        {
          "indexed": false,
          "name": "url",
          "type": "string"
        }
      ],
      "name": "urlSet",
      "type": "event"
    },
    {
      "anonymous": false,
      "inputs": [
        {
          "indexed": false,
          "name": "nombre",
          "type": "string"
        }
      ],
      "name": "nombreSet",
      "type": "event"
    },
    {
      "anonymous": false,
      "inputs": [
        {
          "indexed": false,
          "name": "monto",
          "type": "uint256"
        }
      ],
      "name": "montoSet",
      "type": "event"
    },
    {
      "anonymous": false,
      "inputs": [
        {
          "indexed": false,
          "name": "monto_max",
          "type": "uint256"
        }
      ],
      "name": "montoMaxSet",
      "type": "event"
    },
    {
      "anonymous": false,
      "inputs": [
        {
          "indexed": false,
          "name": "fecha_fin",
          "type": "uint256"
        }
      ],
      "name": "fechaSet",
      "type": "event"
    },
    {
      "anonymous": false,
      "inputs": [
        {
          "indexed": false,
          "name": "descripcion",
          "type": "string"
        }
      ],
      "name": "descripcionSet",
      "type": "event"
    },
    {
      "anonymous": false,
      "inputs": [
        {
          "indexed": false,
          "name": "cuit",
          "type": "uint256"
        }
      ],
      "name": "cuitSet",
      "type": "event"
    },
    {
      "constant": false,
      "inputs": [
        {
          "name": "uid",
          "type": "uint256"
        }
      ],
      "name": "receiveFunds",
      "outputs": [],
      "payable": true,
      "stateMutability": "payable",
      "type": "function"
    },
    {
      "constant": false,
      "inputs": [
        {
          "name": "symbol",
          "type": "string"
        }
      ],
      "name": "setSymbol",
      "outputs": [],
      "payable": false,
      "stateMutability": "nonpayable",
      "type": "function"
    },
    {
      "constant": false,
      "inputs": [
        {
          "name": "cant",
          "type": "uint256"
        }
      ],
      "name": "setCantAcciones",
      "outputs": [],
      "payable": false,
      "stateMutability": "nonpayable",
      "type": "function"
    },
    {
      "constant": false,
      "inputs": [
        {
          "name": "beneficiario",
          "type": "address"
        }
      ],
      "name": "setBeneficiario",
      "outputs": [],
      "payable": false,
      "stateMutability": "nonpayable",
      "type": "function"
    },
    {
      "constant": false,
      "inputs": [
        {
          "name": "url",
          "type": "string"
        }
      ],
      "name": "setUrl",
      "outputs": [],
      "payable": false,
      "stateMutability": "nonpayable",
      "type": "function"
    },
    {
      "constant": false,
      "inputs": [
        {
          "name": "nombre",
          "type": "string"
        }
      ],
      "name": "setNombre",
      "outputs": [],
      "payable": false,
      "stateMutability": "nonpayable",
      "type": "function"
    },
    {
      "constant": false,
      "inputs": [
        {
          "name": "monto",
          "type": "uint256"
        }
      ],
      "name": "setMonto",
      "outputs": [],
      "payable": false,
      "stateMutability": "nonpayable",
      "type": "function"
    },
    {
      "constant": false,
      "inputs": [
        {
          "name": "monto_max",
          "type": "uint256"
        }
      ],
      "name": "setMontoMax",
      "outputs": [],
      "payable": false,
      "stateMutability": "nonpayable",
      "type": "function"
    },
    {
      "constant": false,
      "inputs": [
        {
          "name": "fecha_fin",
          "type": "uint256"
        }
      ],
      "name": "setFecha",
      "outputs": [],
      "payable": false,
      "stateMutability": "nonpayable",
      "type": "function"
    },
    {
      "constant": false,
      "inputs": [
        {
          "name": "descripcion",
          "type": "string"
        }
      ],
      "name": "setDescripcion",
      "outputs": [],
      "payable": false,
      "stateMutability": "nonpayable",
      "type": "function"
    },
    {
      "constant": false,
      "inputs": [
        {
          "name": "cuit",
          "type": "uint256"
        }
      ],
      "name": "setCuit",
      "outputs": [],
      "payable": false,
      "stateMutability": "nonpayable",
      "type": "function"
    },
    {
      "constant": false,
      "inputs": [
        {
          "name": "cnv_addr",
          "type": "address"
        }
      ],
      "name": "setCNVAddress",
      "outputs": [],
      "payable": false,
      "stateMutability": "nonpayable",
      "type": "function"
    },
    {
      "constant": false,
      "inputs": [],
      "name": "setProjectValidity",
      "outputs": [],
      "payable": false,
      "stateMutability": "nonpayable",
      "type": "function"
    },
    {
      "constant": false,
      "inputs": [],
      "name": "setBeneficiaryValidity",
      "outputs": [],
      "payable": false,
      "stateMutability": "nonpayable",
      "type": "function"
    },
    {
      "constant": false,
      "inputs": [
        {
          "name": "to",
          "type": "address"
        },
        {
          "name": "tokens",
          "type": "uint256"
        }
      ],
      "name": "transfer",
      "outputs": [
        {
          "name": "success",
          "type": "bool"
        }
      ],
      "payable": false,
      "stateMutability": "nonpayable",
      "type": "function"
    },
    {
      "constant": true,
      "inputs": [
        {
          "name": "who",
          "type": "address"
        }
      ],
      "name": "balanceOf",
      "outputs": [
        {
          "name": "balance",
          "type": "uint256"
        }
      ],
      "payable": false,
      "stateMutability": "view",
      "type": "function"
    },
    {
      "constant": false,
      "inputs": [],
      "name": "closeRound",
      "outputs": [
        {
          "name": "success",
          "type": "bool"
        }
      ],
      "payable": false,
      "stateMutability": "nonpayable",
      "type": "function"
    }
  ],
  "bytecode": "0x60806040523480156200001157600080fd5b5060405162002da138038062002da18339810180604052810190808051906020019092919080519060200190929190805190602001909291908051906020019092919080518201929190602001805190602001909291908051906020019092919080519060200190929190505050336000806101000a81548173ffffffffffffffffffffffffffffffffffffffff021916908373ffffffffffffffffffffffffffffffffffffffff160217905550601260048190555060006006819055506000600f60006101000a81548160ff0219169083151502179055506000600f60016101000a81548160ff0219169083151502179055506000600f60026101000a81548160ff02191690831515021790555087600160006101000a81548173ffffffffffffffffffffffffffffffffffffffff021916908373ffffffffffffffffffffffffffffffffffffffff16021790555086600260006101000a81548173ffffffffffffffffffffffffffffffffffffffff021916908373ffffffffffffffffffffffffffffffffffffffff16021790555085600760006101000a81548173ffffffffffffffffffffffffffffffffffffffff021916908373ffffffffffffffffffffffffffffffffffffffff1602179055507f839d4499d7a59a2a3e8caefa68e6fa56efe72448bded2ef3394eb8dc0791c014600760009054906101000a900473ffffffffffffffffffffffffffffffffffffffff16604051808273ffffffffffffffffffffffffffffffffffffffff1673ffffffffffffffffffffffffffffffffffffffff16815260200191505060405180910390a1600454600a0a8502600381905550600354601160008060009054906101000a900473ffffffffffffffffffffffffffffffffffffffff1673ffffffffffffffffffffffffffffffffffffffff1673ffffffffffffffffffffffffffffffffffffffff168152602001908152602001600020819055507f9d22dd40e1955aa96a9462ac509affedff1653cea2da2ed7785c468f3ab54a0b6003546040518082815260200191505060405180910390a183600590805190602001906200032e9291906200049c565b507f4324c590b7c4eac8271240278ca15fd7a4a5b193e52a941793ef015049fa33ef846040518080602001828103825283818151815260200191508051906020019080838360005b838110156200039357808201518184015260208101905062000376565b50505050905090810190601f168015620003c15780820380516001836020036101000a031916815260200191505b509250505060405180910390a182600a819055507fc3f457ddc0b2fa1c765c0f3752c077176c334a00fc67bde505222e7735fa474b600a546040518082815260200191505060405180910390a181600b819055507f35d2c3056affd324e5095b3adf0b54d8f40292417c379911e21bc6d7d9ba9ff2600b546040518082815260200191505060405180910390a180600c819055507f57e2b946201b97d1d85bdd9433b1236d4278d7bc75aefe3951d400d32a2c9274600c546040518082815260200191505060405180910390a150505050505050506200054b565b828054600181600116156101000203166002900490600052602060002090601f016020900481019282601f10620004df57805160ff191683800117855562000510565b8280016001018555821562000510579182015b828111156200050f578251825591602001919060010190620004f2565b5b5090506200051f919062000523565b5090565b6200054891905b80821115620005445760008160009055506001016200052a565b5090565b90565b612846806200055b6000396000f3006080604052600436106101ab576000357c0100000000000000000000000000000000000000000000000000000000900463ffffffff16806202736b146101b057806306587b491461021957806306c0634314610230578063193afc561461025b5780631dc663051461029e578063252498a2146102b55780632ad1e71e1461031e5780633ed742ca1461036157806341c0e1b51461038c57806349f7015a146103a35780634bce46ea146104335780634eaeff281461046057806370a082311461048b5780638827e09b146104e257806388937472146105025780638da5cb5b1461052d57806394f61d1c146105845780639a918ce3146105b3578063a9059cbb146105e2578063aa44fcd414610647578063ae1ca561146106d7578063b01b0c4114610704578063b84c82461461072f578063bde2acda14610798578063d2938ab0146107c5578063d3c749d8146107f0578063d45795cb14610880578063de75e16d146108e9578063e0ab6acf14610940578063e278fe6f146109d0578063e99fda11146109ff578063fc3a171614610a2e578063fe305c3614610a5b578063feb924c214610a88575b600080fd5b3480156101bc57600080fd5b50610217600480360381019080803590602001908201803590602001908080601f0160208091040260200160405190810160405280939291908181526020018383808284378201915050505050509192919290505050610ab3565b005b34801561022557600080fd5b5061022e610be2565b005b34801561023c57600080fd5b50610245610d50565b6040518082815260200191505060405180910390f35b34801561026757600080fd5b5061029c600480360381019080803573ffffffffffffffffffffffffffffffffffffffff169060200190929190505050610d56565b005b3480156102aa57600080fd5b506102b3610e7a565b005b3480156102c157600080fd5b5061031c600480360381019080803590602001908201803590602001908080601f016020809104026020016040519081016040528093929190818152602001838380828437820191505050505050919291929050505061100a565b005b34801561032a57600080fd5b5061035f600480360381019080803573ffffffffffffffffffffffffffffffffffffffff169060200190929190505050611139565b005b34801561036d57600080fd5b506103766111d8565b6040518082815260200191505060405180910390f35b34801561039857600080fd5b506103a16111de565b005b3480156103af57600080fd5b506103b861126f565b6040518080602001828103825283818151815260200191508051906020019080838360005b838110156103f85780820151818401526020810190506103dd565b50505050905090810190601f1680156104255780820380516001836020036101000a031916815260200191505b509250505060405180910390f35b34801561043f57600080fd5b5061045e6004803603810190808035906020019092919050505061130d565b005b34801561046c57600080fd5b50610475611417565b6040518082815260200191505060405180910390f35b34801561049757600080fd5b506104cc600480360381019080803573ffffffffffffffffffffffffffffffffffffffff16906020019092919050505061141d565b6040518082815260200191505060405180910390f35b61050060048036038101908080359060200190929190505050611466565b005b34801561050e57600080fd5b50610517611994565b6040518082815260200191505060405180910390f35b34801561053957600080fd5b5061054261199a565b604051808273ffffffffffffffffffffffffffffffffffffffff1673ffffffffffffffffffffffffffffffffffffffff16815260200191505060405180910390f35b34801561059057600080fd5b506105996119bf565b604051808215151515815260200191505060405180910390f35b3480156105bf57600080fd5b506105c86119d2565b604051808215151515815260200191505060405180910390f35b3480156105ee57600080fd5b5061062d600480360381019080803573ffffffffffffffffffffffffffffffffffffffff169060200190929190803590602001909291905050506119e5565b604051808215151515815260200191505060405180910390f35b34801561065357600080fd5b5061065c611be3565b6040518080602001828103825283818151815260200191508051906020019080838360005b8381101561069c578082015181840152602081019050610681565b50505050905090810190601f1680156106c95780820380516001836020036101000a031916815260200191505b509250505060405180910390f35b3480156106e357600080fd5b5061070260048036038101908080359060200190929190505050611c81565b005b34801561071057600080fd5b50610719611d1f565b6040518082815260200191505060405180910390f35b34801561073b57600080fd5b50610796600480360381019080803590602001908201803590602001908080601f0160208091040260200160405190810160405280939291908181526020018383808284378201915050505050509192919290505050611d25565b005b3480156107a457600080fd5b506107c360048036038101908080359060200190929190505050611e36565b005b3480156107d157600080fd5b506107da611ed4565b6040518082815260200191505060405180910390f35b3480156107fc57600080fd5b50610805611eda565b6040518080602001828103825283818151815260200191508051906020019080838360005b8381101561084557808201518184015260208101905061082a565b50505050905090810190601f1680156108725780820380516001836020036101000a031916815260200191505b509250505060405180910390f35b34801561088c57600080fd5b506108e7600480360381019080803590602001908201803590602001908080601f0160208091040260200160405190810160405280939291908181526020018383808284378201915050505050509192919290505050611f78565b005b3480156108f557600080fd5b506108fe6120a7565b604051808273ffffffffffffffffffffffffffffffffffffffff1673ffffffffffffffffffffffffffffffffffffffff16815260200191505060405180910390f35b34801561094c57600080fd5b506109556120cd565b6040518080602001828103825283818151815260200191508051906020019080838360005b8381101561099557808201518184015260208101905061097a565b50505050905090810190601f1680156109c25780820380516001836020036101000a031916815260200191505b509250505060405180910390f35b3480156109dc57600080fd5b506109e561216b565b604051808215151515815260200191505060405180910390f35b348015610a0b57600080fd5b50610a1461249a565b604051808215151515815260200191505060405180910390f35b348015610a3a57600080fd5b50610a59600480360381019080803590602001909291905050506124ad565b005b348015610a6757600080fd5b50610a866004803603810190808035906020019092919050505061254b565b005b348015610a9457600080fd5b50610a9d6125e9565b6040518082815260200191505060405180910390f35b6000809054906101000a900473ffffffffffffffffffffffffffffffffffffffff1673ffffffffffffffffffffffffffffffffffffffff163373ffffffffffffffffffffffffffffffffffffffff16141515610b0e57600080fd5b8060099080519060200190610b24929190612775565b507fc71c2644179666c228fa56e641bc2d6f6945a954d8857b2f64b4c0ec6898faef60096040518080602001828103825283818154600181600116156101000203166002900481526020019150805460018160011615610100020316600290048015610bd15780601f10610ba657610100808354040283529160200191610bd1565b820191906000526020600020905b815481529060010190602001808311610bb457829003601f168201915b50509250505060405180910390a150565b6000809054906101000a900473ffffffffffffffffffffffffffffffffffffffff1673ffffffffffffffffffffffffffffffffffffffff163373ffffffffffffffffffffffffffffffffffffffff16141515610c3d57600080fd5b600160009054906101000a900473ffffffffffffffffffffffffffffffffffffffff1673ffffffffffffffffffffffffffffffffffffffff16639a749171306040518263ffffffff167c0100000000000000000000000000000000000000000000000000000000028152600401808273ffffffffffffffffffffffffffffffffffffffff1673ffffffffffffffffffffffffffffffffffffffff168152602001915050602060405180830381600087803b158015610cfa57600080fd5b505af1158015610d0e573d6000803e3d6000fd5b505050506040513d6020811015610d2457600080fd5b8101908080519060200190929190505050600f60006101000a81548160ff021916908315150217905550565b600a5481565b6000809054906101000a900473ffffffffffffffffffffffffffffffffffffffff1673ffffffffffffffffffffffffffffffffffffffff163373ffffffffffffffffffffffffffffffffffffffff16141515610db157600080fd5b80600760006101000a81548173ffffffffffffffffffffffffffffffffffffffff021916908373ffffffffffffffffffffffffffffffffffffffff1602179055507f839d4499d7a59a2a3e8caefa68e6fa56efe72448bded2ef3394eb8dc0791c014600760009054906101000a900473ffffffffffffffffffffffffffffffffffffffff16604051808273ffffffffffffffffffffffffffffffffffffffff1673ffffffffffffffffffffffffffffffffffffffff16815260200191505060405180910390a150565b6000809054906101000a900473ffffffffffffffffffffffffffffffffffffffff1673ffffffffffffffffffffffffffffffffffffffff163373ffffffffffffffffffffffffffffffffffffffff16141515610ed557600080fd5b600160009054906101000a900473ffffffffffffffffffffffffffffffffffffffff1673ffffffffffffffffffffffffffffffffffffffff1663ee892cef600760009054906101000a900473ffffffffffffffffffffffffffffffffffffffff166040518263ffffffff167c0100000000000000000000000000000000000000000000000000000000028152600401808273ffffffffffffffffffffffffffffffffffffffff1673ffffffffffffffffffffffffffffffffffffffff168152602001915050602060405180830381600087803b158015610fb457600080fd5b505af1158015610fc8573d6000803e3d6000fd5b505050506040513d6020811015610fde57600080fd5b8101908080519060200190929190505050600f60016101000a81548160ff021916908315150217905550565b6000809054906101000a900473ffffffffffffffffffffffffffffffffffffffff1673ffffffffffffffffffffffffffffffffffffffff163373ffffffffffffffffffffffffffffffffffffffff1614151561106557600080fd5b806008908051906020019061107b929190612775565b507f9db0119a744a0f7b8709b1586d61275999f138f86077631c22039b9027d28637600860405180806020018281038252838181546001816001161561010002031660029004815260200191508054600181600116156101000203166002900480156111285780601f106110fd57610100808354040283529160200191611128565b820191906000526020600020905b81548152906001019060200180831161110b57829003601f168201915b50509250505060405180910390a150565b6000809054906101000a900473ffffffffffffffffffffffffffffffffffffffff1673ffffffffffffffffffffffffffffffffffffffff163373ffffffffffffffffffffffffffffffffffffffff1614151561119457600080fd5b80600160006101000a81548173ffffffffffffffffffffffffffffffffffffffff021916908373ffffffffffffffffffffffffffffffffffffffff16021790555050565b60065481565b6000809054906101000a900473ffffffffffffffffffffffffffffffffffffffff1673ffffffffffffffffffffffffffffffffffffffff163373ffffffffffffffffffffffffffffffffffffffff16141561126d576000809054906101000a900473ffffffffffffffffffffffffffffffffffffffff1673ffffffffffffffffffffffffffffffffffffffff16ff5b565b60058054600181600116156101000203166002900480601f0160208091040260200160405190810160405280929190818152602001828054600181600116156101000203166002900480156113055780601f106112da57610100808354040283529160200191611305565b820191906000526020600020905b8154815290600101906020018083116112e857829003601f168201915b505050505081565b6000809054906101000a900473ffffffffffffffffffffffffffffffffffffffff1673ffffffffffffffffffffffffffffffffffffffff163373ffffffffffffffffffffffffffffffffffffffff1614151561136857600080fd5b600454600a0a8102600381905550600354601160008060009054906101000a900473ffffffffffffffffffffffffffffffffffffffff1673ffffffffffffffffffffffffffffffffffffffff1673ffffffffffffffffffffffffffffffffffffffff168152602001908152602001600020819055507f9d22dd40e1955aa96a9462ac509affedff1653cea2da2ed7785c468f3ab54a0b816040518082815260200191505060405180910390a150565b600b5481565b6000601160008373ffffffffffffffffffffffffffffffffffffffff1673ffffffffffffffffffffffffffffffffffffffff168152602001908152602001600020549050919050565b600f60009054906101000a900460ff161515611510576040517f08c379a00000000000000000000000000000000000000000000000000000000081526004018080602001828103825260288152602001807f456c2070726f796563746f2064656265207365722076616c696461646f20706f81526020017f72206c6120434e5600000000000000000000000000000000000000000000000081525060400191505060405180910390fd5b600f60019054906101000a900460ff1615156115ba576040517f08c379a00000000000000000000000000000000000000000000000000000000081526004018080602001828103825260398152602001807f456c2062656e65666963696172696f2064656c2070726f796563746f2064656281526020017f65207365722076616c696461646f20706f72206c6120434e560000000000000081525060400191505060405180910390fd5b600f60029054906101000a900460ff16151515611665576040517f08c379a00000000000000000000000000000000000000000000000000000000081526004018080602001828103825260328152602001807f4c6120726f6e646120646562652065737461722061626965727461207061726181526020017f20706f64657220636f6e747269627569722e000000000000000000000000000081525060400191505060405180910390fd5b600454600a0a600260009054906101000a900473ffffffffffffffffffffffffffffffffffffffff1673ffffffffffffffffffffffffffffffffffffffff1663a312880b6040518163ffffffff167c0100000000000000000000000000000000000000000000000000000000028152600401602060405180830381600087803b1580156116f157600080fd5b505af1158015611705573d6000803e3d6000fd5b505050506040513d602081101561171b57600080fd5b8101908080519060200190929190505050600b5481151561173857fe5b0402343073ffffffffffffffffffffffffffffffffffffffff16310111151515611816576040517f08c379a00000000000000000000000000000000000000000000000000000000081526004018080602001828103825260568152602001807f456c206d6f6e746f2064656c2070726f796563746f206dc3a17320656c206d6f81526020017f6e746f2061207472616e66657269722073757065726120656c206d6f6e746f2081526020017f706f72207375706572737573637269706369c3b36e2e0000000000000000000081525060600191505060405180910390fd5b600034111561188b577f3f638da77ee3d49db2211092b965c9c7c2fcb68fea5e8f85986200f8776f6a1d3334604051808373ffffffffffffffffffffffffffffffffffffffff1673ffffffffffffffffffffffffffffffffffffffff1681526020018281526020019250505060405180910390a15b6006600081548092919060010191905055506060604051908101604052803373ffffffffffffffffffffffffffffffffffffffff1681526020018281526020013481525060106000600654815260200190815260200160002060008201518160000160006101000a81548173ffffffffffffffffffffffffffffffffffffffff021916908373ffffffffffffffffffffffffffffffffffffffff1602179055506020820151816001015560408201518160020155905050803373ffffffffffffffffffffffffffffffffffffffff167fbb7c95956eba9b5055c595e4f650eeb4af09c486b474ab1bc200a3a7eaf417de346040518082815260200191505060405180910390a350565b60045481565b6000809054906101000a900473ffffffffffffffffffffffffffffffffffffffff1681565b600f60009054906101000a900460ff1681565b600f60029054906101000a900460ff1681565b6000611a5a82601160008060009054906101000a900473ffffffffffffffffffffffffffffffffffffffff1673ffffffffffffffffffffffffffffffffffffffff1673ffffffffffffffffffffffffffffffffffffffff168152602001908152602001600020546125ef90919063ffffffff16565b601160008060009054906101000a900473ffffffffffffffffffffffffffffffffffffffff1673ffffffffffffffffffffffffffffffffffffffff1673ffffffffffffffffffffffffffffffffffffffff16815260200190815260200160002081905550611b1082601160008673ffffffffffffffffffffffffffffffffffffffff1673ffffffffffffffffffffffffffffffffffffffff1681526020019081526020016000205461269a90919063ffffffff16565b601160008573ffffffffffffffffffffffffffffffffffffffff1673ffffffffffffffffffffffffffffffffffffffff168152602001908152602001600020819055508273ffffffffffffffffffffffffffffffffffffffff166000809054906101000a900473ffffffffffffffffffffffffffffffffffffffff1673ffffffffffffffffffffffffffffffffffffffff167fddf252ad1be2c89b69c2b068fc378daa952ba7f163c4a11628f55a4df523b3ef846040518082815260200191505060405180910390a36001905092915050565b60088054600181600116156101000203166002900480601f016020809104026020016040519081016040528092919081815260200182805460018160011615610100020316600290048015611c795780601f10611c4e57610100808354040283529160200191611c79565b820191906000526020600020905b815481529060010190602001808311611c5c57829003601f168201915b505050505081565b6000809054906101000a900473ffffffffffffffffffffffffffffffffffffffff1673ffffffffffffffffffffffffffffffffffffffff163373ffffffffffffffffffffffffffffffffffffffff16141515611cdc57600080fd5b80600c819055507f57e2b946201b97d1d85bdd9433b1236d4278d7bc75aefe3951d400d32a2c9274600c546040518082815260200191505060405180910390a150565b600e5481565b6000809054906101000a900473ffffffffffffffffffffffffffffffffffffffff1673ffffffffffffffffffffffffffffffffffffffff163373ffffffffffffffffffffffffffffffffffffffff16141515611d8057600080fd5b8060059080519060200190611d96929190612775565b507f4324c590b7c4eac8271240278ca15fd7a4a5b193e52a941793ef015049fa33ef816040518080602001828103825283818151815260200191508051906020019080838360005b83811015611df9578082015181840152602081019050611dde565b50505050905090810190601f168015611e265780820380516001836020036101000a031916815260200191505b509250505060405180910390a150565b6000809054906101000a900473ffffffffffffffffffffffffffffffffffffffff1673ffffffffffffffffffffffffffffffffffffffff163373ffffffffffffffffffffffffffffffffffffffff16141515611e9157600080fd5b80600e819055507fb7746e669a746645aa4028b54668021861838111c88f67ae39a667d09bf92b4d600e546040518082815260200191505060405180910390a150565b60035481565b60098054600181600116156101000203166002900480601f016020809104026020016040519081016040528092919081815260200182805460018160011615610100020316600290048015611f705780601f10611f4557610100808354040283529160200191611f70565b820191906000526020600020905b815481529060010190602001808311611f5357829003601f168201915b505050505081565b6000809054906101000a900473ffffffffffffffffffffffffffffffffffffffff1673ffffffffffffffffffffffffffffffffffffffff163373ffffffffffffffffffffffffffffffffffffffff16141515611fd357600080fd5b80600d9080519060200190611fe9929190612775565b507f463e27b451223a222fe2d62c3c9614c754e3c0028bec5d73188c03cba5f9f09f600d60405180806020018281038252838181546001816001161561010002031660029004815260200191508054600181600116156101000203166002900480156120965780601f1061206b57610100808354040283529160200191612096565b820191906000526020600020905b81548152906001019060200180831161207957829003601f168201915b50509250505060405180910390a150565b600760009054906101000a900473ffffffffffffffffffffffffffffffffffffffff1681565b600d8054600181600116156101000203166002900480601f0160208091040260200160405190810160405280929190818152602001828054600181600116156101000203166002900480156121635780601f1061213857610100808354040283529160200191612163565b820191906000526020600020905b81548152906001019060200180831161214657829003601f168201915b505050505081565b6000806000600f60029054906101000a900460ff1615151561221b576040517f08c379a000000000000000000000000000000000000000000000000000000000815260040180806020018281038252603b8152602001807f4c6120726f6e646120646562652073656775697220616269657274612070617281526020017f6120706f646572207265616c697a617220656c206369657272652e000000000081525060400191505060405180910390fd5b600a54600454600a0a3073ffffffffffffffffffffffffffffffffffffffff1631600260009054906101000a900473ffffffffffffffffffffffffffffffffffffffff1673ffffffffffffffffffffffffffffffffffffffff1663a312880b6040518163ffffffff167c0100000000000000000000000000000000000000000000000000000000028152600401602060405180830381600087803b1580156122c257600080fd5b505af11580156122d6573d6000803e3d6000fd5b505050506040513d60208110156122ec57600080fd5b81019080805190602001909291905050500281151561230757fe5b041015156123ab57600191505b6006548211151561238b5761237d6010600084815260200190815260200160002060000160009054906101000a900473ffffffffffffffffffffffffffffffffffffffff166123786010600086815260200190815260200160002060020154612745565b6119e5565b508180600101925050612314565b6001600f60026101000a81548160ff021916908315150217905550612483565b600c544210151561248257600190505b60065481111515612466576010600082815260200190815260200160002060000160009054906101000a900473ffffffffffffffffffffffffffffffffffffffff1673ffffffffffffffffffffffffffffffffffffffff166108fc60106000848152602001908152602001600020600201549081150290604051600060405180830381858888f19350505050158015612458573d6000803e3d6000fd5b5080806001019150506123bb565b6001600f60026101000a81548160ff0219169083151502179055505b5b600f60029054906101000a900460ff169250505090565b600f60019054906101000a900460ff1681565b6000809054906101000a900473ffffffffffffffffffffffffffffffffffffffff1673ffffffffffffffffffffffffffffffffffffffff163373ffffffffffffffffffffffffffffffffffffffff1614151561250857600080fd5b80600b819055507f35d2c3056affd324e5095b3adf0b54d8f40292417c379911e21bc6d7d9ba9ff2600b546040518082815260200191505060405180910390a150565b6000809054906101000a900473ffffffffffffffffffffffffffffffffffffffff1673ffffffffffffffffffffffffffffffffffffffff163373ffffffffffffffffffffffffffffffffffffffff161415156125a657600080fd5b80600a819055507fc3f457ddc0b2fa1c765c0f3752c077176c334a00fc67bde505222e7735fa474b600a546040518082815260200191505060405180910390a150565b600c5481565b600082821115151561268f576040517f08c379a00000000000000000000000000000000000000000000000000000000081526004018080602001828103825260358152602001807f5375627374726163746f72206d757374206265206c6f776572206f722065717581526020017f616c20746f206f726967696e616c206e756d626572000000000000000000000081525060400191505060405180910390fd5b818303905092915050565b6000818301905082811015151561273f576040517f08c379a00000000000000000000000000000000000000000000000000000000081526004018080602001828103825260328152602001807f526573756c74206d7573742062652067726561746572206f7220657175616c2081526020017f746f206f726967696e616c206e756d626572000000000000000000000000000081525060400191505060405180910390fd5b92915050565b60003073ffffffffffffffffffffffffffffffffffffffff1631600354830281151561276d57fe5b049050919050565b828054600181600116156101000203166002900490600052602060002090601f016020900481019282601f106127b657805160ff19168380011785556127e4565b828001600101855582156127e4579182015b828111156127e35782518255916020019190600101906127c8565b5b5090506127f191906127f5565b5090565b61281791905b808211156128135760008160009055506001016127fb565b5090565b905600a165627a7a723058206bd00c42e6936f16f356b8a4fdfc91c8af95844d767c103a401f70c32c6202760029",
  "source": "pragma solidity ^0.4.22;\n\nimport './mortal.sol';\nimport './SafeMath.sol';\nimport './CNV.sol';\nimport './OraculoPrecio.sol';\n\ncontract ContratoSAS is mortal {\n    using SafeMath for uint;\n\n    CNV cnv;\n    OraculoPrecio oraculo_precio;\n\n    /* Events */\n    event contributionFiled(address indexed from, uint indexed uid, uint amount);\n    event receivedFunds(address _from, uint _amount);\n    event beneficiarioSet(address beneficiario);\n    event cantAccionesSet(uint cant_acciones);\n    event Transfer(address indexed from, address indexed to, uint tokens);\n    event symbolSet(string symbol);\n    event urlSet(string url);\n    event nombreSet(string nombre);\n    event montoSet(uint monto);\n    event montoMaxSet(uint monto_max);\n    event fechaSet(uint fecha_fin);\n    event descripcionSet(string descripcion);\n    event cuitSet(uint cuit);\n    /* event uidSet(uint uid); */\n\n    struct Contribution {\n        address _from;\n        uint _uid;\n        uint _amount;\n    }\n\n    uint public    m_total_supply; // ERC 20\n    uint public    m_decimals; // ERC 20\n    string public  m_symbol; // ERC 20\n    uint public    contribution_counter;\n    address public m_beneficiario;\n    string public  m_url;\n    string public  m_nombre; // ERC 20\n    uint public    m_monto; // Monto en centavos\n    uint public    m_monto_max; // Monto en centavos\n    uint public    m_fecha_fin;\n    string public  m_descripcion;\n    uint public    m_cuit;\n    bool public    m_project_valid;\n    bool public    m_beneficiary_valid;\n    bool public    m_closed_round;\n    /* uint public    m_uid; */\n\n    mapping(uint => Contribution) m_contributions;\n    mapping(address => uint) balances;\n\n    /* constructor() public {\n      m_decimals = 18;\n      contribution_counter = 0;\n      m_project_valid = false;\n      m_beneficiary_valid = false;\n      m_closed_round = false;\n    } */\n\n    constructor(address cnv_addr, address oraculo_precio_addr, address beneficiario, uint cant_acciones, string symbol, uint monto, uint monto_max, uint fecha_fin) public {\n      m_decimals = 18;\n      contribution_counter = 0;\n      m_project_valid = false;\n      m_beneficiary_valid = false;\n      m_closed_round = false;\n      ///\n      cnv = CNV(cnv_addr);\n      oraculo_precio = OraculoPrecio(oraculo_precio_addr);\n      ///\n      m_beneficiario = beneficiario;\n      emit beneficiarioSet(m_beneficiario);\n      m_total_supply = cant_acciones * 10**uint(m_decimals);\n      balances[owner] = m_total_supply; // Sets all the tokens in the owners balance\n      emit cantAccionesSet(m_total_supply);\n      m_symbol = symbol;\n      emit symbolSet(symbol);\n      m_monto = monto;\n      emit montoSet(m_monto);\n      m_monto_max = monto_max;\n      emit montoMaxSet(m_monto_max);\n      m_fecha_fin = fecha_fin;\n      emit fechaSet(m_fecha_fin);\n    }\n    /* constructor(address beneficiario, string url, string nombre, uint monto, uint monto_max, string fecha, string descripcion, uint cuit) public {\n      contribution_counter = 0;\n      m_beneficiario = beneficiario;\n      m_url = url;\n      m_nombre = nombre;\n      m_monto = monto;\n      m_monto_max = monto_max;\n      m_fecha_fin = fecha;\n      m_descripcion = descripcion;\n      m_cuit = cuit;\n      m_project_valid = false;\n      m_beneficiary_valid = false;\n    } */\n\n    function receiveFunds(uint uid) payable public {\n      require(m_project_valid, \"El proyecto debe ser validado por la CNV\");\n      require(m_beneficiary_valid, \"El beneficiario del proyecto debe ser validado por la CNV\");\n      require(!m_closed_round, \"La ronda debe estar abierta para poder contribuir.\");\n      require((address(this).balance + msg.value <= m_monto_max / oraculo_precio.getPrecio() * 10**uint(m_decimals)), \"El monto del proyecto ms el monto a tranferir supera el monto por supersuscripcin.\");\n      /* Receive amount */\n      if(msg.value > 0) {\n          emit receivedFunds(msg.sender, msg.value);\n      }\n      /* File contribution*/\n      contribution_counter++;\n      m_contributions[contribution_counter] = Contribution(msg.sender, uid, msg.value);\n      emit contributionFiled(msg.sender, uid, msg.value);\n    }\n\n    /*function getNombre() public returns (string) {\n        return m_nombre;\n    }*/\n\n    /* Setea el totalSupply de la SAS/proyecto */\n    function setSymbol(string symbol) onlyowner public {\n        m_symbol = symbol;\n        emit symbolSet(symbol);\n    }\n\n    /* Setea el totalSupply de la SAS/proyecto */\n    function setCantAcciones(uint cant) onlyowner public {\n        m_total_supply = cant * 10**uint(m_decimals);\n        balances[owner] = m_total_supply; // Sets all the tokens in the owners balance\n        emit cantAccionesSet(cant);\n    }\n\n    /* Setea el beneficiario de la SAS/proyecto */\n    function setBeneficiario(address beneficiario) onlyowner public {\n        m_beneficiario = beneficiario;\n        emit beneficiarioSet(m_beneficiario);\n    }\n\n    /* Setea el url de la SAS/proyecto */\n    function setUrl(string url) onlyowner public {\n        m_url = url;\n        emit urlSet(m_url);\n    }\n\n    /* Setea el nombre de la SAS/proyecto */\n    function setNombre(string nombre) onlyowner public {\n        m_nombre = nombre;\n        emit nombreSet(m_nombre);\n    }\n\n    /* Setea el monto de la SAS/proyecto */\n    function setMonto(uint monto) onlyowner public {\n        m_monto = monto;\n        emit montoSet(m_monto);\n    }\n\n    /* Setea el monto max de la SAS/proyecto */\n    function setMontoMax(uint monto_max) onlyowner public {\n        m_monto_max = monto_max;\n        emit montoMaxSet(m_monto_max);\n    }\n\n    /* Setea la fecha de la SAS/proyecto */\n    function setFecha(uint fecha_fin) onlyowner public {\n        m_fecha_fin = fecha_fin;\n        emit fechaSet(m_fecha_fin);\n    }\n\n    /* Setea la descripcion de la SAS/proyecto */\n    function setDescripcion(string descripcion) onlyowner public {\n        m_descripcion = descripcion;\n        emit descripcionSet(m_descripcion);\n    }\n\n    /* Setea el CUIT de la SAS/proyecto */\n    function setCuit(uint cuit) onlyowner public {\n        m_cuit = cuit;\n        emit cuitSet(m_cuit);\n    }\n\n    function setCNVAddress(address cnv_addr) onlyowner public {\n      cnv = CNV(cnv_addr);\n    }\n\n    function setProjectValidity() onlyowner public {\n      m_project_valid = cnv.isProjectValid(address(this));\n    }\n\n    function setBeneficiaryValidity() onlyowner public {\n      m_beneficiary_valid = cnv.isBeneficiaryValid(m_beneficiario);\n    }\n\n    function transfer(address to, uint tokens) public returns (bool success) {\n      balances[owner] = balances[owner].sub(tokens); // WARNING: ERC20 dice, debera ser msg.sender, ponemos owner porque no sabemos si se mantiene el msg.sender entre closeRound y transfer\n      balances[to] = balances[to].add(tokens);\n      emit Transfer(owner, to, tokens);\n      return true;\n    }\n\n    function balanceOf(address who) public view returns (uint balance) {\n      return balances[who];\n    }\n\n    function calculateTokens(uint _wei) private view returns (uint tokens) {\n      return _wei * m_total_supply / address(this).balance;\n    }\n\n    function closeRound() public returns (bool success) {\n      require(!m_closed_round, \"La ronda debe seguir abierta para poder realizar el cierre.\");\n      if(oraculo_precio.getPrecio() * address(this).balance / 10**uint(m_decimals) >= m_monto) { // Se alcanz el monto esperado para el proyecto\n        for (uint i = 1; i <= contribution_counter; i++) { // Repartimos tokens a los holders\n          transfer(m_contributions[i]._from, calculateTokens(m_contributions[i]._amount)); // Los tokens los mandamos como el amount sin multiplicar por los decimales porque ya los estamos almacenando en wei al crear la contribucin.\n        }\n        m_closed_round = true;\n      } else if(now >= m_fecha_fin) { // Se alcanz la fecha de cierre del proyecto y no se alcanz el monto esperado\n        for (uint j = 1; j <= contribution_counter; j++) { // Devolvemos la plata a los holders y cerramos la ronda\n          m_contributions[j]._from.transfer(m_contributions[j]._amount); // En este caso, address.transfer es una llamada a transfer de solidity https://solidity.readthedocs.io/en/develop/units-and-global-variables.html#members-of-address-types\n        }\n        m_closed_round = true;\n      }\n      return m_closed_round;\n    }\n\n    /* Setea el uid de la SAS/proyecto */\n    /* function setUid(uint uid) onlyowner public {\n        m_uid = uid;\n        emit uidSet(m_uid);\n    } */\n\n    /* TODO: Fill in function or get from frontend */\n    /*function getUserId() private returns (uint) {\n        return 1;\n    }*/\n\n    /* m_project_valid = cnv_addr.call(bytes4(keccak256(\"isProjectValid(address)\")), address(this)); */\n}\n",
  "sourcePath": "/home/ivan/MacherIT/Ethereum/fiblo/contracts/ContratoSAS.sol",
  "compiler": {
    "name": "solc",
    "version": "0.4.24+commit.e67f0147.Emscripten.clang"
  },
  "schemaVersion": "2.0.1",
  "updatedAt": "2019-03-08T15:26:54.950Z"
}