{
  "contractName": "ContratoSAS",
  "abi": [
    {
      "constant": false,
      "inputs": [],
      "name": "kill",
      "outputs": [],
      "payable": false,
      "stateMutability": "nonpayable",
      "type": "function"
    },
    {
      "payable": true,
      "stateMutability": "payable",
      "type": "fallback"
    },
    {
      "anonymous": false,
      "inputs": [
        {
          "indexed": true,
          "name": "from",
          "type": "address"
        },
        {
          "indexed": true,
          "name": "uid",
          "type": "uint256"
        },
        {
          "indexed": false,
          "name": "amount",
          "type": "uint256"
        }
      ],
      "name": "contributionReceived",
      "type": "event"
    },
    {
      "anonymous": false,
      "inputs": [
        {
          "indexed": false,
          "name": "_from",
          "type": "address"
        },
        {
          "indexed": false,
          "name": "_amount",
          "type": "uint256"
        }
      ],
      "name": "receivedFunds",
      "type": "event"
    }
  ],
  "bytecode": "0x6080604052336000806101000a81548173ffffffffffffffffffffffffffffffffffffffff021916908373ffffffffffffffffffffffffffffffffffffffff1602179055506102a7806100536000396000f300608060405260043610610041576000357c0100000000000000000000000000000000000000000000000000000000900463ffffffff16806341c0e1b5146101ca575b6000803411156100b7577f3f638da77ee3d49db2211092b965c9c7c2fcb68fea5e8f85986200f8776f6a1d3334604051808373ffffffffffffffffffffffffffffffffffffffff1673ffffffffffffffffffffffffffffffffffffffff1681526020018281526020019250505060405180910390a15b6100bf6101e1565b90506001600081548092919060010191905055506060604051908101604052803373ffffffffffffffffffffffffffffffffffffffff1681526020018281526020013481525060026000600154815260200190815260200160002060008201518160000160006101000a81548173ffffffffffffffffffffffffffffffffffffffff021916908373ffffffffffffffffffffffffffffffffffffffff1602179055506020820151816001015560408201518160020155905050803373ffffffffffffffffffffffffffffffffffffffff167f5471235d5546e5d9959b896602a8679d736893878d07b945f9f0b9db93a7537e346040518082815260200191505060405180910390a350005b3480156101d657600080fd5b506101df6101ea565b005b60006001905090565b6000809054906101000a900473ffffffffffffffffffffffffffffffffffffffff1673ffffffffffffffffffffffffffffffffffffffff163373ffffffffffffffffffffffffffffffffffffffff161415610279576000809054906101000a900473ffffffffffffffffffffffffffffffffffffffff1673ffffffffffffffffffffffffffffffffffffffff16ff5b5600a165627a7a72305820d85e55fc82f8b2ebc76aa74eb7a744abd602cdec8703cf860046405f8031f2170029",
  "source": "pragma solidity ^0.4.17;\n\nimport './mortal.sol';\n\ncontract ContratoSAS is mortal {\n    /* Events */\n    event contributionReceived(address indexed from, uint256 indexed uid, uint256 amount);\n    event receivedFunds(address _from, uint256 _amount);\n\n    struct Contribution {\n        address _from;\n        uint256 _uid;\n        uint256 _amount;\n    }\n\n    uint contribution_counter;\n\n    mapping(uint => Contribution) m_contributions;\n\n    function () payable public {\n        /* Receive amount */\n        if(msg.value > 0) {\n            emit receivedFunds(msg.sender, msg.value);\n        }\n\n        /* File contribution*/\n        uint uid = getUserId();\n        contribution_counter++;\n        m_contributions[contribution_counter] = Contribution(msg.sender, uid, msg.value);\n        emit contributionReceived(msg.sender, uid, msg.value);\n    }\n\n    /* TODO: Fill in function or get from frontend */\n    function getUserId() private returns (uint) {\n        return 1;\n    }\n\n}\n",
  "sourcePath": "/home/bruno/Proyectos/Cripto/Hackaton-BPN/contracts/ContratoSAS.sol",
  "compiler": {
    "name": "solc",
    "version": "0.4.23+commit.124ca40d.Emscripten.clang"
  },
  "schemaVersion": "2.0.0",
  "updatedAt": "2018-05-17T14:14:41.642Z"
}