{
  "contractName": "ContratoSAS",
  "abi": [
    {
      "constant": true,
      "inputs": [],
      "name": "m_monto",
      "outputs": [
        {
          "name": "",
          "type": "uint256"
        }
      ],
      "payable": false,
      "stateMutability": "view",
      "type": "function"
    },
    {
      "constant": true,
      "inputs": [],
      "name": "contribution_counter",
      "outputs": [
        {
          "name": "",
          "type": "uint256"
        }
      ],
      "payable": false,
      "stateMutability": "view",
      "type": "function"
    },
    {
      "constant": false,
      "inputs": [],
      "name": "kill",
      "outputs": [],
      "payable": false,
      "stateMutability": "nonpayable",
      "type": "function"
    },
    {
      "constant": true,
      "inputs": [],
      "name": "m_symbol",
      "outputs": [
        {
          "name": "",
          "type": "string"
        }
      ],
      "payable": false,
      "stateMutability": "view",
      "type": "function"
    },
    {
      "constant": true,
      "inputs": [],
      "name": "m_monto_max",
      "outputs": [
        {
          "name": "",
          "type": "uint256"
        }
      ],
      "payable": false,
      "stateMutability": "view",
      "type": "function"
    },
    {
      "constant": true,
      "inputs": [],
      "name": "m_decimals",
      "outputs": [
        {
          "name": "",
          "type": "uint256"
        }
      ],
      "payable": false,
      "stateMutability": "view",
      "type": "function"
    },
    {
      "constant": true,
      "inputs": [],
      "name": "owner",
      "outputs": [
        {
          "name": "",
          "type": "address"
        }
      ],
      "payable": false,
      "stateMutability": "view",
      "type": "function"
    },
    {
      "constant": true,
      "inputs": [],
      "name": "m_project_valid",
      "outputs": [
        {
          "name": "",
          "type": "bool"
        }
      ],
      "payable": false,
      "stateMutability": "view",
      "type": "function"
    },
    {
      "constant": true,
      "inputs": [],
      "name": "m_closed_round",
      "outputs": [
        {
          "name": "",
          "type": "bool"
        }
      ],
      "payable": false,
      "stateMutability": "view",
      "type": "function"
    },
    {
      "constant": true,
      "inputs": [],
      "name": "m_url",
      "outputs": [
        {
          "name": "",
          "type": "string"
        }
      ],
      "payable": false,
      "stateMutability": "view",
      "type": "function"
    },
    {
      "constant": true,
      "inputs": [],
      "name": "m_cuit",
      "outputs": [
        {
          "name": "",
          "type": "uint256"
        }
      ],
      "payable": false,
      "stateMutability": "view",
      "type": "function"
    },
    {
      "constant": true,
      "inputs": [],
      "name": "m_fecha_cierre",
      "outputs": [
        {
          "name": "",
          "type": "uint256"
        }
      ],
      "payable": false,
      "stateMutability": "view",
      "type": "function"
    },
    {
      "constant": true,
      "inputs": [],
      "name": "m_total_supply",
      "outputs": [
        {
          "name": "",
          "type": "uint256"
        }
      ],
      "payable": false,
      "stateMutability": "view",
      "type": "function"
    },
    {
      "constant": true,
      "inputs": [],
      "name": "m_nombre",
      "outputs": [
        {
          "name": "",
          "type": "string"
        }
      ],
      "payable": false,
      "stateMutability": "view",
      "type": "function"
    },
    {
      "constant": true,
      "inputs": [],
      "name": "m_beneficiario",
      "outputs": [
        {
          "name": "",
          "type": "address"
        }
      ],
      "payable": false,
      "stateMutability": "view",
      "type": "function"
    },
    {
      "constant": true,
      "inputs": [],
      "name": "m_descripcion",
      "outputs": [
        {
          "name": "",
          "type": "string"
        }
      ],
      "payable": false,
      "stateMutability": "view",
      "type": "function"
    },
    {
      "constant": true,
      "inputs": [],
      "name": "m_beneficiary_valid",
      "outputs": [
        {
          "name": "",
          "type": "bool"
        }
      ],
      "payable": false,
      "stateMutability": "view",
      "type": "function"
    },
    {
      "constant": true,
      "inputs": [],
      "name": "m_fecha_fin",
      "outputs": [
        {
          "name": "",
          "type": "uint256"
        }
      ],
      "payable": false,
      "stateMutability": "view",
      "type": "function"
    },
    {
      "inputs": [
        {
          "name": "cnv_addr",
          "type": "address"
        },
        {
          "name": "oraculo_precio_addr",
          "type": "address"
        },
        {
          "name": "beneficiario",
          "type": "address"
        },
        {
          "name": "cant_acciones",
          "type": "uint256"
        },
        {
          "name": "symbol",
          "type": "string"
        },
        {
          "name": "monto",
          "type": "uint256"
        },
        {
          "name": "monto_max",
          "type": "uint256"
        },
        {
          "name": "fecha_fin",
          "type": "uint256"
        }
      ],
      "payable": false,
      "stateMutability": "nonpayable",
      "type": "constructor"
    },
    {
      "anonymous": false,
      "inputs": [
        {
          "indexed": true,
          "name": "identifier",
          "type": "string"
        }
      ],
      "name": "Created",
      "type": "event"
    },
    {
      "anonymous": false,
      "inputs": [
        {
          "indexed": true,
          "name": "from",
          "type": "address"
        },
        {
          "indexed": true,
          "name": "uid",
          "type": "uint256"
        },
        {
          "indexed": false,
          "name": "amount",
          "type": "uint256"
        }
      ],
      "name": "contributionFiled",
      "type": "event"
    },
    {
      "anonymous": false,
      "inputs": [
        {
          "indexed": false,
          "name": "_from",
          "type": "address"
        },
        {
          "indexed": false,
          "name": "_amount",
          "type": "uint256"
        }
      ],
      "name": "receivedFunds",
      "type": "event"
    },
    {
      "anonymous": false,
      "inputs": [
        {
          "indexed": false,
          "name": "_to",
          "type": "address"
        },
        {
          "indexed": false,
          "name": "_amount",
          "type": "uint256"
        }
      ],
      "name": "fundReturned",
      "type": "event"
    },
    {
      "anonymous": false,
      "inputs": [
        {
          "indexed": false,
          "name": "beneficiario",
          "type": "address"
        }
      ],
      "name": "beneficiarioSet",
      "type": "event"
    },
    {
      "anonymous": false,
      "inputs": [
        {
          "indexed": false,
          "name": "cant_acciones",
          "type": "uint256"
        }
      ],
      "name": "cantAccionesSet",
      "type": "event"
    },
    {
      "anonymous": false,
      "inputs": [
        {
          "indexed": true,
          "name": "from",
          "type": "address"
        },
        {
          "indexed": true,
          "name": "to",
          "type": "address"
        },
        {
          "indexed": false,
          "name": "tokens",
          "type": "uint256"
        }
      ],
      "name": "Transfer",
      "type": "event"
    },
    {
      "anonymous": false,
      "inputs": [
        {
          "indexed": false,
          "name": "symbol",
          "type": "string"
        }
      ],
      "name": "symbolSet",
      "type": "event"
    },
    {
      "anonymous": false,
      "inputs": [
        {
          "indexed": false,
          "name": "url",
          "type": "string"
        }
      ],
      "name": "urlSet",
      "type": "event"
    },
    {
      "anonymous": false,
      "inputs": [
        {
          "indexed": false,
          "name": "nombre",
          "type": "string"
        }
      ],
      "name": "nombreSet",
      "type": "event"
    },
    {
      "anonymous": false,
      "inputs": [
        {
          "indexed": false,
          "name": "monto",
          "type": "uint256"
        }
      ],
      "name": "montoSet",
      "type": "event"
    },
    {
      "anonymous": false,
      "inputs": [
        {
          "indexed": false,
          "name": "monto_max",
          "type": "uint256"
        }
      ],
      "name": "montoMaxSet",
      "type": "event"
    },
    {
      "anonymous": false,
      "inputs": [
        {
          "indexed": false,
          "name": "fecha_fin",
          "type": "uint256"
        }
      ],
      "name": "fechaSet",
      "type": "event"
    },
    {
      "anonymous": false,
      "inputs": [
        {
          "indexed": false,
          "name": "descripcion",
          "type": "string"
        }
      ],
      "name": "descripcionSet",
      "type": "event"
    },
    {
      "anonymous": false,
      "inputs": [
        {
          "indexed": false,
          "name": "cuit",
          "type": "uint256"
        }
      ],
      "name": "cuitSet",
      "type": "event"
    },
    {
      "constant": false,
      "inputs": [
        {
          "name": "uid",
          "type": "uint256"
        }
      ],
      "name": "receiveFunds",
      "outputs": [],
      "payable": true,
      "stateMutability": "payable",
      "type": "function"
    },
    {
      "constant": false,
      "inputs": [
        {
          "name": "symbol",
          "type": "string"
        }
      ],
      "name": "setSymbol",
      "outputs": [],
      "payable": false,
      "stateMutability": "nonpayable",
      "type": "function"
    },
    {
      "constant": false,
      "inputs": [
        {
          "name": "cant",
          "type": "uint256"
        }
      ],
      "name": "setCantAcciones",
      "outputs": [],
      "payable": false,
      "stateMutability": "nonpayable",
      "type": "function"
    },
    {
      "constant": false,
      "inputs": [
        {
          "name": "beneficiario",
          "type": "address"
        }
      ],
      "name": "setBeneficiario",
      "outputs": [],
      "payable": false,
      "stateMutability": "nonpayable",
      "type": "function"
    },
    {
      "constant": false,
      "inputs": [
        {
          "name": "url",
          "type": "string"
        }
      ],
      "name": "setUrl",
      "outputs": [],
      "payable": false,
      "stateMutability": "nonpayable",
      "type": "function"
    },
    {
      "constant": false,
      "inputs": [
        {
          "name": "nombre",
          "type": "string"
        }
      ],
      "name": "setNombre",
      "outputs": [],
      "payable": false,
      "stateMutability": "nonpayable",
      "type": "function"
    },
    {
      "constant": false,
      "inputs": [
        {
          "name": "monto",
          "type": "uint256"
        }
      ],
      "name": "setMonto",
      "outputs": [],
      "payable": false,
      "stateMutability": "nonpayable",
      "type": "function"
    },
    {
      "constant": false,
      "inputs": [
        {
          "name": "monto_max",
          "type": "uint256"
        }
      ],
      "name": "setMontoMax",
      "outputs": [],
      "payable": false,
      "stateMutability": "nonpayable",
      "type": "function"
    },
    {
      "constant": false,
      "inputs": [
        {
          "name": "fecha_fin",
          "type": "uint256"
        }
      ],
      "name": "setFecha",
      "outputs": [],
      "payable": false,
      "stateMutability": "nonpayable",
      "type": "function"
    },
    {
      "constant": false,
      "inputs": [
        {
          "name": "descripcion",
          "type": "string"
        }
      ],
      "name": "setDescripcion",
      "outputs": [],
      "payable": false,
      "stateMutability": "nonpayable",
      "type": "function"
    },
    {
      "constant": false,
      "inputs": [
        {
          "name": "cuit",
          "type": "uint256"
        }
      ],
      "name": "setCuit",
      "outputs": [],
      "payable": false,
      "stateMutability": "nonpayable",
      "type": "function"
    },
    {
      "constant": false,
      "inputs": [
        {
          "name": "cnv_addr",
          "type": "address"
        }
      ],
      "name": "setCNVAddress",
      "outputs": [],
      "payable": false,
      "stateMutability": "nonpayable",
      "type": "function"
    },
    {
      "constant": false,
      "inputs": [],
      "name": "setProjectValidity",
      "outputs": [],
      "payable": false,
      "stateMutability": "nonpayable",
      "type": "function"
    },
    {
      "constant": false,
      "inputs": [],
      "name": "setBeneficiaryValidity",
      "outputs": [],
      "payable": false,
      "stateMutability": "nonpayable",
      "type": "function"
    },
    {
      "constant": false,
      "inputs": [
        {
          "name": "from",
          "type": "address"
        },
        {
          "name": "to",
          "type": "address"
        },
        {
          "name": "tokens",
          "type": "uint256"
        }
      ],
      "name": "transferFrom",
      "outputs": [
        {
          "name": "success",
          "type": "bool"
        }
      ],
      "payable": false,
      "stateMutability": "nonpayable",
      "type": "function"
    },
    {
      "constant": false,
      "inputs": [
        {
          "name": "to",
          "type": "address"
        },
        {
          "name": "tokens",
          "type": "uint256"
        }
      ],
      "name": "transfer",
      "outputs": [
        {
          "name": "success",
          "type": "bool"
        }
      ],
      "payable": false,
      "stateMutability": "nonpayable",
      "type": "function"
    },
    {
      "constant": true,
      "inputs": [
        {
          "name": "who",
          "type": "address"
        }
      ],
      "name": "balanceOf",
      "outputs": [
        {
          "name": "balance",
          "type": "uint256"
        }
      ],
      "payable": false,
      "stateMutability": "view",
      "type": "function"
    },
    {
      "constant": false,
      "inputs": [],
      "name": "closeRound",
      "outputs": [
        {
          "name": "success",
          "type": "bool"
        }
      ],
      "payable": false,
      "stateMutability": "nonpayable",
      "type": "function"
    }
  ],
  "bytecode": "0x60806040523480156200001157600080fd5b5060405162003537380380620035378339810180604052810190808051906020019092919080519060200190929190805190602001909291908051906020019092919080518201929190602001805190602001909291908051906020019092919080519060200190929190505050336000806101000a81548173ffffffffffffffffffffffffffffffffffffffff021916908373ffffffffffffffffffffffffffffffffffffffff160217905550601260048190555060006006819055506000601060006101000a81548160ff0219169083151502179055506000601060016101000a81548160ff0219169083151502179055506000601060026101000a81548160ff02191690831515021790555087600160006101000a81548173ffffffffffffffffffffffffffffffffffffffff021916908373ffffffffffffffffffffffffffffffffffffffff16021790555086600260006101000a81548173ffffffffffffffffffffffffffffffffffffffff021916908373ffffffffffffffffffffffffffffffffffffffff16021790555085600760006101000a81548173ffffffffffffffffffffffffffffffffffffffff021916908373ffffffffffffffffffffffffffffffffffffffff1602179055507f839d4499d7a59a2a3e8caefa68e6fa56efe72448bded2ef3394eb8dc0791c014600760009054906101000a900473ffffffffffffffffffffffffffffffffffffffff16604051808273ffffffffffffffffffffffffffffffffffffffff1673ffffffffffffffffffffffffffffffffffffffff16815260200191505060405180910390a1600454600a0a8502600381905550600354601260008060009054906101000a900473ffffffffffffffffffffffffffffffffffffffff1673ffffffffffffffffffffffffffffffffffffffff1673ffffffffffffffffffffffffffffffffffffffff168152602001908152602001600020819055507f9d22dd40e1955aa96a9462ac509affedff1653cea2da2ed7785c468f3ab54a0b6003546040518082815260200191505060405180910390a183600590805190602001906200032e929190620004fe565b507f4324c590b7c4eac8271240278ca15fd7a4a5b193e52a941793ef015049fa33ef846040518080602001828103825283818151815260200191508051906020019080838360005b838110156200039357808201518184015260208101905062000376565b50505050905090810190601f168015620003c15780820380516001836020036101000a031916815260200191505b509250505060405180910390a182600a819055507fc3f457ddc0b2fa1c765c0f3752c077176c334a00fc67bde505222e7735fa474b600a546040518082815260200191505060405180910390a181600b819055507f35d2c3056affd324e5095b3adf0b54d8f40292417c379911e21bc6d7d9ba9ff2600b546040518082815260200191505060405180910390a180600c819055507f57e2b946201b97d1d85bdd9433b1236d4278d7bc75aefe3951d400d32a2c9274600c546040518082815260200191505060405180910390a160405180807f6669626c6f5f636f6e74726163745f6372656174656400000000000000000000815250601601905060405180910390207fd5e88afa96fde7cd6564f009407c1306d04bb732c1c70625e2075120ffcf497a60405160405180910390a25050505050505050620005ad565b828054600181600116156101000203166002900490600052602060002090601f016020900481019282601f106200054157805160ff191683800117855562000572565b8280016001018555821562000572579182015b828111156200057157825182559160200191906001019062000554565b5b50905062000581919062000585565b5090565b620005aa91905b80821115620005a65760008160009055506001016200058c565b5090565b90565b612f7a80620005bd6000396000f3006080604052600436106101c1576000357c0100000000000000000000000000000000000000000000000000000000900463ffffffff16806202736b146101c657806306587b491461022f57806306c0634314610246578063193afc56146102715780631dc66305146102b457806323b872dd146102cb578063252498a2146103505780632ad1e71e146103b95780633ed742ca146103fc57806341c0e1b51461042757806349f7015a1461043e5780634bce46ea146104ce5780634eaeff28146104fb57806370a08231146105265780638827e09b1461057d578063889374721461059d5780638da5cb5b146105c857806394f61d1c1461061f5780639a918ce31461064e578063a9059cbb1461067d578063aa44fcd4146106e2578063ae1ca56114610772578063b01b0c411461079f578063b8257b93146107ca578063b84c8246146107f5578063bde2acda1461085e578063d2938ab01461088b578063d3c749d8146108b6578063d45795cb14610946578063de75e16d146109af578063e0ab6acf14610a06578063e278fe6f14610a96578063e99fda1114610ac5578063fc3a171614610af4578063fe305c3614610b21578063feb924c214610b4e575b600080fd5b3480156101d257600080fd5b5061022d600480360381019080803590602001908201803590602001908080601f0160208091040260200160405190810160405280939291908181526020018383808284378201915050505050509192919290505050610b79565b005b34801561023b57600080fd5b50610244610ca8565b005b34801561025257600080fd5b5061025b610e16565b6040518082815260200191505060405180910390f35b34801561027d57600080fd5b506102b2600480360381019080803573ffffffffffffffffffffffffffffffffffffffff169060200190929190505050610e1c565b005b3480156102c057600080fd5b506102c9610f40565b005b3480156102d757600080fd5b50610336600480360381019080803573ffffffffffffffffffffffffffffffffffffffff169060200190929190803573ffffffffffffffffffffffffffffffffffffffff169060200190929190803590602001909291905050506110d0565b604051808215151515815260200191505060405180910390f35b34801561035c57600080fd5b506103b7600480360381019080803590602001908201803590602001908080601f0160208091040260200160405190810160405280939291908181526020018383808284378201915050505050509192919290505050611400565b005b3480156103c557600080fd5b506103fa600480360381019080803573ffffffffffffffffffffffffffffffffffffffff16906020019092919050505061152f565b005b34801561040857600080fd5b506104116115ce565b6040518082815260200191505060405180910390f35b34801561043357600080fd5b5061043c6115d4565b005b34801561044a57600080fd5b50610453611665565b6040518080602001828103825283818151815260200191508051906020019080838360005b83811015610493578082015181840152602081019050610478565b50505050905090810190601f1680156104c05780820380516001836020036101000a031916815260200191505b509250505060405180910390f35b3480156104da57600080fd5b506104f960048036038101908080359060200190929190505050611703565b005b34801561050757600080fd5b5061051061180d565b6040518082815260200191505060405180910390f35b34801561053257600080fd5b50610567600480360381019080803573ffffffffffffffffffffffffffffffffffffffff169060200190929190505050611813565b6040518082815260200191505060405180910390f35b61059b6004803603810190808035906020019092919050505061185c565b005b3480156105a957600080fd5b506105b2611ca7565b6040518082815260200191505060405180910390f35b3480156105d457600080fd5b506105dd611cad565b604051808273ffffffffffffffffffffffffffffffffffffffff1673ffffffffffffffffffffffffffffffffffffffff16815260200191505060405180910390f35b34801561062b57600080fd5b50610634611cd2565b604051808215151515815260200191505060405180910390f35b34801561065a57600080fd5b50610663611ce5565b604051808215151515815260200191505060405180910390f35b34801561068957600080fd5b506106c8600480360381019080803573ffffffffffffffffffffffffffffffffffffffff16906020019092919080359060200190929190505050611cf8565b604051808215151515815260200191505060405180910390f35b3480156106ee57600080fd5b506106f7611f3d565b6040518080602001828103825283818151815260200191508051906020019080838360005b8381101561073757808201518184015260208101905061071c565b50505050905090810190601f1680156107645780820380516001836020036101000a031916815260200191505b509250505060405180910390f35b34801561077e57600080fd5b5061079d60048036038101908080359060200190929190505050611fdb565b005b3480156107ab57600080fd5b506107b4612079565b6040518082815260200191505060405180910390f35b3480156107d657600080fd5b506107df61207f565b6040518082815260200191505060405180910390f35b34801561080157600080fd5b5061085c600480360381019080803590602001908201803590602001908080601f0160208091040260200160405190810160405280939291908181526020018383808284378201915050505050509192919290505050612085565b005b34801561086a57600080fd5b5061088960048036038101908080359060200190929190505050612196565b005b34801561089757600080fd5b506108a0612234565b6040518082815260200191505060405180910390f35b3480156108c257600080fd5b506108cb61223a565b6040518080602001828103825283818151815260200191508051906020019080838360005b8381101561090b5780820151818401526020810190506108f0565b50505050905090810190601f1680156109385780820380516001836020036101000a031916815260200191505b509250505060405180910390f35b34801561095257600080fd5b506109ad600480360381019080803590602001908201803590602001908080601f01602080910402602001604051908101604052809392919081815260200183838082843782019150505050505091929192905050506122d8565b005b3480156109bb57600080fd5b506109c4612407565b604051808273ffffffffffffffffffffffffffffffffffffffff1673ffffffffffffffffffffffffffffffffffffffff16815260200191505060405180910390f35b348015610a1257600080fd5b50610a1b61242d565b6040518080602001828103825283818151815260200191508051906020019080838360005b83811015610a5b578082015181840152602081019050610a40565b50505050905090810190601f168015610a885780820380516001836020036101000a031916815260200191505b509250505060405180910390f35b348015610aa257600080fd5b50610aab6124cb565b604051808215151515815260200191505060405180910390f35b348015610ad157600080fd5b50610ada6128bf565b604051808215151515815260200191505060405180910390f35b348015610b0057600080fd5b50610b1f600480360381019080803590602001909291905050506128d2565b005b348015610b2d57600080fd5b50610b4c60048036038101908080359060200190929190505050612970565b005b348015610b5a57600080fd5b50610b63612a0e565b6040518082815260200191505060405180910390f35b6000809054906101000a900473ffffffffffffffffffffffffffffffffffffffff1673ffffffffffffffffffffffffffffffffffffffff163373ffffffffffffffffffffffffffffffffffffffff16141515610bd457600080fd5b8060099080519060200190610bea929190612ea9565b507fc71c2644179666c228fa56e641bc2d6f6945a954d8857b2f64b4c0ec6898faef60096040518080602001828103825283818154600181600116156101000203166002900481526020019150805460018160011615610100020316600290048015610c975780601f10610c6c57610100808354040283529160200191610c97565b820191906000526020600020905b815481529060010190602001808311610c7a57829003601f168201915b50509250505060405180910390a150565b6000809054906101000a900473ffffffffffffffffffffffffffffffffffffffff1673ffffffffffffffffffffffffffffffffffffffff163373ffffffffffffffffffffffffffffffffffffffff16141515610d0357600080fd5b600160009054906101000a900473ffffffffffffffffffffffffffffffffffffffff1673ffffffffffffffffffffffffffffffffffffffff16639a749171306040518263ffffffff167c0100000000000000000000000000000000000000000000000000000000028152600401808273ffffffffffffffffffffffffffffffffffffffff1673ffffffffffffffffffffffffffffffffffffffff168152602001915050602060405180830381600087803b158015610dc057600080fd5b505af1158015610dd4573d6000803e3d6000fd5b505050506040513d6020811015610dea57600080fd5b8101908080519060200190929190505050601060006101000a81548160ff021916908315150217905550565b600a5481565b6000809054906101000a900473ffffffffffffffffffffffffffffffffffffffff1673ffffffffffffffffffffffffffffffffffffffff163373ffffffffffffffffffffffffffffffffffffffff16141515610e7757600080fd5b80600760006101000a81548173ffffffffffffffffffffffffffffffffffffffff021916908373ffffffffffffffffffffffffffffffffffffffff1602179055507f839d4499d7a59a2a3e8caefa68e6fa56efe72448bded2ef3394eb8dc0791c014600760009054906101000a900473ffffffffffffffffffffffffffffffffffffffff16604051808273ffffffffffffffffffffffffffffffffffffffff1673ffffffffffffffffffffffffffffffffffffffff16815260200191505060405180910390a150565b6000809054906101000a900473ffffffffffffffffffffffffffffffffffffffff1673ffffffffffffffffffffffffffffffffffffffff163373ffffffffffffffffffffffffffffffffffffffff16141515610f9b57600080fd5b600160009054906101000a900473ffffffffffffffffffffffffffffffffffffffff1673ffffffffffffffffffffffffffffffffffffffff1663ee892cef600760009054906101000a900473ffffffffffffffffffffffffffffffffffffffff166040518263ffffffff167c0100000000000000000000000000000000000000000000000000000000028152600401808273ffffffffffffffffffffffffffffffffffffffff1673ffffffffffffffffffffffffffffffffffffffff168152602001915050602060405180830381600087803b15801561107a57600080fd5b505af115801561108e573d6000803e3d6000fd5b505050506040513d60208110156110a457600080fd5b8101908080519060200190929190505050601060016101000a81548160ff021916908315150217905550565b6000601060029054906101000a900460ff16151561117c576040517f08c379a00000000000000000000000000000000000000000000000000000000081526004018080602001828103825260368152602001807f4e6f2073652070756564656e207472616e73666572697220746f6b656e73206481526020017f6520756e2070726f796563746f206162696572746f2e0000000000000000000081525060400191505060405180910390fd5b3373ffffffffffffffffffffffffffffffffffffffff168473ffffffffffffffffffffffffffffffffffffffff16141515611245576040517f08c379a00000000000000000000000000000000000000000000000000000000081526004018080602001828103825260338152602001807f556e207573756172696f20736f6c6f207075656465207472616e73666572697281526020017f207375732070726f70696f7320746f6b656e730000000000000000000000000081525060400191505060405180910390fd5b61129782601260008773ffffffffffffffffffffffffffffffffffffffff1673ffffffffffffffffffffffffffffffffffffffff16815260200190815260200160002054612a1490919063ffffffff16565b601260008673ffffffffffffffffffffffffffffffffffffffff1673ffffffffffffffffffffffffffffffffffffffff1681526020019081526020016000208190555061132c82601260008673ffffffffffffffffffffffffffffffffffffffff1673ffffffffffffffffffffffffffffffffffffffff16815260200190815260200160002054612abf90919063ffffffff16565b601260008573ffffffffffffffffffffffffffffffffffffffff1673ffffffffffffffffffffffffffffffffffffffff168152602001908152602001600020819055508273ffffffffffffffffffffffffffffffffffffffff166000809054906101000a900473ffffffffffffffffffffffffffffffffffffffff1673ffffffffffffffffffffffffffffffffffffffff167fddf252ad1be2c89b69c2b068fc378daa952ba7f163c4a11628f55a4df523b3ef846040518082815260200191505060405180910390a3600190509392505050565b6000809054906101000a900473ffffffffffffffffffffffffffffffffffffffff1673ffffffffffffffffffffffffffffffffffffffff163373ffffffffffffffffffffffffffffffffffffffff1614151561145b57600080fd5b8060089080519060200190611471929190612ea9565b507f9db0119a744a0f7b8709b1586d61275999f138f86077631c22039b9027d286376008604051808060200182810382528381815460018160011615610100020316600290048152602001915080546001816001161561010002031660029004801561151e5780601f106114f35761010080835404028352916020019161151e565b820191906000526020600020905b81548152906001019060200180831161150157829003601f168201915b50509250505060405180910390a150565b6000809054906101000a900473ffffffffffffffffffffffffffffffffffffffff1673ffffffffffffffffffffffffffffffffffffffff163373ffffffffffffffffffffffffffffffffffffffff1614151561158a57600080fd5b80600160006101000a81548173ffffffffffffffffffffffffffffffffffffffff021916908373ffffffffffffffffffffffffffffffffffffffff16021790555050565b60065481565b6000809054906101000a900473ffffffffffffffffffffffffffffffffffffffff1673ffffffffffffffffffffffffffffffffffffffff163373ffffffffffffffffffffffffffffffffffffffff161415611663576000809054906101000a900473ffffffffffffffffffffffffffffffffffffffff1673ffffffffffffffffffffffffffffffffffffffff16ff5b565b60058054600181600116156101000203166002900480601f0160208091040260200160405190810160405280929190818152602001828054600181600116156101000203166002900480156116fb5780601f106116d0576101008083540402835291602001916116fb565b820191906000526020600020905b8154815290600101906020018083116116de57829003601f168201915b505050505081565b6000809054906101000a900473ffffffffffffffffffffffffffffffffffffffff1673ffffffffffffffffffffffffffffffffffffffff163373ffffffffffffffffffffffffffffffffffffffff1614151561175e57600080fd5b600454600a0a8102600381905550600354601260008060009054906101000a900473ffffffffffffffffffffffffffffffffffffffff1673ffffffffffffffffffffffffffffffffffffffff1673ffffffffffffffffffffffffffffffffffffffff168152602001908152602001600020819055507f9d22dd40e1955aa96a9462ac509affedff1653cea2da2ed7785c468f3ab54a0b816040518082815260200191505060405180910390a150565b600b5481565b6000601260008373ffffffffffffffffffffffffffffffffffffffff1673ffffffffffffffffffffffffffffffffffffffff168152602001908152602001600020549050919050565b6000601060009054906101000a900460ff161515611908576040517f08c379a00000000000000000000000000000000000000000000000000000000081526004018080602001828103825260288152602001807f456c2070726f796563746f2064656265207365722076616c696461646f20706f81526020017f72206c6120434e5600000000000000000000000000000000000000000000000081525060400191505060405180910390fd5b601060019054906101000a900460ff1615156119b2576040517f08c379a00000000000000000000000000000000000000000000000000000000081526004018080602001828103825260398152602001807f456c2062656e65666963696172696f2064656c2070726f796563746f2064656281526020017f65207365722076616c696461646f20706f72206c6120434e560000000000000081525060400191505060405180910390fd5b601060029054906101000a900460ff16151515611a5d576040517f08c379a00000000000000000000000000000000000000000000000000000000081526004018080602001828103825260328152602001807f4c6120726f6e646120646562652065737461722061626965727461207061726181526020017f20706f64657220636f6e747269627569722e000000000000000000000000000081525060400191505060405180910390fd5b611a65612b6a565b9050801515611b28576040517f08c379a00000000000000000000000000000000000000000000000000000000081526004018080602001828103825260568152602001807f456c206d6f6e746f2064656c2070726f796563746f206dc3a17320656c206d6f81526020017f6e746f2061207472616e66657269722073757065726120656c206d6f6e746f2081526020017f706f72207375706572737573637269706369c3b36e2e0000000000000000000081525060600191505060405180910390fd5b6000341115611b9d577f3f638da77ee3d49db2211092b965c9c7c2fcb68fea5e8f85986200f8776f6a1d3334604051808373ffffffffffffffffffffffffffffffffffffffff1673ffffffffffffffffffffffffffffffffffffffff1681526020018281526020019250505060405180910390a15b6006600081548092919060010191905055506060604051908101604052803373ffffffffffffffffffffffffffffffffffffffff1681526020018381526020013481525060116000600654815260200190815260200160002060008201518160000160006101000a81548173ffffffffffffffffffffffffffffffffffffffff021916908373ffffffffffffffffffffffffffffffffffffffff1602179055506020820151816001015560408201518160020155905050813373ffffffffffffffffffffffffffffffffffffffff167fbb7c95956eba9b5055c595e4f650eeb4af09c486b474ab1bc200a3a7eaf417de346040518082815260200191505060405180910390a35050565b60045481565b6000809054906101000a900473ffffffffffffffffffffffffffffffffffffffff1681565b601060009054906101000a900460ff1681565b601060029054906101000a900460ff1681565b6000601060029054906101000a900460ff161515611da4576040517f08c379a00000000000000000000000000000000000000000000000000000000081526004018080602001828103825260368152602001807f4e6f2073652070756564656e207472616e73666572697220746f6b656e73206481526020017f6520756e2070726f796563746f206162696572746f2e0000000000000000000081525060400191505060405180910390fd5b611df682601260003373ffffffffffffffffffffffffffffffffffffffff1673ffffffffffffffffffffffffffffffffffffffff16815260200190815260200160002054612a1490919063ffffffff16565b601260003373ffffffffffffffffffffffffffffffffffffffff1673ffffffffffffffffffffffffffffffffffffffff16815260200190815260200160002081905550611e8b82601260008673ffffffffffffffffffffffffffffffffffffffff1673ffffffffffffffffffffffffffffffffffffffff16815260200190815260200160002054612abf90919063ffffffff16565b601260008573ffffffffffffffffffffffffffffffffffffffff1673ffffffffffffffffffffffffffffffffffffffff168152602001908152602001600020819055508273ffffffffffffffffffffffffffffffffffffffff163373ffffffffffffffffffffffffffffffffffffffff167fddf252ad1be2c89b69c2b068fc378daa952ba7f163c4a11628f55a4df523b3ef846040518082815260200191505060405180910390a36001905092915050565b60088054600181600116156101000203166002900480601f016020809104026020016040519081016040528092919081815260200182805460018160011615610100020316600290048015611fd35780601f10611fa857610100808354040283529160200191611fd3565b820191906000526020600020905b815481529060010190602001808311611fb657829003601f168201915b505050505081565b6000809054906101000a900473ffffffffffffffffffffffffffffffffffffffff1673ffffffffffffffffffffffffffffffffffffffff163373ffffffffffffffffffffffffffffffffffffffff1614151561203657600080fd5b80600c819055507f57e2b946201b97d1d85bdd9433b1236d4278d7bc75aefe3951d400d32a2c9274600c546040518082815260200191505060405180910390a150565b600f5481565b600d5481565b6000809054906101000a900473ffffffffffffffffffffffffffffffffffffffff1673ffffffffffffffffffffffffffffffffffffffff163373ffffffffffffffffffffffffffffffffffffffff161415156120e057600080fd5b80600590805190602001906120f6929190612ea9565b507f4324c590b7c4eac8271240278ca15fd7a4a5b193e52a941793ef015049fa33ef816040518080602001828103825283818151815260200191508051906020019080838360005b8381101561215957808201518184015260208101905061213e565b50505050905090810190601f1680156121865780820380516001836020036101000a031916815260200191505b509250505060405180910390a150565b6000809054906101000a900473ffffffffffffffffffffffffffffffffffffffff1673ffffffffffffffffffffffffffffffffffffffff163373ffffffffffffffffffffffffffffffffffffffff161415156121f157600080fd5b80600f819055507fb7746e669a746645aa4028b54668021861838111c88f67ae39a667d09bf92b4d600f546040518082815260200191505060405180910390a150565b60035481565b60098054600181600116156101000203166002900480601f0160208091040260200160405190810160405280929190818152602001828054600181600116156101000203166002900480156122d05780601f106122a5576101008083540402835291602001916122d0565b820191906000526020600020905b8154815290600101906020018083116122b357829003601f168201915b505050505081565b6000809054906101000a900473ffffffffffffffffffffffffffffffffffffffff1673ffffffffffffffffffffffffffffffffffffffff163373ffffffffffffffffffffffffffffffffffffffff1614151561233357600080fd5b80600e9080519060200190612349929190612ea9565b507f463e27b451223a222fe2d62c3c9614c754e3c0028bec5d73188c03cba5f9f09f600e60405180806020018281038252838181546001816001161561010002031660029004815260200191508054600181600116156101000203166002900480156123f65780601f106123cb576101008083540402835291602001916123f6565b820191906000526020600020905b8154815290600101906020018083116123d957829003601f168201915b50509250505060405180910390a150565b600760009054906101000a900473ffffffffffffffffffffffffffffffffffffffff1681565b600e8054600181600116156101000203166002900480601f0160208091040260200160405190810160405280929190818152602001828054600181600116156101000203166002900480156124c35780601f10612498576101008083540402835291602001916124c3565b820191906000526020600020905b8154815290600101906020018083116124a657829003601f168201915b505050505081565b6000806000601060029054906101000a900460ff1615151561257b576040517f08c379a000000000000000000000000000000000000000000000000000000000815260040180806020018281038252603b8152602001807f4c6120726f6e646120646562652073656775697220616269657274612070617281526020017f6120706f646572207265616c697a617220656c206369657272652e000000000081525060400191505060405180910390fd5b600a54600454600a0a3073ffffffffffffffffffffffffffffffffffffffff1631600260009054906101000a900473ffffffffffffffffffffffffffffffffffffffff1673ffffffffffffffffffffffffffffffffffffffff1663a312880b6040518163ffffffff167c0100000000000000000000000000000000000000000000000000000000028152600401602060405180830381600087803b15801561262257600080fd5b505af1158015612636573d6000803e3d6000fd5b505050506040513d602081101561264c57600080fd5b81019080805190602001909291905050500281151561266757fe5b0410151561271257600191505b600654821115156126eb576126dd6011600084815260200190815260200160002060000160009054906101000a900473ffffffffffffffffffffffffffffffffffffffff166126d86011600086815260200190815260200160002060020154612c7b565b612cab565b508180600101925050612674565b6001601060026101000a81548160ff02191690831515021790555042600d819055506128a8565b600c54421015156128a757600190505b60065481111515612884576011600082815260200190815260200160002060000160009054906101000a900473ffffffffffffffffffffffffffffffffffffffff1673ffffffffffffffffffffffffffffffffffffffff166108fc60116000848152602001908152602001600020600201549081150290604051600060405180830381858888f193505050501580156127bf573d6000803e3d6000fd5b507f8bbc77311338e358d26492fee1a9217698e8c21f8f7b76afeee3fd896ff8a0386011600083815260200190815260200160002060000160009054906101000a900473ffffffffffffffffffffffffffffffffffffffff166011600084815260200190815260200160002060020154604051808373ffffffffffffffffffffffffffffffffffffffff1673ffffffffffffffffffffffffffffffffffffffff1681526020018281526020019250505060405180910390a18080600101915050612722565b6001601060026101000a81548160ff02191690831515021790555042600d819055505b5b601060029054906101000a900460ff169250505090565b601060019054906101000a900460ff1681565b6000809054906101000a900473ffffffffffffffffffffffffffffffffffffffff1673ffffffffffffffffffffffffffffffffffffffff163373ffffffffffffffffffffffffffffffffffffffff1614151561292d57600080fd5b80600b819055507f35d2c3056affd324e5095b3adf0b54d8f40292417c379911e21bc6d7d9ba9ff2600b546040518082815260200191505060405180910390a150565b6000809054906101000a900473ffffffffffffffffffffffffffffffffffffffff1673ffffffffffffffffffffffffffffffffffffffff163373ffffffffffffffffffffffffffffffffffffffff161415156129cb57600080fd5b80600a819055507fc3f457ddc0b2fa1c765c0f3752c077176c334a00fc67bde505222e7735fa474b600a546040518082815260200191505060405180910390a150565b600c5481565b6000828211151515612ab4576040517f08c379a00000000000000000000000000000000000000000000000000000000081526004018080602001828103825260358152602001807f5375627374726163746f72206d757374206265206c6f776572206f722065717581526020017f616c20746f206f726967696e616c206e756d626572000000000000000000000081525060400191505060405180910390fd5b818303905092915050565b60008183019050828110151515612b64576040517f08c379a00000000000000000000000000000000000000000000000000000000081526004018080602001828103825260328152602001807f526573756c74206d7573742062652067726561746572206f7220657175616c2081526020017f746f206f726967696e616c206e756d626572000000000000000000000000000081525060400191505060405180910390fd5b92915050565b6000806000806000803073ffffffffffffffffffffffffffffffffffffffff16319450600260009054906101000a900473ffffffffffffffffffffffffffffffffffffffff1673ffffffffffffffffffffffffffffffffffffffff1663a312880b6040518163ffffffff167c0100000000000000000000000000000000000000000000000000000000028152600401602060405180830381600087803b158015612c1357600080fd5b505af1158015612c27573d6000803e3d6000fd5b505050506040513d6020811015612c3d57600080fd5b81019080805190602001909291905050509350600454600a0a92508383600b5402811515612c6757fe5b049150818511159050809550505050505090565b60003073ffffffffffffffffffffffffffffffffffffffff16316003548302811515612ca357fe5b049050919050565b6000612d2082601260008060009054906101000a900473ffffffffffffffffffffffffffffffffffffffff1673ffffffffffffffffffffffffffffffffffffffff1673ffffffffffffffffffffffffffffffffffffffff16815260200190815260200160002054612a1490919063ffffffff16565b601260008060009054906101000a900473ffffffffffffffffffffffffffffffffffffffff1673ffffffffffffffffffffffffffffffffffffffff1673ffffffffffffffffffffffffffffffffffffffff16815260200190815260200160002081905550612dd682601260008673ffffffffffffffffffffffffffffffffffffffff1673ffffffffffffffffffffffffffffffffffffffff16815260200190815260200160002054612abf90919063ffffffff16565b601260008573ffffffffffffffffffffffffffffffffffffffff1673ffffffffffffffffffffffffffffffffffffffff168152602001908152602001600020819055508273ffffffffffffffffffffffffffffffffffffffff166000809054906101000a900473ffffffffffffffffffffffffffffffffffffffff1673ffffffffffffffffffffffffffffffffffffffff167fddf252ad1be2c89b69c2b068fc378daa952ba7f163c4a11628f55a4df523b3ef846040518082815260200191505060405180910390a36001905092915050565b828054600181600116156101000203166002900490600052602060002090601f016020900481019282601f10612eea57805160ff1916838001178555612f18565b82800160010185558215612f18579182015b82811115612f17578251825591602001919060010190612efc565b5b509050612f259190612f29565b5090565b612f4b91905b80821115612f47576000816000905550600101612f2f565b5090565b905600a165627a7a723058206520cb8036b5da63bae4e93d1e43f81e971fc68946ab77f7886d22de155e2d940029",
  "source": "pragma solidity ^0.4.22;\n\nimport './mortal.sol';\nimport './SafeMath.sol';\nimport './CNV.sol';\nimport './OraculoPrecio.sol';\n\ncontract ContratoSAS is mortal {\n    using SafeMath for uint;\n\n    CNV cnv;\n    OraculoPrecio oraculo_precio;\n\n    /* Events */\n\n    event Created(string indexed identifier);\n\n    //////\n\n    event contributionFiled(address indexed from, uint indexed uid, uint amount);\n    event receivedFunds(address _from, uint _amount);\n    event fundReturned(address _to, uint _amount);\n    event beneficiarioSet(address beneficiario);\n    event cantAccionesSet(uint cant_acciones);\n    event Transfer(address indexed from, address indexed to, uint tokens);\n    event symbolSet(string symbol);\n    event urlSet(string url);\n    event nombreSet(string nombre);\n    event montoSet(uint monto);\n    event montoMaxSet(uint monto_max);\n    event fechaSet(uint fecha_fin);\n    event descripcionSet(string descripcion);\n    event cuitSet(uint cuit);\n    /* event uidSet(uint uid); */\n\n    struct Contribution {\n        address _from;\n        uint _uid;\n        uint _amount;\n    }\n\n    uint public    m_total_supply; // ERC 20\n    uint public    m_decimals; // ERC 20\n    string public  m_symbol; // ERC 20\n    uint public    contribution_counter;\n    address public m_beneficiario;\n    string public  m_url;\n    string public  m_nombre; // ERC 20\n    uint public    m_monto; // Monto en centavos\n    uint public    m_monto_max; // Monto en centavos\n    uint public    m_fecha_fin;\n    uint public    m_fecha_cierre;\n    string public  m_descripcion;\n    uint public    m_cuit;\n    bool public    m_project_valid;\n    bool public    m_beneficiary_valid;\n    bool public    m_closed_round;\n    /* uint public    m_uid; */\n\n    mapping(uint => Contribution) m_contributions;\n    mapping(address => uint) balances;\n\n    /* constructor() public {\n      m_decimals = 18;\n      contribution_counter = 0;\n      m_project_valid = false;\n      m_beneficiary_valid = false;\n      m_closed_round = false;\n    } */\n\n    constructor(address cnv_addr, address oraculo_precio_addr, address beneficiario, uint cant_acciones, string symbol, uint monto, uint monto_max, uint fecha_fin) public {\n      m_decimals = 18;\n      contribution_counter = 0;\n      m_project_valid = false;\n      m_beneficiary_valid = false;\n      m_closed_round = false;\n      ///\n      cnv = CNV(cnv_addr);\n      oraculo_precio = OraculoPrecio(oraculo_precio_addr);\n      ///\n      m_beneficiario = beneficiario;\n      emit beneficiarioSet(m_beneficiario);\n      m_total_supply = cant_acciones * 10**uint(m_decimals);\n      balances[owner] = m_total_supply; // Sets all the tokens in the owners balance\n      emit cantAccionesSet(m_total_supply);\n      m_symbol = symbol;\n      emit symbolSet(symbol);\n      m_monto = monto;\n      emit montoSet(m_monto);\n      m_monto_max = monto_max;\n      emit montoMaxSet(m_monto_max);\n      m_fecha_fin = fecha_fin;\n      emit fechaSet(m_fecha_fin);\n\n      emit Created(\"fiblo_contract_created\");\n    }\n    /* constructor(address beneficiario, string url, string nombre, uint monto, uint monto_max, string fecha, string descripcion, uint cuit) public {\n      contribution_counter = 0;\n      m_beneficiario = beneficiario;\n      m_url = url;\n      m_nombre = nombre;\n      m_monto = monto;\n      m_monto_max = monto_max;\n      m_fecha_fin = fecha;\n      m_descripcion = descripcion;\n      m_cuit = cuit;\n      m_project_valid = false;\n      m_beneficiary_valid = false;\n    } */\n\n    function appendUintToString(string inStr, uint v) private pure returns (string str) {\n        uint maxlength = 100;\n        bytes memory reversed = new bytes(maxlength);\n        uint i = 0;\n        while (v != 0) {\n            uint remainder = v % 10;\n            v = v / 10;\n            reversed[i++] = byte(48 + remainder);\n        }\n        bytes memory inStrb = bytes(inStr);\n        bytes memory s = new bytes(inStrb.length + i);\n        uint j;\n        for (j = 0; j < inStrb.length; j++) {\n            s[j] = inStrb[j];\n        }\n        for (j = 0; j < i; j++) {\n            s[j + inStrb.length] = reversed[i - 1 - j];\n        }\n        str = string(s);\n    }\n\n    function append(string a, string b) private pure returns (string str) {\n      return string(abi.encodePacked(a, b));\n    }\n\n    function appendFive(string a, string b, string c, string d, string e) private pure returns (string str) {\n      return string(abi.encodePacked(a, b, c, d, e));\n    }\n\n    function noSuperaMontoMax () private view returns (bool supera) {\n      uint balanceActual = address(this).balance;\n      uint precioOraculo = oraculo_precio.getPrecio();\n      uint weiMultiplier = 10**uint(m_decimals);\n      /* uint sumaBalanceMonto = uint(balanceActual + val); */ // Omitimos este paso pues solidity suma al balance el value del mensaje previo a la carga del cuerpo del mtodo\n      /* uint divisionMontoPrecio = m_monto_max / precioOraculo; */\n      uint montoPrecioWei = m_monto_max * weiMultiplier / precioOraculo;\n      bool comparacion = balanceActual <= montoPrecioWei;\n\n      /* append(\n        appendUintToString(\"divisionMontoPrecio: \", divisionMontoPrecio),\n        \"  \"\n      ), */\n\n      /* if(comparacion){\n        require(false, append(\"Comparacin VERDADERA --- \", appendFive(\n            append(appendUintToString(\"balanceActual: \", balanceActual), \"  \"),\n            append(appendUintToString(\"precioOraculo: \", precioOraculo), \"  \"),\n            append(appendUintToString(\"weiMultiplier: \", weiMultiplier), \"  \"),\n            append(appendUintToString(\"m_monto_max: \", m_monto_max), \"  \"),\n            append(appendUintToString(\"montoPrecioWei: \", montoPrecioWei), \"  \")\n            )\n          )\n        );\n      }\n      else{\n        require(false, append(\"Comparacin FALSA --- \", appendFive(\n            append(appendUintToString(\"balanceActual: \", balanceActual), \"  \"),\n            append(appendUintToString(\"precioOraculo: \", precioOraculo), \"  \"),\n            append(appendUintToString(\"weiMultiplier: \", weiMultiplier), \"  \"),\n            append(appendUintToString(\"m_monto_max: \", m_monto_max), \"  \"),\n            append(appendUintToString(\"montoPrecioWei: \", montoPrecioWei), \"  \")\n            )\n          )\n        );\n      } */\n\n      /* if(comparacion){\n        require(false, append(\"Comparacin VERDADERA --- \", append(appendUintToString(\"Balance actual: \", balanceActual), appendUintToString(\"Monto precio wei: \", montoPrecioWei))));\n      }\n      else{\n        require(false, append(\"Comparacin FALSA --- \", append(appendUintToString(\"Balance actual: \", balanceActual), appendUintToString(\"Monto precio wei: \", montoPrecioWei))));\n      } */\n      return comparacion;\n    }\n\n    function receiveFunds(uint uid) payable public {\n      require(m_project_valid, \"El proyecto debe ser validado por la CNV\");\n      require(m_beneficiary_valid, \"El beneficiario del proyecto debe ser validado por la CNV\");\n      require(!m_closed_round, \"La ronda debe estar abierta para poder contribuir.\");\n      bool noSupera = bool(noSuperaMontoMax());\n      require(noSupera, \"El monto del proyecto ms el monto a tranferir supera el monto por supersuscripcin.\");\n      /* Receive amount */\n      if(msg.value > 0) {\n          emit receivedFunds(msg.sender, msg.value);\n      }\n      /* File contribution*/\n      contribution_counter++;\n      m_contributions[contribution_counter] = Contribution(msg.sender, uid, msg.value);\n      emit contributionFiled(msg.sender, uid, msg.value);\n    }\n\n    /*function getNombre() public returns (string) {\n        return m_nombre;\n    }*/\n\n    /* Setea el totalSupply de la SAS/proyecto */\n    function setSymbol(string symbol) onlyowner public {\n        m_symbol = symbol;\n        emit symbolSet(symbol);\n    }\n\n    /* Setea el totalSupply de la SAS/proyecto */\n    function setCantAcciones(uint cant) onlyowner public {\n        m_total_supply = cant * 10**uint(m_decimals);\n        balances[owner] = m_total_supply; // Sets all the tokens in the owners balance\n        emit cantAccionesSet(cant);\n    }\n\n    /* Setea el beneficiario de la SAS/proyecto */\n    function setBeneficiario(address beneficiario) onlyowner public {\n        m_beneficiario = beneficiario;\n        emit beneficiarioSet(m_beneficiario);\n    }\n\n    /* Setea el url de la SAS/proyecto */\n    function setUrl(string url) onlyowner public {\n        m_url = url;\n        emit urlSet(m_url);\n    }\n\n    /* Setea el nombre de la SAS/proyecto */\n    function setNombre(string nombre) onlyowner public {\n        m_nombre = nombre;\n        emit nombreSet(m_nombre);\n    }\n\n    /* Setea el monto de la SAS/proyecto */\n    function setMonto(uint monto) onlyowner public {\n        m_monto = monto;\n        emit montoSet(m_monto);\n    }\n\n    /* Setea el monto max de la SAS/proyecto */\n    function setMontoMax(uint monto_max) onlyowner public {\n        m_monto_max = monto_max;\n        emit montoMaxSet(m_monto_max);\n    }\n\n    /* Setea la fecha de la SAS/proyecto */\n    function setFecha(uint fecha_fin) onlyowner public {\n        m_fecha_fin = fecha_fin;\n        emit fechaSet(m_fecha_fin);\n    }\n\n    /* Setea la descripcion de la SAS/proyecto */\n    function setDescripcion(string descripcion) onlyowner public {\n        m_descripcion = descripcion;\n        emit descripcionSet(m_descripcion);\n    }\n\n    /* Setea el CUIT de la SAS/proyecto */\n    function setCuit(uint cuit) onlyowner public {\n        m_cuit = cuit;\n        emit cuitSet(m_cuit);\n    }\n\n    function setCNVAddress(address cnv_addr) onlyowner public {\n      cnv = CNV(cnv_addr);\n    }\n\n    function setProjectValidity() onlyowner public {\n      m_project_valid = cnv.isProjectValid(address(this));\n    }\n\n    function setBeneficiaryValidity() onlyowner public {\n      m_beneficiary_valid = cnv.isBeneficiaryValid(m_beneficiario);\n    }\n\n    function transferFrom(address from, address to, uint tokens) public returns (bool success) {\n      require(m_closed_round, \"No se pueden transferir tokens de un proyecto abierto.\");\n      require(from == msg.sender, \"Un usuario solo puede transferir sus propios tokens\");\n      balances[from] = balances[from].sub(tokens);\n      balances[to] = balances[to].add(tokens);\n      emit Transfer(owner, to, tokens);\n      return true;\n    }\n\n    function transfer(address to, uint tokens) public returns (bool success) {\n      require(m_closed_round, \"No se pueden transferir tokens de un proyecto abierto.\");\n      balances[msg.sender] = balances[msg.sender].sub(tokens);\n      balances[to] = balances[to].add(tokens);\n      emit Transfer(msg.sender, to, tokens);\n      return true;\n    }\n\n    function transferCloseRound(address to, uint tokens) private returns (bool success) {\n      balances[owner] = balances[owner].sub(tokens);\n      balances[to] = balances[to].add(tokens);\n      emit Transfer(owner, to, tokens);\n      return true;\n    }\n\n    function balanceOf(address who) public view returns (uint balance) {\n      return balances[who];\n    }\n\n    function calculateTokens(uint _wei) private view returns (uint tokens) {\n      return _wei * m_total_supply / address(this).balance;\n    }\n\n    function closeRound() public returns (bool success) {\n      require(!m_closed_round, \"La ronda debe seguir abierta para poder realizar el cierre.\");\n      if(oraculo_precio.getPrecio() * address(this).balance / 10**uint(m_decimals) >= m_monto) { // Se alcanz el monto esperado para el proyecto\n        for (uint i = 1; i <= contribution_counter; i++) { // Repartimos tokens a los holders\n          transferCloseRound(m_contributions[i]._from, calculateTokens(m_contributions[i]._amount)); // Los tokens los mandamos como el amount sin multiplicar por los decimales porque ya los estamos almacenando en wei al crear la contribucin.\n        }\n        m_closed_round = true;\n        m_fecha_cierre = now;\n      } else if(now >= m_fecha_fin) { // Se alcanz la fecha de cierre del proyecto y no se alcanz el monto esperado\n        for (uint j = 1; j <= contribution_counter; j++) { // Devolvemos la plata a los holders y cerramos la ronda\n          m_contributions[j]._from.transfer(m_contributions[j]._amount); // En este caso, address.transfer es una llamada a transfer de solidity https://solidity.readthedocs.io/en/develop/units-and-global-variables.html#members-of-address-types\n          emit fundReturned(m_contributions[j]._from, m_contributions[j]._amount);\n        }\n        m_closed_round = true;\n        m_fecha_cierre = now;\n      }\n      return m_closed_round;\n    }\n\n    /* Setea el uid de la SAS/proyecto */\n    /* function setUid(uint uid) onlyowner public {\n        m_uid = uid;\n        emit uidSet(m_uid);\n    } */\n\n    /* TODO: Fill in function or get from frontend */\n    /*function getUserId() private returns (uint) {\n        return 1;\n    }*/\n\n    /* m_project_valid = cnv_addr.call(bytes4(keccak256(\"isProjectValid(address)\")), address(this)); */\n}\n",
  "sourcePath": "/home/ivan/MacherIT/Ethereum/fiblo/contracts/ContratoSAS.sol",
  "compiler": {
    "name": "solc",
    "version": "0.4.24+commit.e67f0147.Emscripten.clang"
  },
  "schemaVersion": "2.0.1",
  "updatedAt": "2019-03-21T16:27:17.762Z"
}