{
  "contractName": "ContratoSAS",
  "abi": [
    {
      "constant": true,
      "inputs": [],
      "name": "m_monto",
      "outputs": [
        {
          "name": "",
          "type": "uint256"
        }
      ],
      "payable": false,
      "stateMutability": "view",
      "type": "function"
    },
    {
      "constant": true,
      "inputs": [],
      "name": "contribution_counter",
      "outputs": [
        {
          "name": "",
          "type": "uint256"
        }
      ],
      "payable": false,
      "stateMutability": "view",
      "type": "function"
    },
    {
      "constant": false,
      "inputs": [],
      "name": "kill",
      "outputs": [],
      "payable": false,
      "stateMutability": "nonpayable",
      "type": "function"
    },
    {
      "constant": true,
      "inputs": [],
      "name": "m_monto_max",
      "outputs": [
        {
          "name": "",
          "type": "uint256"
        }
      ],
      "payable": false,
      "stateMutability": "view",
      "type": "function"
    },
    {
      "constant": true,
      "inputs": [],
      "name": "m_project_valid",
      "outputs": [
        {
          "name": "",
          "type": "bool"
        }
      ],
      "payable": false,
      "stateMutability": "view",
      "type": "function"
    },
    {
      "constant": true,
      "inputs": [],
      "name": "m_url",
      "outputs": [
        {
          "name": "",
          "type": "string"
        }
      ],
      "payable": false,
      "stateMutability": "view",
      "type": "function"
    },
    {
      "constant": true,
      "inputs": [],
      "name": "m_cuit",
      "outputs": [
        {
          "name": "",
          "type": "uint256"
        }
      ],
      "payable": false,
      "stateMutability": "view",
      "type": "function"
    },
    {
      "constant": true,
      "inputs": [],
      "name": "m_owner_valid",
      "outputs": [
        {
          "name": "",
          "type": "bool"
        }
      ],
      "payable": false,
      "stateMutability": "view",
      "type": "function"
    },
    {
      "constant": true,
      "inputs": [],
      "name": "m_nombre",
      "outputs": [
        {
          "name": "",
          "type": "string"
        }
      ],
      "payable": false,
      "stateMutability": "view",
      "type": "function"
    },
    {
      "constant": true,
      "inputs": [],
      "name": "m_beneficiario",
      "outputs": [
        {
          "name": "",
          "type": "address"
        }
      ],
      "payable": false,
      "stateMutability": "view",
      "type": "function"
    },
    {
      "constant": true,
      "inputs": [],
      "name": "m_descripcion",
      "outputs": [
        {
          "name": "",
          "type": "string"
        }
      ],
      "payable": false,
      "stateMutability": "view",
      "type": "function"
    },
    {
      "constant": true,
      "inputs": [],
      "name": "m_fecha",
      "outputs": [
        {
          "name": "",
          "type": "string"
        }
      ],
      "payable": false,
      "stateMutability": "view",
      "type": "function"
    },
    {
      "inputs": [],
      "payable": false,
      "stateMutability": "nonpayable",
      "type": "constructor"
    },
    {
      "anonymous": false,
      "inputs": [
        {
          "indexed": true,
          "name": "from",
          "type": "address"
        },
        {
          "indexed": true,
          "name": "uid",
          "type": "uint256"
        },
        {
          "indexed": false,
          "name": "amount",
          "type": "uint256"
        }
      ],
      "name": "contributionFiled",
      "type": "event"
    },
    {
      "anonymous": false,
      "inputs": [
        {
          "indexed": false,
          "name": "_from",
          "type": "address"
        },
        {
          "indexed": false,
          "name": "_amount",
          "type": "uint256"
        }
      ],
      "name": "receivedFunds",
      "type": "event"
    },
    {
      "anonymous": false,
      "inputs": [
        {
          "indexed": false,
          "name": "beneficiario",
          "type": "address"
        }
      ],
      "name": "beneficiarioSet",
      "type": "event"
    },
    {
      "anonymous": false,
      "inputs": [
        {
          "indexed": false,
          "name": "url",
          "type": "string"
        }
      ],
      "name": "urlSet",
      "type": "event"
    },
    {
      "anonymous": false,
      "inputs": [
        {
          "indexed": false,
          "name": "nombre",
          "type": "string"
        }
      ],
      "name": "nombreSet",
      "type": "event"
    },
    {
      "anonymous": false,
      "inputs": [
        {
          "indexed": false,
          "name": "monto",
          "type": "uint256"
        }
      ],
      "name": "montoSet",
      "type": "event"
    },
    {
      "anonymous": false,
      "inputs": [
        {
          "indexed": false,
          "name": "monto_max",
          "type": "uint256"
        }
      ],
      "name": "montoMaxSet",
      "type": "event"
    },
    {
      "anonymous": false,
      "inputs": [
        {
          "indexed": false,
          "name": "fecha",
          "type": "string"
        }
      ],
      "name": "fechaSet",
      "type": "event"
    },
    {
      "anonymous": false,
      "inputs": [
        {
          "indexed": false,
          "name": "descripcion",
          "type": "string"
        }
      ],
      "name": "descripcionSet",
      "type": "event"
    },
    {
      "anonymous": false,
      "inputs": [
        {
          "indexed": false,
          "name": "cuit",
          "type": "uint256"
        }
      ],
      "name": "cuitSet",
      "type": "event"
    },
    {
      "constant": false,
      "inputs": [
        {
          "name": "uid",
          "type": "uint256"
        }
      ],
      "name": "receiveFunds",
      "outputs": [],
      "payable": true,
      "stateMutability": "payable",
      "type": "function"
    },
    {
      "constant": false,
      "inputs": [
        {
          "name": "beneficiario",
          "type": "address"
        }
      ],
      "name": "setBeneficiario",
      "outputs": [],
      "payable": false,
      "stateMutability": "nonpayable",
      "type": "function"
    },
    {
      "constant": false,
      "inputs": [
        {
          "name": "url",
          "type": "string"
        }
      ],
      "name": "setUrl",
      "outputs": [],
      "payable": false,
      "stateMutability": "nonpayable",
      "type": "function"
    },
    {
      "constant": false,
      "inputs": [
        {
          "name": "nombre",
          "type": "string"
        }
      ],
      "name": "setNombre",
      "outputs": [],
      "payable": false,
      "stateMutability": "nonpayable",
      "type": "function"
    },
    {
      "constant": false,
      "inputs": [
        {
          "name": "monto",
          "type": "uint256"
        }
      ],
      "name": "setMonto",
      "outputs": [],
      "payable": false,
      "stateMutability": "nonpayable",
      "type": "function"
    },
    {
      "constant": false,
      "inputs": [
        {
          "name": "monto_max",
          "type": "uint256"
        }
      ],
      "name": "setMontoMax",
      "outputs": [],
      "payable": false,
      "stateMutability": "nonpayable",
      "type": "function"
    },
    {
      "constant": false,
      "inputs": [
        {
          "name": "fecha",
          "type": "string"
        }
      ],
      "name": "setFecha",
      "outputs": [],
      "payable": false,
      "stateMutability": "nonpayable",
      "type": "function"
    },
    {
      "constant": false,
      "inputs": [
        {
          "name": "descripcion",
          "type": "string"
        }
      ],
      "name": "setDescripcion",
      "outputs": [],
      "payable": false,
      "stateMutability": "nonpayable",
      "type": "function"
    },
    {
      "constant": false,
      "inputs": [
        {
          "name": "cuit",
          "type": "uint256"
        }
      ],
      "name": "setCuit",
      "outputs": [],
      "payable": false,
      "stateMutability": "nonpayable",
      "type": "function"
    },
    {
      "constant": false,
      "inputs": [
        {
          "name": "cnv_addr",
          "type": "address"
        }
      ],
      "name": "setCNVAddress",
      "outputs": [],
      "payable": false,
      "stateMutability": "nonpayable",
      "type": "function"
    },
    {
      "constant": false,
      "inputs": [],
      "name": "setProjectValidity",
      "outputs": [],
      "payable": false,
      "stateMutability": "nonpayable",
      "type": "function"
    }
  ],
  "bytecode": "0x608060405234801561001057600080fd5b50336000806101000a81548173ffffffffffffffffffffffffffffffffffffffff021916908373ffffffffffffffffffffffffffffffffffffffff16021790555060006002819055506000600b60006101000a81548160ff0219169083151502179055506000600b60016101000a81548160ff0219169083151502179055506117a68061009e6000396000f300608060405260043610610132576000357c0100000000000000000000000000000000000000000000000000000000900463ffffffff16806202736b1461013757806306587b49146101a057806306c06343146101b7578063193afc56146101e2578063252498a2146102255780632ad1e71e1461028e5780633ed742ca146102d157806341c0e1b5146102fc5780634eaeff2814610313578063817ff5a61461033e5780638827e09b146103a757806394f61d1c146103c7578063aa44fcd4146103f6578063b01b0c4114610486578063b93b174f146104b1578063bde2acda146104e0578063d3c749d81461050d578063d45795cb1461059d578063de75e16d14610606578063e0ab6acf1461065d578063e898ac8e146106ed578063fc3a17161461077d578063fe305c36146107aa575b600080fd5b34801561014357600080fd5b5061019e600480360381019080803590602001908201803590602001908080601f01602080910402602001604051908101604052809392919081815260200183838082843782019150505050505091929192905050506107d7565b005b3480156101ac57600080fd5b506101b5610906565b005b3480156101c357600080fd5b506101cc610a74565b6040518082815260200191505060405180910390f35b3480156101ee57600080fd5b50610223600480360381019080803573ffffffffffffffffffffffffffffffffffffffff169060200190929190505050610a7a565b005b34801561023157600080fd5b5061028c600480360381019080803590602001908201803590602001908080601f0160208091040260200160405190810160405280939291908181526020018383808284378201915050505050509192919290505050610b9e565b005b34801561029a57600080fd5b506102cf600480360381019080803573ffffffffffffffffffffffffffffffffffffffff169060200190929190505050610ccd565b005b3480156102dd57600080fd5b506102e6610d6c565b6040518082815260200191505060405180910390f35b34801561030857600080fd5b50610311610d72565b005b34801561031f57600080fd5b50610328610e03565b6040518082815260200191505060405180910390f35b34801561034a57600080fd5b506103a5600480360381019080803590602001908201803590602001908080601f0160208091040260200160405190810160405280939291908181526020018383808284378201915050505050509192919290505050610e09565b005b6103c560048036038101908080359060200190929190505050610f38565b005b3480156103d357600080fd5b506103dc611102565b604051808215151515815260200191505060405180910390f35b34801561040257600080fd5b5061040b611115565b6040518080602001828103825283818151815260200191508051906020019080838360005b8381101561044b578082015181840152602081019050610430565b50505050905090810190601f1680156104785780820380516001836020036101000a031916815260200191505b509250505060405180910390f35b34801561049257600080fd5b5061049b6111b3565b6040518082815260200191505060405180910390f35b3480156104bd57600080fd5b506104c66111b9565b604051808215151515815260200191505060405180910390f35b3480156104ec57600080fd5b5061050b600480360381019080803590602001909291905050506111cc565b005b34801561051957600080fd5b5061052261126a565b6040518080602001828103825283818151815260200191508051906020019080838360005b83811015610562578082015181840152602081019050610547565b50505050905090810190601f16801561058f5780820380516001836020036101000a031916815260200191505b509250505060405180910390f35b3480156105a957600080fd5b50610604600480360381019080803590602001908201803590602001908080601f0160208091040260200160405190810160405280939291908181526020018383808284378201915050505050509192919290505050611308565b005b34801561061257600080fd5b5061061b611437565b604051808273ffffffffffffffffffffffffffffffffffffffff1673ffffffffffffffffffffffffffffffffffffffff16815260200191505060405180910390f35b34801561066957600080fd5b5061067261145d565b6040518080602001828103825283818151815260200191508051906020019080838360005b838110156106b2578082015181840152602081019050610697565b50505050905090810190601f1680156106df5780820380516001836020036101000a031916815260200191505b509250505060405180910390f35b3480156106f957600080fd5b506107026114fb565b6040518080602001828103825283818151815260200191508051906020019080838360005b83811015610742578082015181840152602081019050610727565b50505050905090810190601f16801561076f5780820380516001836020036101000a031916815260200191505b509250505060405180910390f35b34801561078957600080fd5b506107a860048036038101908080359060200190929190505050611599565b005b3480156107b657600080fd5b506107d560048036038101908080359060200190929190505050611637565b005b6000809054906101000a900473ffffffffffffffffffffffffffffffffffffffff1673ffffffffffffffffffffffffffffffffffffffff163373ffffffffffffffffffffffffffffffffffffffff1614151561083257600080fd5b80600590805190602001906108489291906116d5565b507fc71c2644179666c228fa56e641bc2d6f6945a954d8857b2f64b4c0ec6898faef600560405180806020018281038252838181546001816001161561010002031660029004815260200191508054600181600116156101000203166002900480156108f55780601f106108ca576101008083540402835291602001916108f5565b820191906000526020600020905b8154815290600101906020018083116108d857829003601f168201915b50509250505060405180910390a150565b6000809054906101000a900473ffffffffffffffffffffffffffffffffffffffff1673ffffffffffffffffffffffffffffffffffffffff163373ffffffffffffffffffffffffffffffffffffffff1614151561096157600080fd5b600160009054906101000a900473ffffffffffffffffffffffffffffffffffffffff1673ffffffffffffffffffffffffffffffffffffffff16639a749171306040518263ffffffff167c0100000000000000000000000000000000000000000000000000000000028152600401808273ffffffffffffffffffffffffffffffffffffffff1673ffffffffffffffffffffffffffffffffffffffff168152602001915050602060405180830381600087803b158015610a1e57600080fd5b505af1158015610a32573d6000803e3d6000fd5b505050506040513d6020811015610a4857600080fd5b8101908080519060200190929190505050600b60006101000a81548160ff021916908315150217905550565b60065481565b6000809054906101000a900473ffffffffffffffffffffffffffffffffffffffff1673ffffffffffffffffffffffffffffffffffffffff163373ffffffffffffffffffffffffffffffffffffffff16141515610ad557600080fd5b80600360006101000a81548173ffffffffffffffffffffffffffffffffffffffff021916908373ffffffffffffffffffffffffffffffffffffffff1602179055507f839d4499d7a59a2a3e8caefa68e6fa56efe72448bded2ef3394eb8dc0791c014600360009054906101000a900473ffffffffffffffffffffffffffffffffffffffff16604051808273ffffffffffffffffffffffffffffffffffffffff1673ffffffffffffffffffffffffffffffffffffffff16815260200191505060405180910390a150565b6000809054906101000a900473ffffffffffffffffffffffffffffffffffffffff1673ffffffffffffffffffffffffffffffffffffffff163373ffffffffffffffffffffffffffffffffffffffff16141515610bf957600080fd5b8060049080519060200190610c0f9291906116d5565b507f9db0119a744a0f7b8709b1586d61275999f138f86077631c22039b9027d2863760046040518080602001828103825283818154600181600116156101000203166002900481526020019150805460018160011615610100020316600290048015610cbc5780601f10610c9157610100808354040283529160200191610cbc565b820191906000526020600020905b815481529060010190602001808311610c9f57829003601f168201915b50509250505060405180910390a150565b6000809054906101000a900473ffffffffffffffffffffffffffffffffffffffff1673ffffffffffffffffffffffffffffffffffffffff163373ffffffffffffffffffffffffffffffffffffffff16141515610d2857600080fd5b80600160006101000a81548173ffffffffffffffffffffffffffffffffffffffff021916908373ffffffffffffffffffffffffffffffffffffffff16021790555050565b60025481565b6000809054906101000a900473ffffffffffffffffffffffffffffffffffffffff1673ffffffffffffffffffffffffffffffffffffffff163373ffffffffffffffffffffffffffffffffffffffff161415610e01576000809054906101000a900473ffffffffffffffffffffffffffffffffffffffff1673ffffffffffffffffffffffffffffffffffffffff16ff5b565b60075481565b6000809054906101000a900473ffffffffffffffffffffffffffffffffffffffff1673ffffffffffffffffffffffffffffffffffffffff163373ffffffffffffffffffffffffffffffffffffffff16141515610e6457600080fd5b8060089080519060200190610e7a9291906116d5565b507fcd629a4f10aa26a80a9e2d3567cfea83e32013497affdc9c3f7b49438dd2590760086040518080602001828103825283818154600181600116156101000203166002900481526020019150805460018160011615610100020316600290048015610f275780601f10610efc57610100808354040283529160200191610f27565b820191906000526020600020905b815481529060010190602001808311610f0a57829003601f168201915b50509250505060405180910390a150565b6000341115610fad577f3f638da77ee3d49db2211092b965c9c7c2fcb68fea5e8f85986200f8776f6a1d3334604051808373ffffffffffffffffffffffffffffffffffffffff1673ffffffffffffffffffffffffffffffffffffffff1681526020018281526020019250505060405180910390a15b6002600081548092919060010191905055506060604051908101604052803373ffffffffffffffffffffffffffffffffffffffff16815260200182815260200134815250600c6000600254815260200190815260200160002060008201518160000160006101000a81548173ffffffffffffffffffffffffffffffffffffffff021916908373ffffffffffffffffffffffffffffffffffffffff1602179055506020820151816001015560408201518160020155905050803373ffffffffffffffffffffffffffffffffffffffff167fbb7c95956eba9b5055c595e4f650eeb4af09c486b474ab1bc200a3a7eaf417de346040518082815260200191505060405180910390a36040805190810160405280600481526020017f5065706500000000000000000000000000000000000000000000000000000000815250600590805190602001906110fe9291906116d5565b5050565b600b60009054906101000a900460ff1681565b60048054600181600116156101000203166002900480601f0160208091040260200160405190810160405280929190818152602001828054600181600116156101000203166002900480156111ab5780601f10611180576101008083540402835291602001916111ab565b820191906000526020600020905b81548152906001019060200180831161118e57829003601f168201915b505050505081565b600a5481565b600b60019054906101000a900460ff1681565b6000809054906101000a900473ffffffffffffffffffffffffffffffffffffffff1673ffffffffffffffffffffffffffffffffffffffff163373ffffffffffffffffffffffffffffffffffffffff1614151561122757600080fd5b80600a819055507fb7746e669a746645aa4028b54668021861838111c88f67ae39a667d09bf92b4d600a546040518082815260200191505060405180910390a150565b60058054600181600116156101000203166002900480601f0160208091040260200160405190810160405280929190818152602001828054600181600116156101000203166002900480156113005780601f106112d557610100808354040283529160200191611300565b820191906000526020600020905b8154815290600101906020018083116112e357829003601f168201915b505050505081565b6000809054906101000a900473ffffffffffffffffffffffffffffffffffffffff1673ffffffffffffffffffffffffffffffffffffffff163373ffffffffffffffffffffffffffffffffffffffff1614151561136357600080fd5b80600990805190602001906113799291906116d5565b507f463e27b451223a222fe2d62c3c9614c754e3c0028bec5d73188c03cba5f9f09f600960405180806020018281038252838181546001816001161561010002031660029004815260200191508054600181600116156101000203166002900480156114265780601f106113fb57610100808354040283529160200191611426565b820191906000526020600020905b81548152906001019060200180831161140957829003601f168201915b50509250505060405180910390a150565b600360009054906101000a900473ffffffffffffffffffffffffffffffffffffffff1681565b60098054600181600116156101000203166002900480601f0160208091040260200160405190810160405280929190818152602001828054600181600116156101000203166002900480156114f35780601f106114c8576101008083540402835291602001916114f3565b820191906000526020600020905b8154815290600101906020018083116114d657829003601f168201915b505050505081565b60088054600181600116156101000203166002900480601f0160208091040260200160405190810160405280929190818152602001828054600181600116156101000203166002900480156115915780601f1061156657610100808354040283529160200191611591565b820191906000526020600020905b81548152906001019060200180831161157457829003601f168201915b505050505081565b6000809054906101000a900473ffffffffffffffffffffffffffffffffffffffff1673ffffffffffffffffffffffffffffffffffffffff163373ffffffffffffffffffffffffffffffffffffffff161415156115f457600080fd5b806007819055507f35d2c3056affd324e5095b3adf0b54d8f40292417c379911e21bc6d7d9ba9ff26007546040518082815260200191505060405180910390a150565b6000809054906101000a900473ffffffffffffffffffffffffffffffffffffffff1673ffffffffffffffffffffffffffffffffffffffff163373ffffffffffffffffffffffffffffffffffffffff1614151561169257600080fd5b806006819055507fc3f457ddc0b2fa1c765c0f3752c077176c334a00fc67bde505222e7735fa474b6006546040518082815260200191505060405180910390a150565b828054600181600116156101000203166002900490600052602060002090601f016020900481019282601f1061171657805160ff1916838001178555611744565b82800160010185558215611744579182015b82811115611743578251825591602001919060010190611728565b5b5090506117519190611755565b5090565b61177791905b8082111561177357600081600090555060010161175b565b5090565b905600a165627a7a72305820107cf5d1dd24cf908f1eca5a9224f4b0b23570796e6a6d4cf641ad31f4c11e9f0029",
  "source": "pragma solidity ^0.4.17;\n\nimport './mortal.sol';\nimport './CNV.sol';\n\ncontract ContratoSAS is mortal {\n\n    CNV cnv;\n\n    /* Events */\n    event contributionFiled(address indexed from, uint256 indexed uid, uint256 amount);\n    event receivedFunds(address _from, uint256 _amount);\n    event beneficiarioSet(address beneficiario);\n    event urlSet(string url);\n    event nombreSet(string nombre);\n    event montoSet(uint256 monto);\n    event montoMaxSet(uint256 monto_max);\n    event fechaSet(string fecha);\n    event descripcionSet(string descripcion);\n    event cuitSet(uint cuit);\n    /* event uidSet(uint uid); */\n\n    struct Contribution {\n        address _from;\n        uint256 _uid;\n        uint256 _amount;\n    }\n\n    uint public    contribution_counter;\n    address public m_beneficiario;\n    string public  m_url;\n    string public  m_nombre;\n    uint256 public m_monto;\n    uint256 public m_monto_max;\n    string public  m_fecha;\n    string public  m_descripcion;\n    uint public    m_cuit;\n    bool public    m_project_valid;\n    bool public    m_owner_valid;\n    /* uint public    m_uid; */\n\n    mapping(uint => Contribution) m_contributions;\n\n    constructor() public {\n      contribution_counter = 0;\n      m_project_valid = false;\n      m_owner_valid = false;\n    }\n    /* constructor(address beneficiario, string url, string nombre, uint256 monto, uint256 monto_max, string fecha, string descripcion, uint cuit) public {\n      contribution_counter = 0;\n      m_beneficiario = beneficiario;\n      m_url = url;\n      m_nombre = nombre;\n      m_monto = monto;\n      m_monto_max = monto_max;\n      m_fecha = fecha;\n      m_descripcion = descripcion;\n      m_cuit = cuit;\n      m_project_valid = false;\n      m_owner_valid = false;\n    } */\n\n    function receiveFunds(uint uid) payable public {\n        /* Receive amount */\n        if(msg.value > 0) {\n            emit receivedFunds(msg.sender, msg.value);\n        }\n        /* File contribution*/\n        contribution_counter++;\n        m_contributions[contribution_counter] = Contribution(msg.sender, uid, msg.value);\n        emit contributionFiled(msg.sender, uid, msg.value);\n\n        m_nombre = 'Pepe';\n    }\n\n    /*function getNombre() public returns (string) {\n        return m_nombre;\n    }*/\n\n    /* Setea el beneficiario de la SAS/proyecto */\n    function setBeneficiario(address beneficiario) onlyowner public {\n        m_beneficiario = beneficiario;\n        emit beneficiarioSet(m_beneficiario);\n    }\n\n    /* Setea el url de la SAS/proyecto */\n    function setUrl(string url) onlyowner public {\n        m_url = url;\n        emit urlSet(m_url);\n    }\n\n    /* Setea el nombre de la SAS/proyecto */\n    function setNombre(string nombre) onlyowner public {\n        m_nombre = nombre;\n        emit nombreSet(m_nombre);\n    }\n\n    /* Setea el monto de la SAS/proyecto */\n    function setMonto(uint256 monto) onlyowner public {\n        m_monto = monto;\n        emit montoSet(m_monto);\n    }\n\n    /* Setea el monto max de la SAS/proyecto */\n    function setMontoMax(uint256 monto_max) onlyowner public {\n        m_monto_max = monto_max;\n        emit montoMaxSet(m_monto_max);\n    }\n\n    /* Setea la fecha de la SAS/proyecto */\n    function setFecha(string fecha) onlyowner public {\n        m_fecha = fecha;\n        emit fechaSet(m_fecha);\n    }\n\n    /* Setea la descripcion de la SAS/proyecto */\n    function setDescripcion(string descripcion) onlyowner public {\n        m_descripcion = descripcion;\n        emit descripcionSet(m_descripcion);\n    }\n\n    /* Setea el CUIT de la SAS/proyecto */\n    function setCuit(uint cuit) onlyowner public {\n        m_cuit = cuit;\n        emit cuitSet(m_cuit);\n    }\n\n    function setCNVAddress(address cnv_addr) onlyowner public {\n      cnv = CNV(cnv_addr);\n    }\n\n    function setProjectValidity() onlyowner public {\n      m_project_valid = cnv.isProjectValid(address(this));\n    }\n\n    /* Setea el uid de la SAS/proyecto */\n    /* function setUid(uint uid) onlyowner public {\n        m_uid = uid;\n        emit uidSet(m_uid);\n    } */\n\n    /* TODO: Fill in function or get from frontend */\n    /*function getUserId() private returns (uint) {\n        return 1;\n    }*/\n\n    /* m_project_valid = cnv_addr.call(bytes4(keccak256(\"isProjectValid(address)\")), address(this)); */\n}\n",
  "sourcePath": "/home/ivan/MacherIT/Ethereum/fiblo/contracts/ContratoSAS.sol",
  "compiler": {
    "name": "solc",
    "version": "0.4.24+commit.e67f0147.Emscripten.clang"
  },
  "schemaVersion": "2.0.1",
  "updatedAt": "2019-01-28T16:47:20.775Z"
}