{
  "contractName": "ContratoSAS",
  "abi": [
    {
      "constant": true,
      "inputs": [],
      "name": "m_monto",
      "outputs": [
        {
          "name": "",
          "type": "uint256"
        }
      ],
      "payable": false,
      "stateMutability": "view",
      "type": "function"
    },
    {
      "constant": true,
      "inputs": [],
      "name": "contribution_counter",
      "outputs": [
        {
          "name": "",
          "type": "uint256"
        }
      ],
      "payable": false,
      "stateMutability": "view",
      "type": "function"
    },
    {
      "constant": false,
      "inputs": [],
      "name": "kill",
      "outputs": [],
      "payable": false,
      "stateMutability": "nonpayable",
      "type": "function"
    },
    {
      "constant": true,
      "inputs": [],
      "name": "m_monto_max",
      "outputs": [
        {
          "name": "",
          "type": "uint256"
        }
      ],
      "payable": false,
      "stateMutability": "view",
      "type": "function"
    },
    {
      "constant": true,
      "inputs": [],
      "name": "m_url",
      "outputs": [
        {
          "name": "",
          "type": "string"
        }
      ],
      "payable": false,
      "stateMutability": "view",
      "type": "function"
    },
    {
      "constant": true,
      "inputs": [],
      "name": "m_cuit",
      "outputs": [
        {
          "name": "",
          "type": "uint256"
        }
      ],
      "payable": false,
      "stateMutability": "view",
      "type": "function"
    },
    {
      "constant": true,
      "inputs": [],
      "name": "m_nombre",
      "outputs": [
        {
          "name": "",
          "type": "string"
        }
      ],
      "payable": false,
      "stateMutability": "view",
      "type": "function"
    },
    {
      "constant": true,
      "inputs": [],
      "name": "m_beneficiario",
      "outputs": [
        {
          "name": "",
          "type": "address"
        }
      ],
      "payable": false,
      "stateMutability": "view",
      "type": "function"
    },
    {
      "constant": true,
      "inputs": [],
      "name": "m_descripcion",
      "outputs": [
        {
          "name": "",
          "type": "string"
        }
      ],
      "payable": false,
      "stateMutability": "view",
      "type": "function"
    },
    {
      "constant": true,
      "inputs": [],
      "name": "m_fecha",
      "outputs": [
        {
          "name": "",
          "type": "string"
        }
      ],
      "payable": false,
      "stateMutability": "view",
      "type": "function"
    },
    {
      "anonymous": false,
      "inputs": [
        {
          "indexed": true,
          "name": "from",
          "type": "address"
        },
        {
          "indexed": true,
          "name": "uid",
          "type": "uint256"
        },
        {
          "indexed": false,
          "name": "amount",
          "type": "uint256"
        }
      ],
      "name": "contributionFiled",
      "type": "event"
    },
    {
      "anonymous": false,
      "inputs": [
        {
          "indexed": false,
          "name": "_from",
          "type": "address"
        },
        {
          "indexed": false,
          "name": "_amount",
          "type": "uint256"
        }
      ],
      "name": "receivedFunds",
      "type": "event"
    },
    {
      "anonymous": false,
      "inputs": [
        {
          "indexed": false,
          "name": "beneficiario",
          "type": "address"
        }
      ],
      "name": "beneficiarioSet",
      "type": "event"
    },
    {
      "anonymous": false,
      "inputs": [
        {
          "indexed": false,
          "name": "url",
          "type": "string"
        }
      ],
      "name": "urlSet",
      "type": "event"
    },
    {
      "anonymous": false,
      "inputs": [
        {
          "indexed": false,
          "name": "nombre",
          "type": "string"
        }
      ],
      "name": "nombreSet",
      "type": "event"
    },
    {
      "anonymous": false,
      "inputs": [
        {
          "indexed": false,
          "name": "monto",
          "type": "uint256"
        }
      ],
      "name": "montoSet",
      "type": "event"
    },
    {
      "anonymous": false,
      "inputs": [
        {
          "indexed": false,
          "name": "monto_max",
          "type": "uint256"
        }
      ],
      "name": "montoMaxSet",
      "type": "event"
    },
    {
      "anonymous": false,
      "inputs": [
        {
          "indexed": false,
          "name": "fecha",
          "type": "string"
        }
      ],
      "name": "fechaSet",
      "type": "event"
    },
    {
      "anonymous": false,
      "inputs": [
        {
          "indexed": false,
          "name": "descripcion",
          "type": "string"
        }
      ],
      "name": "descripcionSet",
      "type": "event"
    },
    {
      "anonymous": false,
      "inputs": [
        {
          "indexed": false,
          "name": "cuit",
          "type": "uint256"
        }
      ],
      "name": "cuitSet",
      "type": "event"
    },
    {
      "constant": false,
      "inputs": [
        {
          "name": "uid",
          "type": "uint256"
        }
      ],
      "name": "receiveFunds",
      "outputs": [],
      "payable": true,
      "stateMutability": "payable",
      "type": "function"
    },
    {
      "constant": false,
      "inputs": [
        {
          "name": "beneficiario",
          "type": "address"
        }
      ],
      "name": "setBeneficiario",
      "outputs": [],
      "payable": false,
      "stateMutability": "nonpayable",
      "type": "function"
    },
    {
      "constant": false,
      "inputs": [
        {
          "name": "url",
          "type": "string"
        }
      ],
      "name": "setUrl",
      "outputs": [],
      "payable": false,
      "stateMutability": "nonpayable",
      "type": "function"
    },
    {
      "constant": false,
      "inputs": [
        {
          "name": "nombre",
          "type": "string"
        }
      ],
      "name": "setNombre",
      "outputs": [],
      "payable": false,
      "stateMutability": "nonpayable",
      "type": "function"
    },
    {
      "constant": false,
      "inputs": [
        {
          "name": "monto",
          "type": "uint256"
        }
      ],
      "name": "setMonto",
      "outputs": [],
      "payable": false,
      "stateMutability": "nonpayable",
      "type": "function"
    },
    {
      "constant": false,
      "inputs": [
        {
          "name": "monto_max",
          "type": "uint256"
        }
      ],
      "name": "setMontoMax",
      "outputs": [],
      "payable": false,
      "stateMutability": "nonpayable",
      "type": "function"
    },
    {
      "constant": false,
      "inputs": [
        {
          "name": "fecha",
          "type": "string"
        }
      ],
      "name": "setFecha",
      "outputs": [],
      "payable": false,
      "stateMutability": "nonpayable",
      "type": "function"
    },
    {
      "constant": false,
      "inputs": [
        {
          "name": "descripcion",
          "type": "string"
        }
      ],
      "name": "setDescripcion",
      "outputs": [],
      "payable": false,
      "stateMutability": "nonpayable",
      "type": "function"
    },
    {
      "constant": false,
      "inputs": [
        {
          "name": "cuit",
          "type": "uint256"
        }
      ],
      "name": "setCuit",
      "outputs": [],
      "payable": false,
      "stateMutability": "nonpayable",
      "type": "function"
    }
  ],
  "bytecode": "0x6080604052336000806101000a81548173ffffffffffffffffffffffffffffffffffffffff021916908373ffffffffffffffffffffffffffffffffffffffff16021790555061148f806100536000396000f300608060405260043610610106576000357c0100000000000000000000000000000000000000000000000000000000900463ffffffff16806202736b1461010b57806306c0634314610174578063193afc561461019f578063252498a2146101e25780633ed742ca1461024b57806341c0e1b5146102765780634eaeff281461028d578063817ff5a6146102b85780638827e09b14610321578063aa44fcd414610341578063b01b0c41146103d1578063bde2acda146103fc578063d3c749d814610429578063d45795cb146104b9578063de75e16d14610522578063e0ab6acf14610579578063e898ac8e14610609578063fc3a171614610699578063fe305c36146106c6575b600080fd5b34801561011757600080fd5b50610172600480360381019080803590602001908201803590602001908080601f01602080910402602001604051908101604052809392919081815260200183838082843782019150505050505091929192905050506106f3565b005b34801561018057600080fd5b50610189610822565b6040518082815260200191505060405180910390f35b3480156101ab57600080fd5b506101e0600480360381019080803573ffffffffffffffffffffffffffffffffffffffff169060200190929190505050610828565b005b3480156101ee57600080fd5b50610249600480360381019080803590602001908201803590602001908080601f016020809104026020016040519081016040528093929190818152602001838380828437820191505050505050919291929050505061094c565b005b34801561025757600080fd5b50610260610a7b565b6040518082815260200191505060405180910390f35b34801561028257600080fd5b5061028b610a81565b005b34801561029957600080fd5b506102a2610b12565b6040518082815260200191505060405180910390f35b3480156102c457600080fd5b5061031f600480360381019080803590602001908201803590602001908080601f0160208091040260200160405190810160405280939291908181526020018383808284378201915050505050509192919290505050610b18565b005b61033f60048036038101908080359060200190929190505050610c47565b005b34801561034d57600080fd5b50610356610e11565b6040518080602001828103825283818151815260200191508051906020019080838360005b8381101561039657808201518184015260208101905061037b565b50505050905090810190601f1680156103c35780820380516001836020036101000a031916815260200191505b509250505060405180910390f35b3480156103dd57600080fd5b506103e6610eaf565b6040518082815260200191505060405180910390f35b34801561040857600080fd5b5061042760048036038101908080359060200190929190505050610eb5565b005b34801561043557600080fd5b5061043e610f53565b6040518080602001828103825283818151815260200191508051906020019080838360005b8381101561047e578082015181840152602081019050610463565b50505050905090810190601f1680156104ab5780820380516001836020036101000a031916815260200191505b509250505060405180910390f35b3480156104c557600080fd5b50610520600480360381019080803590602001908201803590602001908080601f0160208091040260200160405190810160405280939291908181526020018383808284378201915050505050509192919290505050610ff1565b005b34801561052e57600080fd5b50610537611120565b604051808273ffffffffffffffffffffffffffffffffffffffff1673ffffffffffffffffffffffffffffffffffffffff16815260200191505060405180910390f35b34801561058557600080fd5b5061058e611146565b6040518080602001828103825283818151815260200191508051906020019080838360005b838110156105ce5780820151818401526020810190506105b3565b50505050905090810190601f1680156105fb5780820380516001836020036101000a031916815260200191505b509250505060405180910390f35b34801561061557600080fd5b5061061e6111e4565b6040518080602001828103825283818151815260200191508051906020019080838360005b8381101561065e578082015181840152602081019050610643565b50505050905090810190601f16801561068b5780820380516001836020036101000a031916815260200191505b509250505060405180910390f35b3480156106a557600080fd5b506106c460048036038101908080359060200190929190505050611282565b005b3480156106d257600080fd5b506106f160048036038101908080359060200190929190505050611320565b005b6000809054906101000a900473ffffffffffffffffffffffffffffffffffffffff1673ffffffffffffffffffffffffffffffffffffffff163373ffffffffffffffffffffffffffffffffffffffff1614151561074e57600080fd5b80600490805190602001906107649291906113be565b507fc71c2644179666c228fa56e641bc2d6f6945a954d8857b2f64b4c0ec6898faef600460405180806020018281038252838181546001816001161561010002031660029004815260200191508054600181600116156101000203166002900480156108115780601f106107e657610100808354040283529160200191610811565b820191906000526020600020905b8154815290600101906020018083116107f457829003601f168201915b50509250505060405180910390a150565b60055481565b6000809054906101000a900473ffffffffffffffffffffffffffffffffffffffff1673ffffffffffffffffffffffffffffffffffffffff163373ffffffffffffffffffffffffffffffffffffffff1614151561088357600080fd5b80600260006101000a81548173ffffffffffffffffffffffffffffffffffffffff021916908373ffffffffffffffffffffffffffffffffffffffff1602179055507f839d4499d7a59a2a3e8caefa68e6fa56efe72448bded2ef3394eb8dc0791c014600260009054906101000a900473ffffffffffffffffffffffffffffffffffffffff16604051808273ffffffffffffffffffffffffffffffffffffffff1673ffffffffffffffffffffffffffffffffffffffff16815260200191505060405180910390a150565b6000809054906101000a900473ffffffffffffffffffffffffffffffffffffffff1673ffffffffffffffffffffffffffffffffffffffff163373ffffffffffffffffffffffffffffffffffffffff161415156109a757600080fd5b80600390805190602001906109bd9291906113be565b507f9db0119a744a0f7b8709b1586d61275999f138f86077631c22039b9027d2863760036040518080602001828103825283818154600181600116156101000203166002900481526020019150805460018160011615610100020316600290048015610a6a5780601f10610a3f57610100808354040283529160200191610a6a565b820191906000526020600020905b815481529060010190602001808311610a4d57829003601f168201915b50509250505060405180910390a150565b60015481565b6000809054906101000a900473ffffffffffffffffffffffffffffffffffffffff1673ffffffffffffffffffffffffffffffffffffffff163373ffffffffffffffffffffffffffffffffffffffff161415610b10576000809054906101000a900473ffffffffffffffffffffffffffffffffffffffff1673ffffffffffffffffffffffffffffffffffffffff16ff5b565b60065481565b6000809054906101000a900473ffffffffffffffffffffffffffffffffffffffff1673ffffffffffffffffffffffffffffffffffffffff163373ffffffffffffffffffffffffffffffffffffffff16141515610b7357600080fd5b8060079080519060200190610b899291906113be565b507fcd629a4f10aa26a80a9e2d3567cfea83e32013497affdc9c3f7b49438dd2590760076040518080602001828103825283818154600181600116156101000203166002900481526020019150805460018160011615610100020316600290048015610c365780601f10610c0b57610100808354040283529160200191610c36565b820191906000526020600020905b815481529060010190602001808311610c1957829003601f168201915b50509250505060405180910390a150565b6000341115610cbc577f3f638da77ee3d49db2211092b965c9c7c2fcb68fea5e8f85986200f8776f6a1d3334604051808373ffffffffffffffffffffffffffffffffffffffff1673ffffffffffffffffffffffffffffffffffffffff1681526020018281526020019250505060405180910390a15b6001600081548092919060010191905055506060604051908101604052803373ffffffffffffffffffffffffffffffffffffffff16815260200182815260200134815250600a6000600154815260200190815260200160002060008201518160000160006101000a81548173ffffffffffffffffffffffffffffffffffffffff021916908373ffffffffffffffffffffffffffffffffffffffff1602179055506020820151816001015560408201518160020155905050803373ffffffffffffffffffffffffffffffffffffffff167fbb7c95956eba9b5055c595e4f650eeb4af09c486b474ab1bc200a3a7eaf417de346040518082815260200191505060405180910390a36040805190810160405280600481526020017f506570650000000000000000000000000000000000000000000000000000000081525060049080519060200190610e0d9291906113be565b5050565b60038054600181600116156101000203166002900480601f016020809104026020016040519081016040528092919081815260200182805460018160011615610100020316600290048015610ea75780601f10610e7c57610100808354040283529160200191610ea7565b820191906000526020600020905b815481529060010190602001808311610e8a57829003601f168201915b505050505081565b60095481565b6000809054906101000a900473ffffffffffffffffffffffffffffffffffffffff1673ffffffffffffffffffffffffffffffffffffffff163373ffffffffffffffffffffffffffffffffffffffff16141515610f1057600080fd5b806009819055507fb7746e669a746645aa4028b54668021861838111c88f67ae39a667d09bf92b4d6009546040518082815260200191505060405180910390a150565b60048054600181600116156101000203166002900480601f016020809104026020016040519081016040528092919081815260200182805460018160011615610100020316600290048015610fe95780601f10610fbe57610100808354040283529160200191610fe9565b820191906000526020600020905b815481529060010190602001808311610fcc57829003601f168201915b505050505081565b6000809054906101000a900473ffffffffffffffffffffffffffffffffffffffff1673ffffffffffffffffffffffffffffffffffffffff163373ffffffffffffffffffffffffffffffffffffffff1614151561104c57600080fd5b80600890805190602001906110629291906113be565b507f463e27b451223a222fe2d62c3c9614c754e3c0028bec5d73188c03cba5f9f09f6008604051808060200182810382528381815460018160011615610100020316600290048152602001915080546001816001161561010002031660029004801561110f5780601f106110e45761010080835404028352916020019161110f565b820191906000526020600020905b8154815290600101906020018083116110f257829003601f168201915b50509250505060405180910390a150565b600260009054906101000a900473ffffffffffffffffffffffffffffffffffffffff1681565b60088054600181600116156101000203166002900480601f0160208091040260200160405190810160405280929190818152602001828054600181600116156101000203166002900480156111dc5780601f106111b1576101008083540402835291602001916111dc565b820191906000526020600020905b8154815290600101906020018083116111bf57829003601f168201915b505050505081565b60078054600181600116156101000203166002900480601f01602080910402602001604051908101604052809291908181526020018280546001816001161561010002031660029004801561127a5780601f1061124f5761010080835404028352916020019161127a565b820191906000526020600020905b81548152906001019060200180831161125d57829003601f168201915b505050505081565b6000809054906101000a900473ffffffffffffffffffffffffffffffffffffffff1673ffffffffffffffffffffffffffffffffffffffff163373ffffffffffffffffffffffffffffffffffffffff161415156112dd57600080fd5b806006819055507f35d2c3056affd324e5095b3adf0b54d8f40292417c379911e21bc6d7d9ba9ff26006546040518082815260200191505060405180910390a150565b6000809054906101000a900473ffffffffffffffffffffffffffffffffffffffff1673ffffffffffffffffffffffffffffffffffffffff163373ffffffffffffffffffffffffffffffffffffffff1614151561137b57600080fd5b806005819055507fc3f457ddc0b2fa1c765c0f3752c077176c334a00fc67bde505222e7735fa474b6005546040518082815260200191505060405180910390a150565b828054600181600116156101000203166002900490600052602060002090601f016020900481019282601f106113ff57805160ff191683800117855561142d565b8280016001018555821561142d579182015b8281111561142c578251825591602001919060010190611411565b5b50905061143a919061143e565b5090565b61146091905b8082111561145c576000816000905550600101611444565b5090565b905600a165627a7a72305820d7713833aa4c2c4c4199a6e6653200f8189339679b0ea38b68f6684fd1fa931b0029",
  "source": "pragma solidity ^0.4.17;\n\nimport './mortal.sol';\n\ncontract ContratoSAS is mortal {\n    /* Events */\n    event contributionFiled(address indexed from, uint256 indexed uid, uint256 amount);\n    event receivedFunds(address _from, uint256 _amount);\n    event beneficiarioSet(address beneficiario);\n    event urlSet(string url);\n    event nombreSet(string nombre);\n    event montoSet(uint256 monto);\n    event montoMaxSet(uint256 monto_max);\n    event fechaSet(string fecha);\n    event descripcionSet(string descripcion);\n    event cuitSet(uint cuit);\n    /* event uidSet(uint uid); */\n\n    struct Contribution {\n        address _from;\n        uint256 _uid;\n        uint256 _amount;\n    }\n\n    uint public    contribution_counter;\n    address public m_beneficiario;\n    string public  m_url;\n    string public  m_nombre;\n    uint256 public m_monto;\n    uint256 public m_monto_max;\n    string public  m_fecha;\n    string public  m_descripcion;\n    uint public    m_cuit;\n    /* uint public    m_uid; */\n\n    mapping(uint => Contribution) m_contributions;\n\n    function receiveFunds(uint uid) payable public {\n        /* Receive amount */\n        if(msg.value > 0) {\n            emit receivedFunds(msg.sender, msg.value);\n        }\n        /* File contribution*/\n        contribution_counter++;\n        m_contributions[contribution_counter] = Contribution(msg.sender, uid, msg.value);\n        emit contributionFiled(msg.sender, uid, msg.value);\n\n        m_nombre = 'Pepe';\n    }\n\n    /*function getNombre() public returns (string) {\n        return m_nombre;\n    }*/\n\n    /* Setea el beneficiario de la SAS/proyecto */\n    function setBeneficiario(address beneficiario) onlyowner public {\n        m_beneficiario = beneficiario;\n        emit beneficiarioSet(m_beneficiario);\n    }\n\n    /* Setea el url de la SAS/proyecto */\n    function setUrl(string url) onlyowner public {\n        m_url = url;\n        emit urlSet(m_url);\n    }\n\n    /* Setea el nombre de la SAS/proyecto */\n    function setNombre(string nombre) onlyowner public {\n        m_nombre = nombre;\n        emit nombreSet(m_nombre);\n    }\n\n    /* Setea el monto de la SAS/proyecto */\n    function setMonto(uint256 monto) onlyowner public {\n        m_monto = monto;\n        emit montoSet(m_monto);\n    }\n\n    /* Setea el monto max de la SAS/proyecto */\n    function setMontoMax(uint256 monto_max) onlyowner public {\n        m_monto_max = monto_max;\n        emit montoMaxSet(m_monto_max);\n    }\n\n    /* Setea la fecha de la SAS/proyecto */\n    function setFecha(string fecha) onlyowner public {\n        m_fecha = fecha;\n        emit fechaSet(m_fecha);\n    }\n\n    /* Setea la descripcion de la SAS/proyecto */\n    function setDescripcion(string descripcion) onlyowner public {\n        m_descripcion = descripcion;\n        emit descripcionSet(m_descripcion);\n    }\n\n    /* Setea el CUIT de la SAS/proyecto */\n    function setCuit(uint cuit) onlyowner public {\n        m_cuit = cuit;\n        emit cuitSet(m_cuit);\n    }\n\n    /* Setea el uid de la SAS/proyecto */\n    /* function setUid(uint uid) onlyowner public {\n        m_uid = uid;\n        emit uidSet(m_uid);\n    } */\n\n    /* TODO: Fill in function or get from frontend */\n    /*function getUserId() private returns (uint) {\n        return 1;\n    }*/\n\n}\n",
  "sourcePath": "/home/ivan/MacherIT/Ethereum/fiblo/contracts/ContratoSAS.sol",
  "compiler": {
    "name": "solc",
    "version": "0.4.24+commit.e67f0147.Emscripten.clang"
  },
  "schemaVersion": "2.0.1",
  "updatedAt": "2019-01-28T13:32:06.985Z"
}