{
  "contractName": "ContratoSAS",
  "abi": [
    {
      "constant": true,
      "inputs": [],
      "name": "m_monto",
      "outputs": [
        {
          "name": "",
          "type": "uint256"
        }
      ],
      "payable": false,
      "stateMutability": "view",
      "type": "function"
    },
    {
      "constant": true,
      "inputs": [],
      "name": "contribution_counter",
      "outputs": [
        {
          "name": "",
          "type": "uint256"
        }
      ],
      "payable": false,
      "stateMutability": "view",
      "type": "function"
    },
    {
      "constant": false,
      "inputs": [],
      "name": "kill",
      "outputs": [],
      "payable": false,
      "stateMutability": "nonpayable",
      "type": "function"
    },
    {
      "constant": true,
      "inputs": [],
      "name": "m_uid",
      "outputs": [
        {
          "name": "",
          "type": "uint256"
        }
      ],
      "payable": false,
      "stateMutability": "view",
      "type": "function"
    },
    {
      "constant": true,
      "inputs": [],
      "name": "m_cuit",
      "outputs": [
        {
          "name": "",
          "type": "uint256"
        }
      ],
      "payable": false,
      "stateMutability": "view",
      "type": "function"
    },
    {
      "constant": true,
      "inputs": [],
      "name": "m_nombre",
      "outputs": [
        {
          "name": "",
          "type": "string"
        }
      ],
      "payable": false,
      "stateMutability": "view",
      "type": "function"
    },
    {
      "constant": true,
      "inputs": [],
      "name": "m_descripcion",
      "outputs": [
        {
          "name": "",
          "type": "string"
        }
      ],
      "payable": false,
      "stateMutability": "view",
      "type": "function"
    },
    {
      "constant": true,
      "inputs": [],
      "name": "m_fecha",
      "outputs": [
        {
          "name": "",
          "type": "string"
        }
      ],
      "payable": false,
      "stateMutability": "view",
      "type": "function"
    },
    {
      "anonymous": false,
      "inputs": [
        {
          "indexed": true,
          "name": "from",
          "type": "address"
        },
        {
          "indexed": true,
          "name": "uid",
          "type": "uint256"
        },
        {
          "indexed": false,
          "name": "amount",
          "type": "uint256"
        }
      ],
      "name": "contributionFiled",
      "type": "event"
    },
    {
      "anonymous": false,
      "inputs": [
        {
          "indexed": false,
          "name": "_from",
          "type": "address"
        },
        {
          "indexed": false,
          "name": "_amount",
          "type": "uint256"
        }
      ],
      "name": "receivedFunds",
      "type": "event"
    },
    {
      "anonymous": false,
      "inputs": [
        {
          "indexed": false,
          "name": "nombre",
          "type": "string"
        }
      ],
      "name": "nombreSet",
      "type": "event"
    },
    {
      "anonymous": false,
      "inputs": [
        {
          "indexed": false,
          "name": "monto",
          "type": "uint256"
        }
      ],
      "name": "montoSet",
      "type": "event"
    },
    {
      "anonymous": false,
      "inputs": [
        {
          "indexed": false,
          "name": "fecha",
          "type": "string"
        }
      ],
      "name": "fechaSet",
      "type": "event"
    },
    {
      "anonymous": false,
      "inputs": [
        {
          "indexed": false,
          "name": "descripcion",
          "type": "string"
        }
      ],
      "name": "descripcionSet",
      "type": "event"
    },
    {
      "anonymous": false,
      "inputs": [
        {
          "indexed": false,
          "name": "cuit",
          "type": "uint256"
        }
      ],
      "name": "cuitSet",
      "type": "event"
    },
    {
      "anonymous": false,
      "inputs": [
        {
          "indexed": false,
          "name": "uid",
          "type": "uint256"
        }
      ],
      "name": "uidSet",
      "type": "event"
    },
    {
      "constant": false,
      "inputs": [
        {
          "name": "uid",
          "type": "uint256"
        }
      ],
      "name": "receiveFunds",
      "outputs": [],
      "payable": true,
      "stateMutability": "payable",
      "type": "function"
    },
    {
      "constant": false,
      "inputs": [
        {
          "name": "nombre",
          "type": "string"
        }
      ],
      "name": "setNombre",
      "outputs": [],
      "payable": false,
      "stateMutability": "nonpayable",
      "type": "function"
    },
    {
      "constant": false,
      "inputs": [
        {
          "name": "monto",
          "type": "uint256"
        }
      ],
      "name": "setMonto",
      "outputs": [],
      "payable": false,
      "stateMutability": "nonpayable",
      "type": "function"
    },
    {
      "constant": false,
      "inputs": [
        {
          "name": "fecha",
          "type": "string"
        }
      ],
      "name": "setFecha",
      "outputs": [],
      "payable": false,
      "stateMutability": "nonpayable",
      "type": "function"
    },
    {
      "constant": false,
      "inputs": [
        {
          "name": "descripcion",
          "type": "string"
        }
      ],
      "name": "setDescripcion",
      "outputs": [],
      "payable": false,
      "stateMutability": "nonpayable",
      "type": "function"
    },
    {
      "constant": false,
      "inputs": [
        {
          "name": "cuit",
          "type": "uint256"
        }
      ],
      "name": "setCuit",
      "outputs": [],
      "payable": false,
      "stateMutability": "nonpayable",
      "type": "function"
    },
    {
      "constant": false,
      "inputs": [
        {
          "name": "uid",
          "type": "uint256"
        }
      ],
      "name": "setUid",
      "outputs": [],
      "payable": false,
      "stateMutability": "nonpayable",
      "type": "function"
    }
  ],
  "bytecode": "0x6080604052336000806101000a81548173ffffffffffffffffffffffffffffffffffffffff021916908373ffffffffffffffffffffffffffffffffffffffff160217905550610fb9806100536000396000f3006080604052600436106100da576000357c0100000000000000000000000000000000000000000000000000000000900463ffffffff16806202736b146100df57806306c06343146101485780633ed742ca1461017357806341c0e1b51461019e57806353826f6f146101b5578063817ff5a6146101e25780638827e09b1461024b57806392c1eb9e1461026b578063b01b0c4114610296578063bde2acda146102c1578063d3c749d8146102ee578063d45795cb1461037e578063e0ab6acf146103e7578063e898ac8e14610477578063fe305c3614610507575b600080fd5b3480156100eb57600080fd5b50610146600480360381019080803590602001908201803590602001908080601f0160208091040260200160405190810160405280939291908181526020018383808284378201915050505050509192919290505050610534565b005b34801561015457600080fd5b5061015d610663565b6040518082815260200191505060405180910390f35b34801561017f57600080fd5b50610188610669565b6040518082815260200191505060405180910390f35b3480156101aa57600080fd5b506101b361066f565b005b3480156101c157600080fd5b506101e060048036038101908080359060200190929190505050610700565b005b3480156101ee57600080fd5b50610249600480360381019080803590602001908201803590602001908080601f016020809104026020016040519081016040528093929190818152602001838380828437820191505050505050919291929050505061079e565b005b610269600480360381019080803590602001909291905050506108cd565b005b34801561027757600080fd5b50610280610a97565b6040518082815260200191505060405180910390f35b3480156102a257600080fd5b506102ab610a9d565b6040518082815260200191505060405180910390f35b3480156102cd57600080fd5b506102ec60048036038101908080359060200190929190505050610aa3565b005b3480156102fa57600080fd5b50610303610b41565b6040518080602001828103825283818151815260200191508051906020019080838360005b83811015610343578082015181840152602081019050610328565b50505050905090810190601f1680156103705780820380516001836020036101000a031916815260200191505b509250505060405180910390f35b34801561038a57600080fd5b506103e5600480360381019080803590602001908201803590602001908080601f0160208091040260200160405190810160405280939291908181526020018383808284378201915050505050509192919290505050610bdf565b005b3480156103f357600080fd5b506103fc610d0e565b6040518080602001828103825283818151815260200191508051906020019080838360005b8381101561043c578082015181840152602081019050610421565b50505050905090810190601f1680156104695780820380516001836020036101000a031916815260200191505b509250505060405180910390f35b34801561048357600080fd5b5061048c610dac565b6040518080602001828103825283818151815260200191508051906020019080838360005b838110156104cc5780820151818401526020810190506104b1565b50505050905090810190601f1680156104f95780820380516001836020036101000a031916815260200191505b509250505060405180910390f35b34801561051357600080fd5b5061053260048036038101908080359060200190929190505050610e4a565b005b6000809054906101000a900473ffffffffffffffffffffffffffffffffffffffff1673ffffffffffffffffffffffffffffffffffffffff163373ffffffffffffffffffffffffffffffffffffffff1614151561058f57600080fd5b80600290805190602001906105a5929190610ee8565b507fc71c2644179666c228fa56e641bc2d6f6945a954d8857b2f64b4c0ec6898faef600260405180806020018281038252838181546001816001161561010002031660029004815260200191508054600181600116156101000203166002900480156106525780601f1061062757610100808354040283529160200191610652565b820191906000526020600020905b81548152906001019060200180831161063557829003601f168201915b50509250505060405180910390a150565b60035481565b60015481565b6000809054906101000a900473ffffffffffffffffffffffffffffffffffffffff1673ffffffffffffffffffffffffffffffffffffffff163373ffffffffffffffffffffffffffffffffffffffff1614156106fe576000809054906101000a900473ffffffffffffffffffffffffffffffffffffffff1673ffffffffffffffffffffffffffffffffffffffff16ff5b565b6000809054906101000a900473ffffffffffffffffffffffffffffffffffffffff1673ffffffffffffffffffffffffffffffffffffffff163373ffffffffffffffffffffffffffffffffffffffff1614151561075b57600080fd5b806007819055507fa7ff93251f0e8a08245c79540f961a0bf04a745985522c2d235bc1bd10f53e536007546040518082815260200191505060405180910390a150565b6000809054906101000a900473ffffffffffffffffffffffffffffffffffffffff1673ffffffffffffffffffffffffffffffffffffffff163373ffffffffffffffffffffffffffffffffffffffff161415156107f957600080fd5b806004908051906020019061080f929190610ee8565b507fcd629a4f10aa26a80a9e2d3567cfea83e32013497affdc9c3f7b49438dd25907600460405180806020018281038252838181546001816001161561010002031660029004815260200191508054600181600116156101000203166002900480156108bc5780601f10610891576101008083540402835291602001916108bc565b820191906000526020600020905b81548152906001019060200180831161089f57829003601f168201915b50509250505060405180910390a150565b6000341115610942577f3f638da77ee3d49db2211092b965c9c7c2fcb68fea5e8f85986200f8776f6a1d3334604051808373ffffffffffffffffffffffffffffffffffffffff1673ffffffffffffffffffffffffffffffffffffffff1681526020018281526020019250505060405180910390a15b6001600081548092919060010191905055506060604051908101604052803373ffffffffffffffffffffffffffffffffffffffff1681526020018281526020013481525060086000600154815260200190815260200160002060008201518160000160006101000a81548173ffffffffffffffffffffffffffffffffffffffff021916908373ffffffffffffffffffffffffffffffffffffffff1602179055506020820151816001015560408201518160020155905050803373ffffffffffffffffffffffffffffffffffffffff167fbb7c95956eba9b5055c595e4f650eeb4af09c486b474ab1bc200a3a7eaf417de346040518082815260200191505060405180910390a36040805190810160405280600481526020017f506570650000000000000000000000000000000000000000000000000000000081525060029080519060200190610a93929190610ee8565b5050565b60075481565b60065481565b6000809054906101000a900473ffffffffffffffffffffffffffffffffffffffff1673ffffffffffffffffffffffffffffffffffffffff163373ffffffffffffffffffffffffffffffffffffffff16141515610afe57600080fd5b806006819055507fb7746e669a746645aa4028b54668021861838111c88f67ae39a667d09bf92b4d6006546040518082815260200191505060405180910390a150565b60028054600181600116156101000203166002900480601f016020809104026020016040519081016040528092919081815260200182805460018160011615610100020316600290048015610bd75780601f10610bac57610100808354040283529160200191610bd7565b820191906000526020600020905b815481529060010190602001808311610bba57829003601f168201915b505050505081565b6000809054906101000a900473ffffffffffffffffffffffffffffffffffffffff1673ffffffffffffffffffffffffffffffffffffffff163373ffffffffffffffffffffffffffffffffffffffff16141515610c3a57600080fd5b8060059080519060200190610c50929190610ee8565b507f463e27b451223a222fe2d62c3c9614c754e3c0028bec5d73188c03cba5f9f09f60056040518080602001828103825283818154600181600116156101000203166002900481526020019150805460018160011615610100020316600290048015610cfd5780601f10610cd257610100808354040283529160200191610cfd565b820191906000526020600020905b815481529060010190602001808311610ce057829003601f168201915b50509250505060405180910390a150565b60058054600181600116156101000203166002900480601f016020809104026020016040519081016040528092919081815260200182805460018160011615610100020316600290048015610da45780601f10610d7957610100808354040283529160200191610da4565b820191906000526020600020905b815481529060010190602001808311610d8757829003601f168201915b505050505081565b60048054600181600116156101000203166002900480601f016020809104026020016040519081016040528092919081815260200182805460018160011615610100020316600290048015610e425780601f10610e1757610100808354040283529160200191610e42565b820191906000526020600020905b815481529060010190602001808311610e2557829003601f168201915b505050505081565b6000809054906101000a900473ffffffffffffffffffffffffffffffffffffffff1673ffffffffffffffffffffffffffffffffffffffff163373ffffffffffffffffffffffffffffffffffffffff16141515610ea557600080fd5b806003819055507fc3f457ddc0b2fa1c765c0f3752c077176c334a00fc67bde505222e7735fa474b6003546040518082815260200191505060405180910390a150565b828054600181600116156101000203166002900490600052602060002090601f016020900481019282601f10610f2957805160ff1916838001178555610f57565b82800160010185558215610f57579182015b82811115610f56578251825591602001919060010190610f3b565b5b509050610f649190610f68565b5090565b610f8a91905b80821115610f86576000816000905550600101610f6e565b5090565b905600a165627a7a7230582093033f716a956e7664ba0bd0226058be3897e3106cc48bbb1b1b3d8140c15db60029",
  "source": "pragma solidity ^0.4.17;\n\nimport './mortal.sol';\n\ncontract ContratoSAS is mortal {\n    /* Events */\n    event contributionFiled(address indexed from, uint256 indexed uid, uint256 amount);\n    event receivedFunds(address _from, uint256 _amount);\n    event nombreSet(string nombre);\n    event montoSet(uint256 monto);\n    event fechaSet(string fecha);\n    event descripcionSet(string descripcion);\n    event cuitSet(uint cuit);\n    event uidSet(uint uid);\n\n    struct Contribution {\n        address _from;\n        uint256 _uid;\n        uint256 _amount;\n    }\n\n    uint public    contribution_counter;\n    string public  m_nombre;\n    uint256 public m_monto;\n    string public  m_fecha;\n    string public  m_descripcion;\n    uint public    m_cuit;\n    uint public    m_uid;\n\n    mapping(uint => Contribution) m_contributions;\n\n    function receiveFunds(uint uid) payable public {\n        /* Receive amount */\n        if(msg.value > 0) {\n            emit receivedFunds(msg.sender, msg.value);\n        }\n        /* File contribution*/\n        contribution_counter++;\n        m_contributions[contribution_counter] = Contribution(msg.sender, uid, msg.value);\n        emit contributionFiled(msg.sender, uid, msg.value);\n\n        m_nombre = 'Pepe';\n    }\n\n    /*function getNombre() public returns (string) {\n        return m_nombre;\n    }*/\n\n    /* Setea el nombre de la SAS/proyecto */\n    function setNombre(string nombre) onlyowner public {\n        m_nombre = nombre;\n        emit nombreSet(m_nombre);\n    }\n\n    /* Setea el monto de la SAS/proyecto */\n    function setMonto(uint256 monto) onlyowner public {\n        m_monto = monto;\n        emit montoSet(m_monto);\n    }\n\n    /* Setea la fecha de la SAS/proyecto */\n    function setFecha(string fecha) onlyowner public {\n        m_fecha = fecha;\n        emit fechaSet(m_fecha);\n    }\n\n    /* Setea la descripcion de la SAS/proyecto */\n    function setDescripcion(string descripcion) onlyowner public {\n        m_descripcion = descripcion;\n        emit descripcionSet(m_descripcion);\n    }\n\n    /* Setea el CUIT de la SAS/proyecto */\n    function setCuit(uint cuit) onlyowner public {\n        m_cuit = cuit;\n        emit cuitSet(m_cuit);\n    }\n\n    /* Setea el uid de la SAS/proyecto */\n    function setUid(uint uid) onlyowner public {\n        m_uid = uid;\n        emit uidSet(m_uid);\n    }\n\n    /* TODO: Fill in function or get from frontend */\n    /*function getUserId() private returns (uint) {\n        return 1;\n    }*/\n\n}\n",
  "sourcePath": "/home/ivan/MacherIT/Ethereum/fiblo/contracts/ContratoSAS.sol",
  "compiler": {
    "name": "solc",
    "version": "0.4.24+commit.e67f0147.Emscripten.clang"
  },
  "schemaVersion": "2.0.1",
  "updatedAt": "2018-09-21T13:51:38.104Z"
}