{
  "contractName": "ContratoSAS",
  "abi": [
    {
      "constant": true,
      "inputs": [],
      "name": "m_monto",
      "outputs": [
        {
          "name": "",
          "type": "uint256"
        }
      ],
      "payable": false,
      "stateMutability": "view",
      "type": "function"
    },
    {
      "constant": true,
      "inputs": [],
      "name": "contribution_counter",
      "outputs": [
        {
          "name": "",
          "type": "uint256"
        }
      ],
      "payable": false,
      "stateMutability": "view",
      "type": "function"
    },
    {
      "constant": false,
      "inputs": [],
      "name": "kill",
      "outputs": [],
      "payable": false,
      "stateMutability": "nonpayable",
      "type": "function"
    },
    {
      "constant": true,
      "inputs": [],
      "name": "m_symbol",
      "outputs": [
        {
          "name": "",
          "type": "string"
        }
      ],
      "payable": false,
      "stateMutability": "view",
      "type": "function"
    },
    {
      "constant": true,
      "inputs": [],
      "name": "m_monto_max",
      "outputs": [
        {
          "name": "",
          "type": "uint256"
        }
      ],
      "payable": false,
      "stateMutability": "view",
      "type": "function"
    },
    {
      "constant": true,
      "inputs": [],
      "name": "m_decimals",
      "outputs": [
        {
          "name": "",
          "type": "uint256"
        }
      ],
      "payable": false,
      "stateMutability": "view",
      "type": "function"
    },
    {
      "constant": true,
      "inputs": [],
      "name": "owner",
      "outputs": [
        {
          "name": "",
          "type": "address"
        }
      ],
      "payable": false,
      "stateMutability": "view",
      "type": "function"
    },
    {
      "constant": true,
      "inputs": [],
      "name": "m_project_valid",
      "outputs": [
        {
          "name": "",
          "type": "bool"
        }
      ],
      "payable": false,
      "stateMutability": "view",
      "type": "function"
    },
    {
      "constant": true,
      "inputs": [],
      "name": "m_closed_round",
      "outputs": [
        {
          "name": "",
          "type": "bool"
        }
      ],
      "payable": false,
      "stateMutability": "view",
      "type": "function"
    },
    {
      "constant": true,
      "inputs": [],
      "name": "m_url",
      "outputs": [
        {
          "name": "",
          "type": "string"
        }
      ],
      "payable": false,
      "stateMutability": "view",
      "type": "function"
    },
    {
      "constant": true,
      "inputs": [],
      "name": "m_cuit",
      "outputs": [
        {
          "name": "",
          "type": "uint256"
        }
      ],
      "payable": false,
      "stateMutability": "view",
      "type": "function"
    },
    {
      "constant": true,
      "inputs": [],
      "name": "m_fecha_cierre",
      "outputs": [
        {
          "name": "",
          "type": "uint256"
        }
      ],
      "payable": false,
      "stateMutability": "view",
      "type": "function"
    },
    {
      "constant": true,
      "inputs": [],
      "name": "m_total_supply",
      "outputs": [
        {
          "name": "",
          "type": "uint256"
        }
      ],
      "payable": false,
      "stateMutability": "view",
      "type": "function"
    },
    {
      "constant": true,
      "inputs": [],
      "name": "m_nombre",
      "outputs": [
        {
          "name": "",
          "type": "string"
        }
      ],
      "payable": false,
      "stateMutability": "view",
      "type": "function"
    },
    {
      "constant": true,
      "inputs": [],
      "name": "m_beneficiario",
      "outputs": [
        {
          "name": "",
          "type": "address"
        }
      ],
      "payable": false,
      "stateMutability": "view",
      "type": "function"
    },
    {
      "constant": true,
      "inputs": [],
      "name": "m_descripcion",
      "outputs": [
        {
          "name": "",
          "type": "string"
        }
      ],
      "payable": false,
      "stateMutability": "view",
      "type": "function"
    },
    {
      "constant": true,
      "inputs": [],
      "name": "m_beneficiary_valid",
      "outputs": [
        {
          "name": "",
          "type": "bool"
        }
      ],
      "payable": false,
      "stateMutability": "view",
      "type": "function"
    },
    {
      "constant": true,
      "inputs": [],
      "name": "m_fecha_fin",
      "outputs": [
        {
          "name": "",
          "type": "uint256"
        }
      ],
      "payable": false,
      "stateMutability": "view",
      "type": "function"
    },
    {
      "inputs": [
        {
          "name": "cnv_addr",
          "type": "address"
        },
        {
          "name": "oraculo_precio_addr",
          "type": "address"
        },
        {
          "name": "beneficiario",
          "type": "address"
        },
        {
          "name": "cant_acciones",
          "type": "uint256"
        },
        {
          "name": "symbol",
          "type": "string"
        },
        {
          "name": "monto",
          "type": "uint256"
        },
        {
          "name": "monto_max",
          "type": "uint256"
        },
        {
          "name": "fecha_fin",
          "type": "uint256"
        }
      ],
      "payable": false,
      "stateMutability": "nonpayable",
      "type": "constructor"
    },
    {
      "anonymous": false,
      "inputs": [
        {
          "indexed": true,
          "name": "from",
          "type": "address"
        },
        {
          "indexed": true,
          "name": "uid",
          "type": "uint256"
        },
        {
          "indexed": false,
          "name": "amount",
          "type": "uint256"
        }
      ],
      "name": "contributionFiled",
      "type": "event"
    },
    {
      "anonymous": false,
      "inputs": [
        {
          "indexed": false,
          "name": "_from",
          "type": "address"
        },
        {
          "indexed": false,
          "name": "_amount",
          "type": "uint256"
        }
      ],
      "name": "receivedFunds",
      "type": "event"
    },
    {
      "anonymous": false,
      "inputs": [
        {
          "indexed": false,
          "name": "_to",
          "type": "address"
        },
        {
          "indexed": false,
          "name": "_amount",
          "type": "uint256"
        }
      ],
      "name": "fundReturned",
      "type": "event"
    },
    {
      "anonymous": false,
      "inputs": [
        {
          "indexed": false,
          "name": "beneficiario",
          "type": "address"
        }
      ],
      "name": "beneficiarioSet",
      "type": "event"
    },
    {
      "anonymous": false,
      "inputs": [
        {
          "indexed": false,
          "name": "cant_acciones",
          "type": "uint256"
        }
      ],
      "name": "cantAccionesSet",
      "type": "event"
    },
    {
      "anonymous": false,
      "inputs": [
        {
          "indexed": true,
          "name": "from",
          "type": "address"
        },
        {
          "indexed": true,
          "name": "to",
          "type": "address"
        },
        {
          "indexed": false,
          "name": "tokens",
          "type": "uint256"
        }
      ],
      "name": "Transfer",
      "type": "event"
    },
    {
      "anonymous": false,
      "inputs": [
        {
          "indexed": false,
          "name": "symbol",
          "type": "string"
        }
      ],
      "name": "symbolSet",
      "type": "event"
    },
    {
      "anonymous": false,
      "inputs": [
        {
          "indexed": false,
          "name": "url",
          "type": "string"
        }
      ],
      "name": "urlSet",
      "type": "event"
    },
    {
      "anonymous": false,
      "inputs": [
        {
          "indexed": false,
          "name": "nombre",
          "type": "string"
        }
      ],
      "name": "nombreSet",
      "type": "event"
    },
    {
      "anonymous": false,
      "inputs": [
        {
          "indexed": false,
          "name": "monto",
          "type": "uint256"
        }
      ],
      "name": "montoSet",
      "type": "event"
    },
    {
      "anonymous": false,
      "inputs": [
        {
          "indexed": false,
          "name": "monto_max",
          "type": "uint256"
        }
      ],
      "name": "montoMaxSet",
      "type": "event"
    },
    {
      "anonymous": false,
      "inputs": [
        {
          "indexed": false,
          "name": "fecha_fin",
          "type": "uint256"
        }
      ],
      "name": "fechaSet",
      "type": "event"
    },
    {
      "anonymous": false,
      "inputs": [
        {
          "indexed": false,
          "name": "descripcion",
          "type": "string"
        }
      ],
      "name": "descripcionSet",
      "type": "event"
    },
    {
      "anonymous": false,
      "inputs": [
        {
          "indexed": false,
          "name": "cuit",
          "type": "uint256"
        }
      ],
      "name": "cuitSet",
      "type": "event"
    },
    {
      "constant": false,
      "inputs": [
        {
          "name": "uid",
          "type": "uint256"
        }
      ],
      "name": "receiveFunds",
      "outputs": [],
      "payable": true,
      "stateMutability": "payable",
      "type": "function"
    },
    {
      "constant": false,
      "inputs": [
        {
          "name": "symbol",
          "type": "string"
        }
      ],
      "name": "setSymbol",
      "outputs": [],
      "payable": false,
      "stateMutability": "nonpayable",
      "type": "function"
    },
    {
      "constant": false,
      "inputs": [
        {
          "name": "cant",
          "type": "uint256"
        }
      ],
      "name": "setCantAcciones",
      "outputs": [],
      "payable": false,
      "stateMutability": "nonpayable",
      "type": "function"
    },
    {
      "constant": false,
      "inputs": [
        {
          "name": "beneficiario",
          "type": "address"
        }
      ],
      "name": "setBeneficiario",
      "outputs": [],
      "payable": false,
      "stateMutability": "nonpayable",
      "type": "function"
    },
    {
      "constant": false,
      "inputs": [
        {
          "name": "url",
          "type": "string"
        }
      ],
      "name": "setUrl",
      "outputs": [],
      "payable": false,
      "stateMutability": "nonpayable",
      "type": "function"
    },
    {
      "constant": false,
      "inputs": [
        {
          "name": "nombre",
          "type": "string"
        }
      ],
      "name": "setNombre",
      "outputs": [],
      "payable": false,
      "stateMutability": "nonpayable",
      "type": "function"
    },
    {
      "constant": false,
      "inputs": [
        {
          "name": "monto",
          "type": "uint256"
        }
      ],
      "name": "setMonto",
      "outputs": [],
      "payable": false,
      "stateMutability": "nonpayable",
      "type": "function"
    },
    {
      "constant": false,
      "inputs": [
        {
          "name": "monto_max",
          "type": "uint256"
        }
      ],
      "name": "setMontoMax",
      "outputs": [],
      "payable": false,
      "stateMutability": "nonpayable",
      "type": "function"
    },
    {
      "constant": false,
      "inputs": [
        {
          "name": "fecha_fin",
          "type": "uint256"
        }
      ],
      "name": "setFecha",
      "outputs": [],
      "payable": false,
      "stateMutability": "nonpayable",
      "type": "function"
    },
    {
      "constant": false,
      "inputs": [
        {
          "name": "descripcion",
          "type": "string"
        }
      ],
      "name": "setDescripcion",
      "outputs": [],
      "payable": false,
      "stateMutability": "nonpayable",
      "type": "function"
    },
    {
      "constant": false,
      "inputs": [
        {
          "name": "cuit",
          "type": "uint256"
        }
      ],
      "name": "setCuit",
      "outputs": [],
      "payable": false,
      "stateMutability": "nonpayable",
      "type": "function"
    },
    {
      "constant": false,
      "inputs": [
        {
          "name": "cnv_addr",
          "type": "address"
        }
      ],
      "name": "setCNVAddress",
      "outputs": [],
      "payable": false,
      "stateMutability": "nonpayable",
      "type": "function"
    },
    {
      "constant": false,
      "inputs": [],
      "name": "setProjectValidity",
      "outputs": [],
      "payable": false,
      "stateMutability": "nonpayable",
      "type": "function"
    },
    {
      "constant": false,
      "inputs": [],
      "name": "setBeneficiaryValidity",
      "outputs": [],
      "payable": false,
      "stateMutability": "nonpayable",
      "type": "function"
    },
    {
      "constant": false,
      "inputs": [
        {
          "name": "to",
          "type": "address"
        },
        {
          "name": "tokens",
          "type": "uint256"
        }
      ],
      "name": "transfer",
      "outputs": [
        {
          "name": "success",
          "type": "bool"
        }
      ],
      "payable": false,
      "stateMutability": "nonpayable",
      "type": "function"
    },
    {
      "constant": true,
      "inputs": [
        {
          "name": "who",
          "type": "address"
        }
      ],
      "name": "balanceOf",
      "outputs": [
        {
          "name": "balance",
          "type": "uint256"
        }
      ],
      "payable": false,
      "stateMutability": "view",
      "type": "function"
    },
    {
      "constant": false,
      "inputs": [],
      "name": "closeRound",
      "outputs": [
        {
          "name": "success",
          "type": "bool"
        }
      ],
      "payable": false,
      "stateMutability": "nonpayable",
      "type": "function"
    }
  ],
  "bytecode": "0x60806040523480156200001157600080fd5b5060405162002ed038038062002ed08339810180604052810190808051906020019092919080519060200190929190805190602001909291908051906020019092919080518201929190602001805190602001909291908051906020019092919080519060200190929190505050336000806101000a81548173ffffffffffffffffffffffffffffffffffffffff021916908373ffffffffffffffffffffffffffffffffffffffff160217905550601260048190555060006006819055506000601060006101000a81548160ff0219169083151502179055506000601060016101000a81548160ff0219169083151502179055506000601060026101000a81548160ff02191690831515021790555087600160006101000a81548173ffffffffffffffffffffffffffffffffffffffff021916908373ffffffffffffffffffffffffffffffffffffffff16021790555086600260006101000a81548173ffffffffffffffffffffffffffffffffffffffff021916908373ffffffffffffffffffffffffffffffffffffffff16021790555085600760006101000a81548173ffffffffffffffffffffffffffffffffffffffff021916908373ffffffffffffffffffffffffffffffffffffffff1602179055507f839d4499d7a59a2a3e8caefa68e6fa56efe72448bded2ef3394eb8dc0791c014600760009054906101000a900473ffffffffffffffffffffffffffffffffffffffff16604051808273ffffffffffffffffffffffffffffffffffffffff1673ffffffffffffffffffffffffffffffffffffffff16815260200191505060405180910390a1600454600a0a8502600381905550600354601260008060009054906101000a900473ffffffffffffffffffffffffffffffffffffffff1673ffffffffffffffffffffffffffffffffffffffff1673ffffffffffffffffffffffffffffffffffffffff168152602001908152602001600020819055507f9d22dd40e1955aa96a9462ac509affedff1653cea2da2ed7785c468f3ab54a0b6003546040518082815260200191505060405180910390a183600590805190602001906200032e9291906200049c565b507f4324c590b7c4eac8271240278ca15fd7a4a5b193e52a941793ef015049fa33ef846040518080602001828103825283818151815260200191508051906020019080838360005b838110156200039357808201518184015260208101905062000376565b50505050905090810190601f168015620003c15780820380516001836020036101000a031916815260200191505b509250505060405180910390a182600a819055507fc3f457ddc0b2fa1c765c0f3752c077176c334a00fc67bde505222e7735fa474b600a546040518082815260200191505060405180910390a181600b819055507f35d2c3056affd324e5095b3adf0b54d8f40292417c379911e21bc6d7d9ba9ff2600b546040518082815260200191505060405180910390a180600c819055507f57e2b946201b97d1d85bdd9433b1236d4278d7bc75aefe3951d400d32a2c9274600c546040518082815260200191505060405180910390a150505050505050506200054b565b828054600181600116156101000203166002900490600052602060002090601f016020900481019282601f10620004df57805160ff191683800117855562000510565b8280016001018555821562000510579182015b828111156200050f578251825591602001919060010190620004f2565b5b5090506200051f919062000523565b5090565b6200054891905b80821115620005445760008160009055506001016200052a565b5090565b90565b612975806200055b6000396000f3006080604052600436106101b6576000357c0100000000000000000000000000000000000000000000000000000000900463ffffffff16806202736b146101bb57806306587b491461022457806306c063431461023b578063193afc56146102665780631dc66305146102a9578063252498a2146102c05780632ad1e71e146103295780633ed742ca1461036c57806341c0e1b51461039757806349f7015a146103ae5780634bce46ea1461043e5780634eaeff281461046b57806370a08231146104965780638827e09b146104ed578063889374721461050d5780638da5cb5b1461053857806394f61d1c1461058f5780639a918ce3146105be578063a9059cbb146105ed578063aa44fcd414610652578063ae1ca561146106e2578063b01b0c411461070f578063b8257b931461073a578063b84c824614610765578063bde2acda146107ce578063d2938ab0146107fb578063d3c749d814610826578063d45795cb146108b6578063de75e16d1461091f578063e0ab6acf14610976578063e278fe6f14610a06578063e99fda1114610a35578063fc3a171614610a64578063fe305c3614610a91578063feb924c214610abe575b600080fd5b3480156101c757600080fd5b50610222600480360381019080803590602001908201803590602001908080601f0160208091040260200160405190810160405280939291908181526020018383808284378201915050505050509192919290505050610ae9565b005b34801561023057600080fd5b50610239610c18565b005b34801561024757600080fd5b50610250610d86565b6040518082815260200191505060405180910390f35b34801561027257600080fd5b506102a7600480360381019080803573ffffffffffffffffffffffffffffffffffffffff169060200190929190505050610d8c565b005b3480156102b557600080fd5b506102be610eb0565b005b3480156102cc57600080fd5b50610327600480360381019080803590602001908201803590602001908080601f0160208091040260200160405190810160405280939291908181526020018383808284378201915050505050509192919290505050611040565b005b34801561033557600080fd5b5061036a600480360381019080803573ffffffffffffffffffffffffffffffffffffffff16906020019092919050505061116f565b005b34801561037857600080fd5b5061038161120e565b6040518082815260200191505060405180910390f35b3480156103a357600080fd5b506103ac611214565b005b3480156103ba57600080fd5b506103c36112a5565b6040518080602001828103825283818151815260200191508051906020019080838360005b838110156104035780820151818401526020810190506103e8565b50505050905090810190601f1680156104305780820380516001836020036101000a031916815260200191505b509250505060405180910390f35b34801561044a57600080fd5b5061046960048036038101908080359060200190929190505050611343565b005b34801561047757600080fd5b5061048061144d565b6040518082815260200191505060405180910390f35b3480156104a257600080fd5b506104d7600480360381019080803573ffffffffffffffffffffffffffffffffffffffff169060200190929190505050611453565b6040518082815260200191505060405180910390f35b61050b6004803603810190808035906020019092919050505061149c565b005b34801561051957600080fd5b506105226118e1565b6040518082815260200191505060405180910390f35b34801561054457600080fd5b5061054d6118e7565b604051808273ffffffffffffffffffffffffffffffffffffffff1673ffffffffffffffffffffffffffffffffffffffff16815260200191505060405180910390f35b34801561059b57600080fd5b506105a461190c565b604051808215151515815260200191505060405180910390f35b3480156105ca57600080fd5b506105d361191f565b604051808215151515815260200191505060405180910390f35b3480156105f957600080fd5b50610638600480360381019080803573ffffffffffffffffffffffffffffffffffffffff16906020019092919080359060200190929190505050611932565b604051808215151515815260200191505060405180910390f35b34801561065e57600080fd5b50610667611b30565b6040518080602001828103825283818151815260200191508051906020019080838360005b838110156106a757808201518184015260208101905061068c565b50505050905090810190601f1680156106d45780820380516001836020036101000a031916815260200191505b509250505060405180910390f35b3480156106ee57600080fd5b5061070d60048036038101908080359060200190929190505050611bce565b005b34801561071b57600080fd5b50610724611c6c565b6040518082815260200191505060405180910390f35b34801561074657600080fd5b5061074f611c72565b6040518082815260200191505060405180910390f35b34801561077157600080fd5b506107cc600480360381019080803590602001908201803590602001908080601f0160208091040260200160405190810160405280939291908181526020018383808284378201915050505050509192919290505050611c78565b005b3480156107da57600080fd5b506107f960048036038101908080359060200190929190505050611d89565b005b34801561080757600080fd5b50610810611e27565b6040518082815260200191505060405180910390f35b34801561083257600080fd5b5061083b611e2d565b6040518080602001828103825283818151815260200191508051906020019080838360005b8381101561087b578082015181840152602081019050610860565b50505050905090810190601f1680156108a85780820380516001836020036101000a031916815260200191505b509250505060405180910390f35b3480156108c257600080fd5b5061091d600480360381019080803590602001908201803590602001908080601f0160208091040260200160405190810160405280939291908181526020018383808284378201915050505050509192919290505050611ecb565b005b34801561092b57600080fd5b50610934611ffa565b604051808273ffffffffffffffffffffffffffffffffffffffff1673ffffffffffffffffffffffffffffffffffffffff16815260200191505060405180910390f35b34801561098257600080fd5b5061098b612020565b6040518080602001828103825283818151815260200191508051906020019080838360005b838110156109cb5780820151818401526020810190506109b0565b50505050905090810190601f1680156109f85780820380516001836020036101000a031916815260200191505b509250505060405180910390f35b348015610a1257600080fd5b50610a1b6120be565b604051808215151515815260200191505060405180910390f35b348015610a4157600080fd5b50610a4a6124b2565b604051808215151515815260200191505060405180910390f35b348015610a7057600080fd5b50610a8f600480360381019080803590602001909291905050506124c5565b005b348015610a9d57600080fd5b50610abc60048036038101908080359060200190929190505050612563565b005b348015610aca57600080fd5b50610ad3612601565b6040518082815260200191505060405180910390f35b6000809054906101000a900473ffffffffffffffffffffffffffffffffffffffff1673ffffffffffffffffffffffffffffffffffffffff163373ffffffffffffffffffffffffffffffffffffffff16141515610b4457600080fd5b8060099080519060200190610b5a9291906128a4565b507fc71c2644179666c228fa56e641bc2d6f6945a954d8857b2f64b4c0ec6898faef60096040518080602001828103825283818154600181600116156101000203166002900481526020019150805460018160011615610100020316600290048015610c075780601f10610bdc57610100808354040283529160200191610c07565b820191906000526020600020905b815481529060010190602001808311610bea57829003601f168201915b50509250505060405180910390a150565b6000809054906101000a900473ffffffffffffffffffffffffffffffffffffffff1673ffffffffffffffffffffffffffffffffffffffff163373ffffffffffffffffffffffffffffffffffffffff16141515610c7357600080fd5b600160009054906101000a900473ffffffffffffffffffffffffffffffffffffffff1673ffffffffffffffffffffffffffffffffffffffff16639a749171306040518263ffffffff167c0100000000000000000000000000000000000000000000000000000000028152600401808273ffffffffffffffffffffffffffffffffffffffff1673ffffffffffffffffffffffffffffffffffffffff168152602001915050602060405180830381600087803b158015610d3057600080fd5b505af1158015610d44573d6000803e3d6000fd5b505050506040513d6020811015610d5a57600080fd5b8101908080519060200190929190505050601060006101000a81548160ff021916908315150217905550565b600a5481565b6000809054906101000a900473ffffffffffffffffffffffffffffffffffffffff1673ffffffffffffffffffffffffffffffffffffffff163373ffffffffffffffffffffffffffffffffffffffff16141515610de757600080fd5b80600760006101000a81548173ffffffffffffffffffffffffffffffffffffffff021916908373ffffffffffffffffffffffffffffffffffffffff1602179055507f839d4499d7a59a2a3e8caefa68e6fa56efe72448bded2ef3394eb8dc0791c014600760009054906101000a900473ffffffffffffffffffffffffffffffffffffffff16604051808273ffffffffffffffffffffffffffffffffffffffff1673ffffffffffffffffffffffffffffffffffffffff16815260200191505060405180910390a150565b6000809054906101000a900473ffffffffffffffffffffffffffffffffffffffff1673ffffffffffffffffffffffffffffffffffffffff163373ffffffffffffffffffffffffffffffffffffffff16141515610f0b57600080fd5b600160009054906101000a900473ffffffffffffffffffffffffffffffffffffffff1673ffffffffffffffffffffffffffffffffffffffff1663ee892cef600760009054906101000a900473ffffffffffffffffffffffffffffffffffffffff166040518263ffffffff167c0100000000000000000000000000000000000000000000000000000000028152600401808273ffffffffffffffffffffffffffffffffffffffff1673ffffffffffffffffffffffffffffffffffffffff168152602001915050602060405180830381600087803b158015610fea57600080fd5b505af1158015610ffe573d6000803e3d6000fd5b505050506040513d602081101561101457600080fd5b8101908080519060200190929190505050601060016101000a81548160ff021916908315150217905550565b6000809054906101000a900473ffffffffffffffffffffffffffffffffffffffff1673ffffffffffffffffffffffffffffffffffffffff163373ffffffffffffffffffffffffffffffffffffffff1614151561109b57600080fd5b80600890805190602001906110b19291906128a4565b507f9db0119a744a0f7b8709b1586d61275999f138f86077631c22039b9027d286376008604051808060200182810382528381815460018160011615610100020316600290048152602001915080546001816001161561010002031660029004801561115e5780601f106111335761010080835404028352916020019161115e565b820191906000526020600020905b81548152906001019060200180831161114157829003601f168201915b50509250505060405180910390a150565b6000809054906101000a900473ffffffffffffffffffffffffffffffffffffffff1673ffffffffffffffffffffffffffffffffffffffff163373ffffffffffffffffffffffffffffffffffffffff161415156111ca57600080fd5b80600160006101000a81548173ffffffffffffffffffffffffffffffffffffffff021916908373ffffffffffffffffffffffffffffffffffffffff16021790555050565b60065481565b6000809054906101000a900473ffffffffffffffffffffffffffffffffffffffff1673ffffffffffffffffffffffffffffffffffffffff163373ffffffffffffffffffffffffffffffffffffffff1614156112a3576000809054906101000a900473ffffffffffffffffffffffffffffffffffffffff1673ffffffffffffffffffffffffffffffffffffffff16ff5b565b60058054600181600116156101000203166002900480601f01602080910402602001604051908101604052809291908181526020018280546001816001161561010002031660029004801561133b5780601f106113105761010080835404028352916020019161133b565b820191906000526020600020905b81548152906001019060200180831161131e57829003601f168201915b505050505081565b6000809054906101000a900473ffffffffffffffffffffffffffffffffffffffff1673ffffffffffffffffffffffffffffffffffffffff163373ffffffffffffffffffffffffffffffffffffffff1614151561139e57600080fd5b600454600a0a8102600381905550600354601260008060009054906101000a900473ffffffffffffffffffffffffffffffffffffffff1673ffffffffffffffffffffffffffffffffffffffff1673ffffffffffffffffffffffffffffffffffffffff168152602001908152602001600020819055507f9d22dd40e1955aa96a9462ac509affedff1653cea2da2ed7785c468f3ab54a0b816040518082815260200191505060405180910390a150565b600b5481565b6000601260008373ffffffffffffffffffffffffffffffffffffffff1673ffffffffffffffffffffffffffffffffffffffff168152602001908152602001600020549050919050565b601060009054906101000a900460ff161515611546576040517f08c379a00000000000000000000000000000000000000000000000000000000081526004018080602001828103825260288152602001807f456c2070726f796563746f2064656265207365722076616c696461646f20706f81526020017f72206c6120434e5600000000000000000000000000000000000000000000000081525060400191505060405180910390fd5b601060019054906101000a900460ff1615156115f0576040517f08c379a00000000000000000000000000000000000000000000000000000000081526004018080602001828103825260398152602001807f456c2062656e65666963696172696f2064656c2070726f796563746f2064656281526020017f65207365722076616c696461646f20706f72206c6120434e560000000000000081525060400191505060405180910390fd5b601060029054906101000a900460ff1615151561169b576040517f08c379a00000000000000000000000000000000000000000000000000000000081526004018080602001828103825260328152602001807f4c6120726f6e646120646562652065737461722061626965727461207061726181526020017f20706f64657220636f6e747269627569722e000000000000000000000000000081525060400191505060405180910390fd5b6116a3612607565b1515611763576040517f08c379a00000000000000000000000000000000000000000000000000000000081526004018080602001828103825260568152602001807f456c206d6f6e746f2064656c2070726f796563746f206dc3a17320656c206d6f81526020017f6e746f2061207472616e66657269722073757065726120656c206d6f6e746f2081526020017f706f72207375706572737573637269706369c3b36e2e0000000000000000000081525060600191505060405180910390fd5b60003411156117d8577f3f638da77ee3d49db2211092b965c9c7c2fcb68fea5e8f85986200f8776f6a1d3334604051808373ffffffffffffffffffffffffffffffffffffffff1673ffffffffffffffffffffffffffffffffffffffff1681526020018281526020019250505060405180910390a15b6006600081548092919060010191905055506060604051908101604052803373ffffffffffffffffffffffffffffffffffffffff1681526020018281526020013481525060116000600654815260200190815260200160002060008201518160000160006101000a81548173ffffffffffffffffffffffffffffffffffffffff021916908373ffffffffffffffffffffffffffffffffffffffff1602179055506020820151816001015560408201518160020155905050803373ffffffffffffffffffffffffffffffffffffffff167fbb7c95956eba9b5055c595e4f650eeb4af09c486b474ab1bc200a3a7eaf417de346040518082815260200191505060405180910390a350565b60045481565b6000809054906101000a900473ffffffffffffffffffffffffffffffffffffffff1681565b601060009054906101000a900460ff1681565b601060029054906101000a900460ff1681565b60006119a782601260008060009054906101000a900473ffffffffffffffffffffffffffffffffffffffff1673ffffffffffffffffffffffffffffffffffffffff1673ffffffffffffffffffffffffffffffffffffffff1681526020019081526020016000205461271e90919063ffffffff16565b601260008060009054906101000a900473ffffffffffffffffffffffffffffffffffffffff1673ffffffffffffffffffffffffffffffffffffffff1673ffffffffffffffffffffffffffffffffffffffff16815260200190815260200160002081905550611a5d82601260008673ffffffffffffffffffffffffffffffffffffffff1673ffffffffffffffffffffffffffffffffffffffff168152602001908152602001600020546127c990919063ffffffff16565b601260008573ffffffffffffffffffffffffffffffffffffffff1673ffffffffffffffffffffffffffffffffffffffff168152602001908152602001600020819055508273ffffffffffffffffffffffffffffffffffffffff166000809054906101000a900473ffffffffffffffffffffffffffffffffffffffff1673ffffffffffffffffffffffffffffffffffffffff167fddf252ad1be2c89b69c2b068fc378daa952ba7f163c4a11628f55a4df523b3ef846040518082815260200191505060405180910390a36001905092915050565b60088054600181600116156101000203166002900480601f016020809104026020016040519081016040528092919081815260200182805460018160011615610100020316600290048015611bc65780601f10611b9b57610100808354040283529160200191611bc6565b820191906000526020600020905b815481529060010190602001808311611ba957829003601f168201915b505050505081565b6000809054906101000a900473ffffffffffffffffffffffffffffffffffffffff1673ffffffffffffffffffffffffffffffffffffffff163373ffffffffffffffffffffffffffffffffffffffff16141515611c2957600080fd5b80600c819055507f57e2b946201b97d1d85bdd9433b1236d4278d7bc75aefe3951d400d32a2c9274600c546040518082815260200191505060405180910390a150565b600f5481565b600d5481565b6000809054906101000a900473ffffffffffffffffffffffffffffffffffffffff1673ffffffffffffffffffffffffffffffffffffffff163373ffffffffffffffffffffffffffffffffffffffff16141515611cd357600080fd5b8060059080519060200190611ce99291906128a4565b507f4324c590b7c4eac8271240278ca15fd7a4a5b193e52a941793ef015049fa33ef816040518080602001828103825283818151815260200191508051906020019080838360005b83811015611d4c578082015181840152602081019050611d31565b50505050905090810190601f168015611d795780820380516001836020036101000a031916815260200191505b509250505060405180910390a150565b6000809054906101000a900473ffffffffffffffffffffffffffffffffffffffff1673ffffffffffffffffffffffffffffffffffffffff163373ffffffffffffffffffffffffffffffffffffffff16141515611de457600080fd5b80600f819055507fb7746e669a746645aa4028b54668021861838111c88f67ae39a667d09bf92b4d600f546040518082815260200191505060405180910390a150565b60035481565b60098054600181600116156101000203166002900480601f016020809104026020016040519081016040528092919081815260200182805460018160011615610100020316600290048015611ec35780601f10611e9857610100808354040283529160200191611ec3565b820191906000526020600020905b815481529060010190602001808311611ea657829003601f168201915b505050505081565b6000809054906101000a900473ffffffffffffffffffffffffffffffffffffffff1673ffffffffffffffffffffffffffffffffffffffff163373ffffffffffffffffffffffffffffffffffffffff16141515611f2657600080fd5b80600e9080519060200190611f3c9291906128a4565b507f463e27b451223a222fe2d62c3c9614c754e3c0028bec5d73188c03cba5f9f09f600e6040518080602001828103825283818154600181600116156101000203166002900481526020019150805460018160011615610100020316600290048015611fe95780601f10611fbe57610100808354040283529160200191611fe9565b820191906000526020600020905b815481529060010190602001808311611fcc57829003601f168201915b50509250505060405180910390a150565b600760009054906101000a900473ffffffffffffffffffffffffffffffffffffffff1681565b600e8054600181600116156101000203166002900480601f0160208091040260200160405190810160405280929190818152602001828054600181600116156101000203166002900480156120b65780601f1061208b576101008083540402835291602001916120b6565b820191906000526020600020905b81548152906001019060200180831161209957829003601f168201915b505050505081565b6000806000601060029054906101000a900460ff1615151561216e576040517f08c379a000000000000000000000000000000000000000000000000000000000815260040180806020018281038252603b8152602001807f4c6120726f6e646120646562652073656775697220616269657274612070617281526020017f6120706f646572207265616c697a617220656c206369657272652e000000000081525060400191505060405180910390fd5b600a54600454600a0a3073ffffffffffffffffffffffffffffffffffffffff1631600260009054906101000a900473ffffffffffffffffffffffffffffffffffffffff1673ffffffffffffffffffffffffffffffffffffffff1663a312880b6040518163ffffffff167c0100000000000000000000000000000000000000000000000000000000028152600401602060405180830381600087803b15801561221557600080fd5b505af1158015612229573d6000803e3d6000fd5b505050506040513d602081101561223f57600080fd5b81019080805190602001909291905050500281151561225a57fe5b0410151561230557600191505b600654821115156122de576122d06011600084815260200190815260200160002060000160009054906101000a900473ffffffffffffffffffffffffffffffffffffffff166122cb6011600086815260200190815260200160002060020154612874565b611932565b508180600101925050612267565b6001601060026101000a81548160ff02191690831515021790555042600d8190555061249b565b600c544210151561249a57600190505b60065481111515612477576011600082815260200190815260200160002060000160009054906101000a900473ffffffffffffffffffffffffffffffffffffffff1673ffffffffffffffffffffffffffffffffffffffff166108fc60116000848152602001908152602001600020600201549081150290604051600060405180830381858888f193505050501580156123b2573d6000803e3d6000fd5b507f8bbc77311338e358d26492fee1a9217698e8c21f8f7b76afeee3fd896ff8a0386011600083815260200190815260200160002060000160009054906101000a900473ffffffffffffffffffffffffffffffffffffffff166011600084815260200190815260200160002060020154604051808373ffffffffffffffffffffffffffffffffffffffff1673ffffffffffffffffffffffffffffffffffffffff1681526020018281526020019250505060405180910390a18080600101915050612315565b6001601060026101000a81548160ff02191690831515021790555042600d819055505b5b601060029054906101000a900460ff169250505090565b601060019054906101000a900460ff1681565b6000809054906101000a900473ffffffffffffffffffffffffffffffffffffffff1673ffffffffffffffffffffffffffffffffffffffff163373ffffffffffffffffffffffffffffffffffffffff1614151561252057600080fd5b80600b819055507f35d2c3056affd324e5095b3adf0b54d8f40292417c379911e21bc6d7d9ba9ff2600b546040518082815260200191505060405180910390a150565b6000809054906101000a900473ffffffffffffffffffffffffffffffffffffffff1673ffffffffffffffffffffffffffffffffffffffff163373ffffffffffffffffffffffffffffffffffffffff161415156125be57600080fd5b80600a819055507fc3f457ddc0b2fa1c765c0f3752c077176c334a00fc67bde505222e7735fa474b600a546040518082815260200191505060405180910390a150565b600c5481565b60008060008060008060003073ffffffffffffffffffffffffffffffffffffffff16319550600260009054906101000a900473ffffffffffffffffffffffffffffffffffffffff1673ffffffffffffffffffffffffffffffffffffffff1663a312880b6040518163ffffffff167c0100000000000000000000000000000000000000000000000000000000028152600401602060405180830381600087803b1580156126b257600080fd5b505af11580156126c6573d6000803e3d6000fd5b505050506040513d60208110156126dc57600080fd5b81019080805190602001909291905050509450600454600a0a935084600b5481151561270457fe5b049250838302915081861115905080965050505050505090565b60008282111515156127be576040517f08c379a00000000000000000000000000000000000000000000000000000000081526004018080602001828103825260358152602001807f5375627374726163746f72206d757374206265206c6f776572206f722065717581526020017f616c20746f206f726967696e616c206e756d626572000000000000000000000081525060400191505060405180910390fd5b818303905092915050565b6000818301905082811015151561286e576040517f08c379a00000000000000000000000000000000000000000000000000000000081526004018080602001828103825260328152602001807f526573756c74206d7573742062652067726561746572206f7220657175616c2081526020017f746f206f726967696e616c206e756d626572000000000000000000000000000081525060400191505060405180910390fd5b92915050565b60003073ffffffffffffffffffffffffffffffffffffffff1631600354830281151561289c57fe5b049050919050565b828054600181600116156101000203166002900490600052602060002090601f016020900481019282601f106128e557805160ff1916838001178555612913565b82800160010185558215612913579182015b828111156129125782518255916020019190600101906128f7565b5b5090506129209190612924565b5090565b61294691905b8082111561294257600081600090555060010161292a565b5090565b905600a165627a7a723058204a1d2915cc48db9349410bd6e78bc71a06aecb2d3ef6a0b5dedb62ab6473e6ec0029",
  "source": "pragma solidity ^0.4.22;\n\nimport './mortal.sol';\nimport './SafeMath.sol';\nimport './CNV.sol';\nimport './OraculoPrecio.sol';\n\ncontract ContratoSAS is mortal {\n    using SafeMath for uint;\n\n    CNV cnv;\n    OraculoPrecio oraculo_precio;\n\n    /* Events */\n    event contributionFiled(address indexed from, uint indexed uid, uint amount);\n    event receivedFunds(address _from, uint _amount);\n    event fundReturned(address _to, uint _amount);\n    event beneficiarioSet(address beneficiario);\n    event cantAccionesSet(uint cant_acciones);\n    event Transfer(address indexed from, address indexed to, uint tokens);\n    event symbolSet(string symbol);\n    event urlSet(string url);\n    event nombreSet(string nombre);\n    event montoSet(uint monto);\n    event montoMaxSet(uint monto_max);\n    event fechaSet(uint fecha_fin);\n    event descripcionSet(string descripcion);\n    event cuitSet(uint cuit);\n    /* event uidSet(uint uid); */\n\n    struct Contribution {\n        address _from;\n        uint _uid;\n        uint _amount;\n    }\n\n    uint public    m_total_supply; // ERC 20\n    uint public    m_decimals; // ERC 20\n    string public  m_symbol; // ERC 20\n    uint public    contribution_counter;\n    address public m_beneficiario;\n    string public  m_url;\n    string public  m_nombre; // ERC 20\n    uint public    m_monto; // Monto en centavos\n    uint public    m_monto_max; // Monto en centavos\n    uint public    m_fecha_fin;\n    uint public    m_fecha_cierre;\n    string public  m_descripcion;\n    uint public    m_cuit;\n    bool public    m_project_valid;\n    bool public    m_beneficiary_valid;\n    bool public    m_closed_round;\n    /* uint public    m_uid; */\n\n    mapping(uint => Contribution) m_contributions;\n    mapping(address => uint) balances;\n\n    /* constructor() public {\n      m_decimals = 18;\n      contribution_counter = 0;\n      m_project_valid = false;\n      m_beneficiary_valid = false;\n      m_closed_round = false;\n    } */\n\n    constructor(address cnv_addr, address oraculo_precio_addr, address beneficiario, uint cant_acciones, string symbol, uint monto, uint monto_max, uint fecha_fin) public {\n      m_decimals = 18;\n      contribution_counter = 0;\n      m_project_valid = false;\n      m_beneficiary_valid = false;\n      m_closed_round = false;\n      ///\n      cnv = CNV(cnv_addr);\n      oraculo_precio = OraculoPrecio(oraculo_precio_addr);\n      ///\n      m_beneficiario = beneficiario;\n      emit beneficiarioSet(m_beneficiario);\n      m_total_supply = cant_acciones * 10**uint(m_decimals);\n      balances[owner] = m_total_supply; // Sets all the tokens in the owners balance\n      emit cantAccionesSet(m_total_supply);\n      m_symbol = symbol;\n      emit symbolSet(symbol);\n      m_monto = monto;\n      emit montoSet(m_monto);\n      m_monto_max = monto_max;\n      emit montoMaxSet(m_monto_max);\n      m_fecha_fin = fecha_fin;\n      emit fechaSet(m_fecha_fin);\n    }\n    /* constructor(address beneficiario, string url, string nombre, uint monto, uint monto_max, string fecha, string descripcion, uint cuit) public {\n      contribution_counter = 0;\n      m_beneficiario = beneficiario;\n      m_url = url;\n      m_nombre = nombre;\n      m_monto = monto;\n      m_monto_max = monto_max;\n      m_fecha_fin = fecha;\n      m_descripcion = descripcion;\n      m_cuit = cuit;\n      m_project_valid = false;\n      m_beneficiary_valid = false;\n    } */\n\n    function noSuperaMontoMax () private view returns (bool supera) {\n      uint balanceActual = uint(address(this).balance);\n      uint precioOraculo = uint(oraculo_precio.getPrecio());\n      uint weiMultiplier = uint(10**uint(m_decimals));\n      /* uint sumaBalanceMonto = uint(balanceActual + val); */ // Omitimos este paso pues solidity suma al balance el value del mensaje previo a la carga del cuerpo del mtodo\n      uint divisionMontoPrecio = uint(m_monto_max / precioOraculo);\n      uint montoPrecioWei = uint(divisionMontoPrecio * weiMultiplier);\n      bool comparacion = balanceActual <= montoPrecioWei;\n      return comparacion;\n    }\n\n    function receiveFunds(uint uid) payable public {\n      require(m_project_valid, \"El proyecto debe ser validado por la CNV\");\n      require(m_beneficiary_valid, \"El beneficiario del proyecto debe ser validado por la CNV\");\n      require(!m_closed_round, \"La ronda debe estar abierta para poder contribuir.\");\n      require(noSuperaMontoMax(), \"El monto del proyecto ms el monto a tranferir supera el monto por supersuscripcin.\");\n      /* Receive amount */\n      if(msg.value > 0) {\n          emit receivedFunds(msg.sender, msg.value);\n      }\n      /* File contribution*/\n      contribution_counter++;\n      m_contributions[contribution_counter] = Contribution(msg.sender, uid, msg.value);\n      emit contributionFiled(msg.sender, uid, msg.value);\n    }\n\n    /*function getNombre() public returns (string) {\n        return m_nombre;\n    }*/\n\n    /* Setea el totalSupply de la SAS/proyecto */\n    function setSymbol(string symbol) onlyowner public {\n        m_symbol = symbol;\n        emit symbolSet(symbol);\n    }\n\n    /* Setea el totalSupply de la SAS/proyecto */\n    function setCantAcciones(uint cant) onlyowner public {\n        m_total_supply = cant * 10**uint(m_decimals);\n        balances[owner] = m_total_supply; // Sets all the tokens in the owners balance\n        emit cantAccionesSet(cant);\n    }\n\n    /* Setea el beneficiario de la SAS/proyecto */\n    function setBeneficiario(address beneficiario) onlyowner public {\n        m_beneficiario = beneficiario;\n        emit beneficiarioSet(m_beneficiario);\n    }\n\n    /* Setea el url de la SAS/proyecto */\n    function setUrl(string url) onlyowner public {\n        m_url = url;\n        emit urlSet(m_url);\n    }\n\n    /* Setea el nombre de la SAS/proyecto */\n    function setNombre(string nombre) onlyowner public {\n        m_nombre = nombre;\n        emit nombreSet(m_nombre);\n    }\n\n    /* Setea el monto de la SAS/proyecto */\n    function setMonto(uint monto) onlyowner public {\n        m_monto = monto;\n        emit montoSet(m_monto);\n    }\n\n    /* Setea el monto max de la SAS/proyecto */\n    function setMontoMax(uint monto_max) onlyowner public {\n        m_monto_max = monto_max;\n        emit montoMaxSet(m_monto_max);\n    }\n\n    /* Setea la fecha de la SAS/proyecto */\n    function setFecha(uint fecha_fin) onlyowner public {\n        m_fecha_fin = fecha_fin;\n        emit fechaSet(m_fecha_fin);\n    }\n\n    /* Setea la descripcion de la SAS/proyecto */\n    function setDescripcion(string descripcion) onlyowner public {\n        m_descripcion = descripcion;\n        emit descripcionSet(m_descripcion);\n    }\n\n    /* Setea el CUIT de la SAS/proyecto */\n    function setCuit(uint cuit) onlyowner public {\n        m_cuit = cuit;\n        emit cuitSet(m_cuit);\n    }\n\n    function setCNVAddress(address cnv_addr) onlyowner public {\n      cnv = CNV(cnv_addr);\n    }\n\n    function setProjectValidity() onlyowner public {\n      m_project_valid = cnv.isProjectValid(address(this));\n    }\n\n    function setBeneficiaryValidity() onlyowner public {\n      m_beneficiary_valid = cnv.isBeneficiaryValid(m_beneficiario);\n    }\n\n    function transfer(address to, uint tokens) public returns (bool success) {\n      balances[owner] = balances[owner].sub(tokens); // WARNING: ERC20 dice, debera ser msg.sender, ponemos owner porque no sabemos si se mantiene el msg.sender entre closeRound y transfer\n      balances[to] = balances[to].add(tokens);\n      emit Transfer(owner, to, tokens);\n      return true;\n    }\n\n    function balanceOf(address who) public view returns (uint balance) {\n      return balances[who];\n    }\n\n    function calculateTokens(uint _wei) private view returns (uint tokens) {\n      return _wei * m_total_supply / address(this).balance;\n    }\n\n    function closeRound() public returns (bool success) {\n      require(!m_closed_round, \"La ronda debe seguir abierta para poder realizar el cierre.\");\n      if(oraculo_precio.getPrecio() * address(this).balance / 10**uint(m_decimals) >= m_monto) { // Se alcanz el monto esperado para el proyecto\n        for (uint i = 1; i <= contribution_counter; i++) { // Repartimos tokens a los holders\n          transfer(m_contributions[i]._from, calculateTokens(m_contributions[i]._amount)); // Los tokens los mandamos como el amount sin multiplicar por los decimales porque ya los estamos almacenando en wei al crear la contribucin.\n        }\n        m_closed_round = true;\n        m_fecha_cierre = now;\n      } else if(now >= m_fecha_fin) { // Se alcanz la fecha de cierre del proyecto y no se alcanz el monto esperado\n        for (uint j = 1; j <= contribution_counter; j++) { // Devolvemos la plata a los holders y cerramos la ronda\n          m_contributions[j]._from.transfer(m_contributions[j]._amount); // En este caso, address.transfer es una llamada a transfer de solidity https://solidity.readthedocs.io/en/develop/units-and-global-variables.html#members-of-address-types\n          emit fundReturned(m_contributions[j]._from, m_contributions[j]._amount);\n        }\n        m_closed_round = true;\n        m_fecha_cierre = now;\n      }\n      return m_closed_round;\n    }\n\n    /* Setea el uid de la SAS/proyecto */\n    /* function setUid(uint uid) onlyowner public {\n        m_uid = uid;\n        emit uidSet(m_uid);\n    } */\n\n    /* TODO: Fill in function or get from frontend */\n    /*function getUserId() private returns (uint) {\n        return 1;\n    }*/\n\n    /* m_project_valid = cnv_addr.call(bytes4(keccak256(\"isProjectValid(address)\")), address(this)); */\n}\n",
  "sourcePath": "/home/ivan/MacherIT/Ethereum/fiblo/contracts/ContratoSAS.sol",
  "compiler": {
    "name": "solc",
    "version": "0.4.24+commit.e67f0147.Emscripten.clang"
  },
  "schemaVersion": "2.0.1",
  "updatedAt": "2019-03-13T15:25:19.617Z"
}