{
  "contractName": "Module",
  "abi": [
    {
      "constant": true,
      "inputs": [],
      "name": "s_addr",
      "outputs": [
        {
          "name": "",
          "type": "address"
        }
      ],
      "payable": false,
      "stateMutability": "view",
      "type": "function"
    },
    {
      "constant": false,
      "inputs": [
        {
          "name": "SAAddress",
          "type": "address"
        }
      ],
      "name": "setS",
      "outputs": [],
      "payable": false,
      "stateMutability": "nonpayable",
      "type": "function"
    },
    {
      "constant": true,
      "inputs": [],
      "name": "get",
      "outputs": [
        {
          "name": "",
          "type": "uint256"
        }
      ],
      "payable": false,
      "stateMutability": "view",
      "type": "function"
    },
    {
      "constant": false,
      "inputs": [
        {
          "name": "_x",
          "type": "uint256"
        }
      ],
      "name": "set",
      "outputs": [
        {
          "name": "success",
          "type": "bool"
        }
      ],
      "payable": false,
      "stateMutability": "nonpayable",
      "type": "function"
    }
  ],
  "bytecode": "0x608060405234801561001057600080fd5b506103a0806100206000396000f300608060405260043610610062576000357c0100000000000000000000000000000000000000000000000000000000900463ffffffff16806322797bb11461006757806360fe47b1146100be5780636d4ce63c14610103578063d645985e1461012e575b600080fd5b34801561007357600080fd5b5061007c610171565b604051808273ffffffffffffffffffffffffffffffffffffffff1673ffffffffffffffffffffffffffffffffffffffff16815260200191505060405180910390f35b3480156100ca57600080fd5b506100e960048036038101908080359060200190929190505050610196565b604051808215151515815260200191505060405180910390f35b34801561010f57600080fd5b5061011861026a565b6040518082815260200191505060405180910390f35b34801561013a57600080fd5b5061016f600480360381019080803573ffffffffffffffffffffffffffffffffffffffff169060200190929190505050610331565b005b6000809054906101000a900473ffffffffffffffffffffffffffffffffffffffff1681565b60008060009054906101000a900473ffffffffffffffffffffffffffffffffffffffff1673ffffffffffffffffffffffffffffffffffffffff166360fe47b1836040518263ffffffff167c010000000000000000000000000000000000000000000000000000000002815260040180828152602001915050602060405180830381600087803b15801561022857600080fd5b505af115801561023c573d6000803e3d6000fd5b505050506040513d602081101561025257600080fd5b81019080805190602001909291905050509050919050565b60008060009054906101000a900473ffffffffffffffffffffffffffffffffffffffff1673ffffffffffffffffffffffffffffffffffffffff16636d4ce63c6040518163ffffffff167c0100000000000000000000000000000000000000000000000000000000028152600401602060405180830381600087803b1580156102f157600080fd5b505af1158015610305573d6000803e3d6000fd5b505050506040513d602081101561031b57600080fd5b8101908080519060200190929190505050905090565b806000806101000a81548173ffffffffffffffffffffffffffffffffffffffff021916908373ffffffffffffffffffffffffffffffffffffffff160217905550505600a165627a7a72305820a4f3356c5549f1c14f1d99bbd14ac1ce400ebb34bc74d72ccf656c29ca497f950029",
  "source": "pragma solidity ^0.4.22;\n\nimport './StandAlone.sol';\n\ncontract Module {\n\n    /* StandAlone public s; */\n    address public s_addr;\n\n    function setS(address SAAddress) public {\n        /* s = StandAlone(SAAddress); */\n        s_addr = SAAddress;\n    }\n\n    function get() public view returns(uint) {\n        /* return s_addr.call.value(1 ether).gas(10)(abi.encodeWithSignature(\"get(uint)\")); */\n        return StandAlone(s_addr).get();\n    }\n\n    function set(uint  _x) public returns(bool success) {\n        return StandAlone(s_addr).set(_x);\n    }\n}\n",
  "sourcePath": "/home/ivan/MacherIT/Ethereum/fiblo/contracts/Module.sol",
  "compiler": {
    "name": "solc",
    "version": "0.4.24+commit.e67f0147.Emscripten.clang"
  },
  "schemaVersion": "2.0.1",
  "updatedAt": "2019-05-23T15:39:32.413Z"
}