{
  "contractName": "OraculoPrecio",
  "abi": [
    {
      "constant": false,
      "inputs": [],
      "name": "kill",
      "outputs": [],
      "payable": false,
      "stateMutability": "nonpayable",
      "type": "function"
    },
    {
      "constant": true,
      "inputs": [],
      "name": "owner",
      "outputs": [
        {
          "name": "",
          "type": "address"
        }
      ],
      "payable": false,
      "stateMutability": "view",
      "type": "function"
    },
    {
      "inputs": [],
      "payable": false,
      "stateMutability": "nonpayable",
      "type": "constructor"
    },
    {
      "anonymous": false,
      "inputs": [
        {
          "indexed": false,
          "name": "precio_viejo",
          "type": "uint256"
        },
        {
          "indexed": false,
          "name": "precio",
          "type": "uint256"
        }
      ],
      "name": "precioSetted",
      "type": "event"
    },
    {
      "constant": false,
      "inputs": [
        {
          "name": "precio",
          "type": "uint256"
        }
      ],
      "name": "setPrecio",
      "outputs": [],
      "payable": false,
      "stateMutability": "nonpayable",
      "type": "function"
    },
    {
      "constant": true,
      "inputs": [],
      "name": "getPrecio",
      "outputs": [
        {
          "name": "precio",
          "type": "uint256"
        }
      ],
      "payable": false,
      "stateMutability": "view",
      "type": "function"
    }
  ],
  "bytecode": "0x608060405234801561001057600080fd5b50336000806101000a81548173ffffffffffffffffffffffffffffffffffffffff021916908373ffffffffffffffffffffffffffffffffffffffff16021790555062088b806001819055506102bf8061006a6000396000f300608060405260043610610062576000357c0100000000000000000000000000000000000000000000000000000000900463ffffffff16806341c0e1b5146100675780638da5cb5b1461007e57806396320979146100d5578063a312880b14610102575b600080fd5b34801561007357600080fd5b5061007c61012d565b005b34801561008a57600080fd5b506100936101be565b604051808273ffffffffffffffffffffffffffffffffffffffff1673ffffffffffffffffffffffffffffffffffffffff16815260200191505060405180910390f35b3480156100e157600080fd5b50610100600480360381019080803590602001909291905050506101e3565b005b34801561010e57600080fd5b50610117610289565b6040518082815260200191505060405180910390f35b6000809054906101000a900473ffffffffffffffffffffffffffffffffffffffff1673ffffffffffffffffffffffffffffffffffffffff163373ffffffffffffffffffffffffffffffffffffffff1614156101bc576000809054906101000a900473ffffffffffffffffffffffffffffffffffffffff1673ffffffffffffffffffffffffffffffffffffffff16ff5b565b6000809054906101000a900473ffffffffffffffffffffffffffffffffffffffff1681565b6000809054906101000a900473ffffffffffffffffffffffffffffffffffffffff1673ffffffffffffffffffffffffffffffffffffffff163373ffffffffffffffffffffffffffffffffffffffff1614151561023e57600080fd5b7f08219c279617eabd27e6bf20f7f48bc5f0095b22d7230099e29b26eabbfb8d2d60015482604051808381526020018281526020019250505060405180910390a18060018190555050565b60006001549050905600a165627a7a72305820eb2a624f03fdad09c42345d8e4265b35c100938a1240cc88fcfe2cb14783243d0029",
  "source": "pragma solidity ^0.4.22;\n\nimport './mortal.sol';\n\ncontract OraculoPrecio is mortal {\n\n  event precioSetted(uint precio_viejo, uint precio);\n\n  uint precio_eth_ars;\n\n  constructor() public {\n    precio_eth_ars = 560000;\n  }\n\n  function setPrecio(uint precio) onlyowner public {\n    emit precioSetted(precio_eth_ars, precio);\n    precio_eth_ars = precio;\n  }\n\n  function getPrecio() public view returns (uint precio) {\n    return precio_eth_ars;\n  }\n\n}\n",
  "sourcePath": "/home/ivan/MacherIT/Ethereum/fiblo/contracts/OraculoPrecio.sol",
  "compiler": {
    "name": "solc",
    "version": "0.4.24+commit.e67f0147.Emscripten.clang"
  },
  "schemaVersion": "2.0.1",
  "updatedAt": "2019-03-08T15:27:02.847Z"
}