{
  "contractName": "SASFactory",
  "abi": [
    {
      "constant": false,
      "inputs": [],
      "name": "kill",
      "outputs": [],
      "payable": false,
      "stateMutability": "nonpayable",
      "type": "function"
    },
    {
      "constant": true,
      "inputs": [],
      "name": "owner",
      "outputs": [
        {
          "name": "",
          "type": "address"
        }
      ],
      "payable": false,
      "stateMutability": "view",
      "type": "function"
    },
    {
      "constant": false,
      "inputs": [],
      "name": "createContrato",
      "outputs": [
        {
          "name": "addr",
          "type": "address"
        }
      ],
      "payable": true,
      "stateMutability": "payable",
      "type": "function"
    },
    {
      "constant": true,
      "inputs": [],
      "name": "getContratoAddress",
      "outputs": [
        {
          "name": "addr",
          "type": "address"
        }
      ],
      "payable": false,
      "stateMutability": "view",
      "type": "function"
    }
  ],
  "bytecode": "0x6080604052336000806101000a81548173ffffffffffffffffffffffffffffffffffffffff021916908373ffffffffffffffffffffffffffffffffffffffff160217905550612a9f806100536000396000f300608060405260043610610062576000357c0100000000000000000000000000000000000000000000000000000000900463ffffffff16806341c0e1b51461006757806361b8712c1461007e5780636a3675b5146100c85780638da5cb5b1461011f575b600080fd5b34801561007357600080fd5b5061007c610176565b005b610086610207565b604051808273ffffffffffffffffffffffffffffffffffffffff1673ffffffffffffffffffffffffffffffffffffffff16815260200191505060405180910390f35b3480156100d457600080fd5b506100dd610397565b604051808273ffffffffffffffffffffffffffffffffffffffff1673ffffffffffffffffffffffffffffffffffffffff16815260200191505060405180910390f35b34801561012b57600080fd5b50610134610486565b604051808273ffffffffffffffffffffffffffffffffffffffff1673ffffffffffffffffffffffffffffffffffffffff16815260200191505060405180910390f35b6000809054906101000a900473ffffffffffffffffffffffffffffffffffffffff1673ffffffffffffffffffffffffffffffffffffffff163373ffffffffffffffffffffffffffffffffffffffff161415610205576000809054906101000a900473ffffffffffffffffffffffffffffffffffffffff1673ffffffffffffffffffffffffffffffffffffffff16ff5b565b600080600160003373ffffffffffffffffffffffffffffffffffffffff1673ffffffffffffffffffffffffffffffffffffffff16815260200190815260200160002060009054906101000a900473ffffffffffffffffffffffffffffffffffffffff1673ffffffffffffffffffffffffffffffffffffffff16141561038f5761028e6104ab565b604051809103906000f0801580156102aa573d6000803e3d6000fd5b50600160003373ffffffffffffffffffffffffffffffffffffffff1673ffffffffffffffffffffffffffffffffffffffff16815260200190815260200160002060006101000a81548173ffffffffffffffffffffffffffffffffffffffff021916908373ffffffffffffffffffffffffffffffffffffffff160217905550600160003373ffffffffffffffffffffffffffffffffffffffff1673ffffffffffffffffffffffffffffffffffffffff16815260200190815260200160002060009054906101000a900473ffffffffffffffffffffffffffffffffffffffff169050610394565b600090505b90565b600080600160003373ffffffffffffffffffffffffffffffffffffffff1673ffffffffffffffffffffffffffffffffffffffff16815260200190815260200160002060009054906101000a900473ffffffffffffffffffffffffffffffffffffffff1673ffffffffffffffffffffffffffffffffffffffff1614151561047e57600160003373ffffffffffffffffffffffffffffffffffffffff1673ffffffffffffffffffffffffffffffffffffffff16815260200190815260200160002060009054906101000a900473ffffffffffffffffffffffffffffffffffffffff169050610483565b600090505b90565b6000809054906101000a900473ffffffffffffffffffffffffffffffffffffffff1681565b6040516125b8806104bc833901905600608060405234801561001057600080fd5b50336000806101000a81548173ffffffffffffffffffffffffffffffffffffffff021916908373ffffffffffffffffffffffffffffffffffffffff160217905550601260038190555060006005819055506000600e60006101000a81548160ff0219169083151502179055506000600e60016101000a81548160ff0219169083151502179055506000600e60026101000a81548160ff0219169083151502179055506124f7806100c16000396000f3006080604052600436106101ab576000357c0100000000000000000000000000000000000000000000000000000000900463ffffffff16806202736b146101b057806306587b491461021957806306c0634314610230578063193afc561461025b5780631dc663051461029e578063252498a2146102b55780632ad1e71e1461031e5780633ed742ca1461036157806341c0e1b51461038c57806349f7015a146103a35780634bce46ea146104335780634eaeff281461046057806370a082311461048b578063817ff5a6146104e25780638827e09b1461054b578063889374721461056b5780638da5cb5b1461059657806394f61d1c146105ed5780639a918ce31461061c578063a9059cbb1461064b578063aa44fcd4146106b0578063b01b0c4114610740578063b84c82461461076b578063bde2acda146107d4578063d2938ab014610801578063d3c749d81461082c578063d45795cb146108bc578063de75e16d14610925578063e0ab6acf1461097c578063e278fe6f14610a0c578063e898ac8e14610a3b578063e99fda1114610acb578063fc3a171614610afa578063fe305c3614610b27575b600080fd5b3480156101bc57600080fd5b50610217600480360381019080803590602001908201803590602001908080601f0160208091040260200160405190810160405280939291908181526020018383808284378201915050505050509192919290505050610b54565b005b34801561022557600080fd5b5061022e610c83565b005b34801561023c57600080fd5b50610245610df1565b6040518082815260200191505060405180910390f35b34801561026757600080fd5b5061029c600480360381019080803573ffffffffffffffffffffffffffffffffffffffff169060200190929190505050610df7565b005b3480156102aa57600080fd5b506102b3610f1b565b005b3480156102c157600080fd5b5061031c600480360381019080803590602001908201803590602001908080601f01602080910402602001604051908101604052809392919081815260200183838082843782019150505050505091929192905050506110ab565b005b34801561032a57600080fd5b5061035f600480360381019080803573ffffffffffffffffffffffffffffffffffffffff1690602001909291905050506111da565b005b34801561036d57600080fd5b50610376611279565b6040518082815260200191505060405180910390f35b34801561039857600080fd5b506103a161127f565b005b3480156103af57600080fd5b506103b8611310565b6040518080602001828103825283818151815260200191508051906020019080838360005b838110156103f85780820151818401526020810190506103dd565b50505050905090810190601f1680156104255780820380516001836020036101000a031916815260200191505b509250505060405180910390f35b34801561043f57600080fd5b5061045e600480360381019080803590602001909291905050506113ae565b005b34801561046c57600080fd5b506104756114b8565b6040518082815260200191505060405180910390f35b34801561049757600080fd5b506104cc600480360381019080803573ffffffffffffffffffffffffffffffffffffffff1690602001909291905050506114be565b6040518082815260200191505060405180910390f35b3480156104ee57600080fd5b50610549600480360381019080803590602001908201803590602001908080601f0160208091040260200160405190810160405280939291908181526020018383808284378201915050505050509192919290505050611507565b005b61056960048036038101908080359060200190929190505050611636565b005b34801561057757600080fd5b506105806118b5565b6040518082815260200191505060405180910390f35b3480156105a257600080fd5b506105ab6118bb565b604051808273ffffffffffffffffffffffffffffffffffffffff1673ffffffffffffffffffffffffffffffffffffffff16815260200191505060405180910390f35b3480156105f957600080fd5b506106026118e0565b604051808215151515815260200191505060405180910390f35b34801561062857600080fd5b506106316118f3565b604051808215151515815260200191505060405180910390f35b34801561065757600080fd5b50610696600480360381019080803573ffffffffffffffffffffffffffffffffffffffff16906020019092919080359060200190929190505050611906565b604051808215151515815260200191505060405180910390f35b3480156106bc57600080fd5b506106c5611b04565b6040518080602001828103825283818151815260200191508051906020019080838360005b838110156107055780820151818401526020810190506106ea565b50505050905090810190601f1680156107325780820380516001836020036101000a031916815260200191505b509250505060405180910390f35b34801561074c57600080fd5b50610755611ba2565b6040518082815260200191505060405180910390f35b34801561077757600080fd5b506107d2600480360381019080803590602001908201803590602001908080601f0160208091040260200160405190810160405280939291908181526020018383808284378201915050505050509192919290505050611ba8565b005b3480156107e057600080fd5b506107ff60048036038101908080359060200190929190505050611cb9565b005b34801561080d57600080fd5b50610816611d57565b6040518082815260200191505060405180910390f35b34801561083857600080fd5b50610841611d5d565b6040518080602001828103825283818151815260200191508051906020019080838360005b83811015610881578082015181840152602081019050610866565b50505050905090810190601f1680156108ae5780820380516001836020036101000a031916815260200191505b509250505060405180910390f35b3480156108c857600080fd5b50610923600480360381019080803590602001908201803590602001908080601f0160208091040260200160405190810160405280939291908181526020018383808284378201915050505050509192919290505050611dfb565b005b34801561093157600080fd5b5061093a611f2a565b604051808273ffffffffffffffffffffffffffffffffffffffff1673ffffffffffffffffffffffffffffffffffffffff16815260200191505060405180910390f35b34801561098857600080fd5b50610991611f50565b6040518080602001828103825283818151815260200191508051906020019080838360005b838110156109d15780820151818401526020810190506109b6565b50505050905090810190601f1680156109fe5780820380516001836020036101000a031916815260200191505b509250505060405180910390f35b348015610a1857600080fd5b50610a21611fee565b604051808215151515815260200191505060405180910390f35b348015610a4757600080fd5b50610a506120e3565b6040518080602001828103825283818151815260200191508051906020019080838360005b83811015610a90578082015181840152602081019050610a75565b50505050905090810190601f168015610abd5780820380516001836020036101000a031916815260200191505b509250505060405180910390f35b348015610ad757600080fd5b50610ae0612181565b604051808215151515815260200191505060405180910390f35b348015610b0657600080fd5b50610b2560048036038101908080359060200190929190505050612194565b005b348015610b3357600080fd5b50610b5260048036038101908080359060200190929190505050612232565b005b6000809054906101000a900473ffffffffffffffffffffffffffffffffffffffff1673ffffffffffffffffffffffffffffffffffffffff163373ffffffffffffffffffffffffffffffffffffffff16141515610baf57600080fd5b8060089080519060200190610bc5929190612426565b507fc71c2644179666c228fa56e641bc2d6f6945a954d8857b2f64b4c0ec6898faef60086040518080602001828103825283818154600181600116156101000203166002900481526020019150805460018160011615610100020316600290048015610c725780601f10610c4757610100808354040283529160200191610c72565b820191906000526020600020905b815481529060010190602001808311610c5557829003601f168201915b50509250505060405180910390a150565b6000809054906101000a900473ffffffffffffffffffffffffffffffffffffffff1673ffffffffffffffffffffffffffffffffffffffff163373ffffffffffffffffffffffffffffffffffffffff16141515610cde57600080fd5b600160009054906101000a900473ffffffffffffffffffffffffffffffffffffffff1673ffffffffffffffffffffffffffffffffffffffff16639a749171306040518263ffffffff167c0100000000000000000000000000000000000000000000000000000000028152600401808273ffffffffffffffffffffffffffffffffffffffff1673ffffffffffffffffffffffffffffffffffffffff168152602001915050602060405180830381600087803b158015610d9b57600080fd5b505af1158015610daf573d6000803e3d6000fd5b505050506040513d6020811015610dc557600080fd5b8101908080519060200190929190505050600e60006101000a81548160ff021916908315150217905550565b60095481565b6000809054906101000a900473ffffffffffffffffffffffffffffffffffffffff1673ffffffffffffffffffffffffffffffffffffffff163373ffffffffffffffffffffffffffffffffffffffff16141515610e5257600080fd5b80600660006101000a81548173ffffffffffffffffffffffffffffffffffffffff021916908373ffffffffffffffffffffffffffffffffffffffff1602179055507f839d4499d7a59a2a3e8caefa68e6fa56efe72448bded2ef3394eb8dc0791c014600660009054906101000a900473ffffffffffffffffffffffffffffffffffffffff16604051808273ffffffffffffffffffffffffffffffffffffffff1673ffffffffffffffffffffffffffffffffffffffff16815260200191505060405180910390a150565b6000809054906101000a900473ffffffffffffffffffffffffffffffffffffffff1673ffffffffffffffffffffffffffffffffffffffff163373ffffffffffffffffffffffffffffffffffffffff16141515610f7657600080fd5b600160009054906101000a900473ffffffffffffffffffffffffffffffffffffffff1673ffffffffffffffffffffffffffffffffffffffff1663ee892cef600660009054906101000a900473ffffffffffffffffffffffffffffffffffffffff166040518263ffffffff167c0100000000000000000000000000000000000000000000000000000000028152600401808273ffffffffffffffffffffffffffffffffffffffff1673ffffffffffffffffffffffffffffffffffffffff168152602001915050602060405180830381600087803b15801561105557600080fd5b505af1158015611069573d6000803e3d6000fd5b505050506040513d602081101561107f57600080fd5b8101908080519060200190929190505050600e60016101000a81548160ff021916908315150217905550565b6000809054906101000a900473ffffffffffffffffffffffffffffffffffffffff1673ffffffffffffffffffffffffffffffffffffffff163373ffffffffffffffffffffffffffffffffffffffff1614151561110657600080fd5b806007908051906020019061111c929190612426565b507f9db0119a744a0f7b8709b1586d61275999f138f86077631c22039b9027d28637600760405180806020018281038252838181546001816001161561010002031660029004815260200191508054600181600116156101000203166002900480156111c95780601f1061119e576101008083540402835291602001916111c9565b820191906000526020600020905b8154815290600101906020018083116111ac57829003601f168201915b50509250505060405180910390a150565b6000809054906101000a900473ffffffffffffffffffffffffffffffffffffffff1673ffffffffffffffffffffffffffffffffffffffff163373ffffffffffffffffffffffffffffffffffffffff1614151561123557600080fd5b80600160006101000a81548173ffffffffffffffffffffffffffffffffffffffff021916908373ffffffffffffffffffffffffffffffffffffffff16021790555050565b60055481565b6000809054906101000a900473ffffffffffffffffffffffffffffffffffffffff1673ffffffffffffffffffffffffffffffffffffffff163373ffffffffffffffffffffffffffffffffffffffff16141561130e576000809054906101000a900473ffffffffffffffffffffffffffffffffffffffff1673ffffffffffffffffffffffffffffffffffffffff16ff5b565b60048054600181600116156101000203166002900480601f0160208091040260200160405190810160405280929190818152602001828054600181600116156101000203166002900480156113a65780601f1061137b576101008083540402835291602001916113a6565b820191906000526020600020905b81548152906001019060200180831161138957829003601f168201915b505050505081565b6000809054906101000a900473ffffffffffffffffffffffffffffffffffffffff1673ffffffffffffffffffffffffffffffffffffffff163373ffffffffffffffffffffffffffffffffffffffff1614151561140957600080fd5b600354600a0a8102600281905550600254601060008060009054906101000a900473ffffffffffffffffffffffffffffffffffffffff1673ffffffffffffffffffffffffffffffffffffffff1673ffffffffffffffffffffffffffffffffffffffff168152602001908152602001600020819055507f9d22dd40e1955aa96a9462ac509affedff1653cea2da2ed7785c468f3ab54a0b816040518082815260200191505060405180910390a150565b600a5481565b6000601060008373ffffffffffffffffffffffffffffffffffffffff1673ffffffffffffffffffffffffffffffffffffffff168152602001908152602001600020549050919050565b6000809054906101000a900473ffffffffffffffffffffffffffffffffffffffff1673ffffffffffffffffffffffffffffffffffffffff163373ffffffffffffffffffffffffffffffffffffffff1614151561156257600080fd5b80600b9080519060200190611578929190612426565b507fcd629a4f10aa26a80a9e2d3567cfea83e32013497affdc9c3f7b49438dd25907600b60405180806020018281038252838181546001816001161561010002031660029004815260200191508054600181600116156101000203166002900480156116255780601f106115fa57610100808354040283529160200191611625565b820191906000526020600020905b81548152906001019060200180831161160857829003601f168201915b50509250505060405180910390a150565b600e60009054906101000a900460ff16801561165e5750600e60019054906101000a900460ff165b80156116775750600e60029054906101000a900460ff16155b1515611737576040517f08c379a00000000000000000000000000000000000000000000000000000000081526004018080602001828103825260558152602001807f426f746820636f6e747261637420616e642062656e6566696369617279206d7581526020017f73742062652076616c69646174656420627920746865204e564320616e64207481526020017f686520726f756e64206d757374206265206f70656e000000000000000000000081525060600191505060405180910390fd5b60003411156117ac577f3f638da77ee3d49db2211092b965c9c7c2fcb68fea5e8f85986200f8776f6a1d3334604051808373ffffffffffffffffffffffffffffffffffffffff1673ffffffffffffffffffffffffffffffffffffffff1681526020018281526020019250505060405180910390a15b6005600081548092919060010191905055506060604051908101604052803373ffffffffffffffffffffffffffffffffffffffff16815260200182815260200134815250600f6000600554815260200190815260200160002060008201518160000160006101000a81548173ffffffffffffffffffffffffffffffffffffffff021916908373ffffffffffffffffffffffffffffffffffffffff1602179055506020820151816001015560408201518160020155905050803373ffffffffffffffffffffffffffffffffffffffff167fbb7c95956eba9b5055c595e4f650eeb4af09c486b474ab1bc200a3a7eaf417de346040518082815260200191505060405180910390a350565b60035481565b6000809054906101000a900473ffffffffffffffffffffffffffffffffffffffff1681565b600e60009054906101000a900460ff1681565b600e60029054906101000a900460ff1681565b600061197b82601060008060009054906101000a900473ffffffffffffffffffffffffffffffffffffffff1673ffffffffffffffffffffffffffffffffffffffff1673ffffffffffffffffffffffffffffffffffffffff168152602001908152602001600020546122d090919063ffffffff16565b601060008060009054906101000a900473ffffffffffffffffffffffffffffffffffffffff1673ffffffffffffffffffffffffffffffffffffffff1673ffffffffffffffffffffffffffffffffffffffff16815260200190815260200160002081905550611a3182601060008673ffffffffffffffffffffffffffffffffffffffff1673ffffffffffffffffffffffffffffffffffffffff1681526020019081526020016000205461237b90919063ffffffff16565b601060008573ffffffffffffffffffffffffffffffffffffffff1673ffffffffffffffffffffffffffffffffffffffff168152602001908152602001600020819055508273ffffffffffffffffffffffffffffffffffffffff166000809054906101000a900473ffffffffffffffffffffffffffffffffffffffff1673ffffffffffffffffffffffffffffffffffffffff167fddf252ad1be2c89b69c2b068fc378daa952ba7f163c4a11628f55a4df523b3ef846040518082815260200191505060405180910390a36001905092915050565b60078054600181600116156101000203166002900480601f016020809104026020016040519081016040528092919081815260200182805460018160011615610100020316600290048015611b9a5780601f10611b6f57610100808354040283529160200191611b9a565b820191906000526020600020905b815481529060010190602001808311611b7d57829003601f168201915b505050505081565b600d5481565b6000809054906101000a900473ffffffffffffffffffffffffffffffffffffffff1673ffffffffffffffffffffffffffffffffffffffff163373ffffffffffffffffffffffffffffffffffffffff16141515611c0357600080fd5b8060049080519060200190611c19929190612426565b507f4324c590b7c4eac8271240278ca15fd7a4a5b193e52a941793ef015049fa33ef816040518080602001828103825283818151815260200191508051906020019080838360005b83811015611c7c578082015181840152602081019050611c61565b50505050905090810190601f168015611ca95780820380516001836020036101000a031916815260200191505b509250505060405180910390a150565b6000809054906101000a900473ffffffffffffffffffffffffffffffffffffffff1673ffffffffffffffffffffffffffffffffffffffff163373ffffffffffffffffffffffffffffffffffffffff16141515611d1457600080fd5b80600d819055507fb7746e669a746645aa4028b54668021861838111c88f67ae39a667d09bf92b4d600d546040518082815260200191505060405180910390a150565b60025481565b60088054600181600116156101000203166002900480601f016020809104026020016040519081016040528092919081815260200182805460018160011615610100020316600290048015611df35780601f10611dc857610100808354040283529160200191611df3565b820191906000526020600020905b815481529060010190602001808311611dd657829003601f168201915b505050505081565b6000809054906101000a900473ffffffffffffffffffffffffffffffffffffffff1673ffffffffffffffffffffffffffffffffffffffff163373ffffffffffffffffffffffffffffffffffffffff16141515611e5657600080fd5b80600c9080519060200190611e6c929190612426565b507f463e27b451223a222fe2d62c3c9614c754e3c0028bec5d73188c03cba5f9f09f600c6040518080602001828103825283818154600181600116156101000203166002900481526020019150805460018160011615610100020316600290048015611f195780601f10611eee57610100808354040283529160200191611f19565b820191906000526020600020905b815481529060010190602001808311611efc57829003601f168201915b50509250505060405180910390a150565b600660009054906101000a900473ffffffffffffffffffffffffffffffffffffffff1681565b600c8054600181600116156101000203166002900480601f016020809104026020016040519081016040528092919081815260200182805460018160011615610100020316600290048015611fe65780601f10611fbb57610100808354040283529160200191611fe6565b820191906000526020600020905b815481529060010190602001808311611fc957829003601f168201915b505050505081565b6000806000809054906101000a900473ffffffffffffffffffffffffffffffffffffffff1673ffffffffffffffffffffffffffffffffffffffff163373ffffffffffffffffffffffffffffffffffffffff1614151561204c57600080fd5b600190505b600554811115156120c0576120b2600f600083815260200190815260200160002060000160009054906101000a900473ffffffffffffffffffffffffffffffffffffffff16600f600084815260200190815260200160002060020154611906565b508080600101915050612051565b6001600e60026101000a81548160ff021916908315150217905550600191505090565b600b8054600181600116156101000203166002900480601f0160208091040260200160405190810160405280929190818152602001828054600181600116156101000203166002900480156121795780601f1061214e57610100808354040283529160200191612179565b820191906000526020600020905b81548152906001019060200180831161215c57829003601f168201915b505050505081565b600e60019054906101000a900460ff1681565b6000809054906101000a900473ffffffffffffffffffffffffffffffffffffffff1673ffffffffffffffffffffffffffffffffffffffff163373ffffffffffffffffffffffffffffffffffffffff161415156121ef57600080fd5b80600a819055507f35d2c3056affd324e5095b3adf0b54d8f40292417c379911e21bc6d7d9ba9ff2600a546040518082815260200191505060405180910390a150565b6000809054906101000a900473ffffffffffffffffffffffffffffffffffffffff1673ffffffffffffffffffffffffffffffffffffffff163373ffffffffffffffffffffffffffffffffffffffff1614151561228d57600080fd5b806009819055507fc3f457ddc0b2fa1c765c0f3752c077176c334a00fc67bde505222e7735fa474b6009546040518082815260200191505060405180910390a150565b6000828211151515612370576040517f08c379a00000000000000000000000000000000000000000000000000000000081526004018080602001828103825260358152602001807f5375627374726163746f72206d757374206265206c6f776572206f722065717581526020017f616c20746f206f726967696e616c206e756d626572000000000000000000000081525060400191505060405180910390fd5b818303905092915050565b60008183019050828110151515612420576040517f08c379a00000000000000000000000000000000000000000000000000000000081526004018080602001828103825260328152602001807f526573756c74206d7573742062652067726561746572206f7220657175616c2081526020017f746f206f726967696e616c206e756d626572000000000000000000000000000081525060400191505060405180910390fd5b92915050565b828054600181600116156101000203166002900490600052602060002090601f016020900481019282601f1061246757805160ff1916838001178555612495565b82800160010185558215612495579182015b82811115612494578251825591602001919060010190612479565b5b5090506124a291906124a6565b5090565b6124c891905b808211156124c45760008160009055506001016124ac565b5090565b905600a165627a7a72305820c66d24b11c8e05d80ff29a36af5b94a73441adb1d0b1679e94819d78dcac7f650029a165627a7a72305820bf8398d16891ff5c6bb74929716faa0c28e25c3d0cabb8f1e9fb5929896657db0029",
  "source": "pragma solidity ^0.4.22;\n\nimport './mortal.sol';\nimport './ContratoSAS.sol';\n\ncontract SASFactory is mortal {\n\n  mapping(address => address) contratos;\n\n  function createContrato() public payable returns(address addr) {\n    if (contratos[msg.sender] == 0) {\n      contratos[msg.sender] = new ContratoSAS();\n      return address(contratos[msg.sender]);\n    }\n    else{\n      return 0;\n    }\n  }\n\n  function getContratoAddress() public view returns(address addr) {\n    if (contratos[msg.sender] != 0) {\n      return address(contratos[msg.sender]);\n    }\n    else{\n      return 0;\n    }\n  }\n\n}\n",
  "sourcePath": "/home/ivan/MacherIT/Ethereum/fiblo/contracts/SASFactory.sol",
  "compiler": {
    "name": "solc",
    "version": "0.4.24+commit.e67f0147.Emscripten.clang"
  },
  "schemaVersion": "2.0.1",
  "updatedAt": "2019-02-20T14:37:57.050Z"
}