{
  "contractName": "StandAlone",
  "abi": [
    {
      "constant": true,
      "inputs": [],
      "name": "x",
      "outputs": [
        {
          "name": "",
          "type": "uint256"
        }
      ],
      "payable": false,
      "stateMutability": "view",
      "type": "function"
    },
    {
      "constant": true,
      "inputs": [],
      "name": "get",
      "outputs": [
        {
          "name": "",
          "type": "uint256"
        }
      ],
      "payable": false,
      "stateMutability": "view",
      "type": "function"
    },
    {
      "constant": false,
      "inputs": [
        {
          "name": "_x",
          "type": "uint256"
        }
      ],
      "name": "set",
      "outputs": [
        {
          "name": "success",
          "type": "bool"
        }
      ],
      "payable": false,
      "stateMutability": "nonpayable",
      "type": "function"
    },
    {
      "constant": true,
      "inputs": [],
      "name": "getLongWay",
      "outputs": [
        {
          "name": "",
          "type": "uint256"
        }
      ],
      "payable": false,
      "stateMutability": "view",
      "type": "function"
    }
  ],
  "bytecode": "0x6080604052600160005534801561001557600080fd5b50610189806100256000396000f300608060405260043610610062576000357c0100000000000000000000000000000000000000000000000000000000900463ffffffff1680630c55699c1461006757806360fe47b1146100925780636d4ce63c146100d75780639d2d141f14610102575b600080fd5b34801561007357600080fd5b5061007c61012d565b6040518082815260200191505060405180910390f35b34801561009e57600080fd5b506100bd60048036038101908080359060200190929190505050610133565b604051808215151515815260200191505060405180910390f35b3480156100e357600080fd5b506100ec610145565b6040518082815260200191505060405180910390f35b34801561010e57600080fd5b5061011761014e565b6040518082815260200191505060405180910390f35b60005481565b60008160008190555060019050919050565b60008054905090565b6000610158610145565b9050905600a165627a7a72305820013f2cdc0b7b2de27b94ec215e04d5a288a86adbbf18554545c50ba5b4774d9b0029",
  "source": "pragma solidity ^0.4.22;\n\ncontract StandAlone {\n    uint public x = 1;\n\n    function get() public view returns(uint) {\n        return x;\n    }\n\n    function set(uint _x) public returns(bool success) {\n        x = _x;\n        return true;\n    }\n\n    function getLongWay() public view returns(uint) {\n        return get();\n    }\n}\n",
  "sourcePath": "/home/ivan/MacherIT/Ethereum/fiblo/contracts/StandAlone.sol",
  "compiler": {
    "name": "solc",
    "version": "0.4.24+commit.e67f0147.Emscripten.clang"
  },
  "schemaVersion": "2.0.1",
  "updatedAt": "2019-05-08T15:41:01.742Z"
}